:020000040800F2
:10000000E8210020052B000889260008F12A0008B5
:10001000F12A0008F12A0008F12A00080000000077
:10002000000000000000000000000000E52B0008B8
:10003000F12A0008000000008D2B0008513900084B
:10004000192D0008192D0008192D0008192D000878
:10005000192D0008192D0008192D0008192D000868
:10006000192D0008192D0008192D0008192D000858
:10007000192D0008192D0008192D0008192D000848
:10008000192D0008192D0008192D0008192D000838
:10009000192D0008192D0008192D0008192D000828
:1000A000192D0008192D0008192D0008192D000818
:1000B000192D0008192D0008192D0008192D000808
:1000C000192D0008192D0008192D0008192D0008F8
:1000D000192D0008192D0008192D0008192D0008E8
:0C00E000192D0008192D0008192D00082A
:1000EC0081F0004102E000BF83F0004330B54FEADD
:1000FC0041044FEA430594EA050F08BF90EA020F4A
:10010C001FBF54EA000C55EA020C7FEA645C7FEADC
:10011C00655C00F0E2804FEA5454D4EB5555B8BFFF
:10012C006D420CDD2C4480EA020281EA030382EA70
:10013C00000083EA010180EA020281EA0303362D02
:10014C0088BF30BD11F0004F4FEA01314FF4801CD5
:10015C004CEA113102D0404261EB410113F0004FE7
:10016C004FEA03334CEA133302D0524263EB43039E
:10017C0094EA050F00F0A780A4F10104D5F1200E3C
:10018C000DDB02FA0EFC22FA05F2801841F1000197
:10019C0003FA0EF2801843FA05F359410EE0A5F16B
:1001AC0020050EF1200E012A03FA0EFC28BF4CF09C
:1001BC00020C43FA05F3C01851EBE37101F0004552
:1001CC0007D54FF0000EDCF1000C7EEB00006EEB5F
:1001DC000101B1F5801F1BD3B1F5001F0CD34908E9
:1001EC005FEA30004FEA3C0C04F101044FEA445240
:1001FC0012F5800F80F09A80BCF1004F08BF5FEAC7
:10020C00500C50F1000041EB045141EA050130BDA6
:10021C005FEA4C0C404141EB0101013C28BFB1F5B8
:10022C00801FE9D291F0000F04BF01460020B1FA03
:10023C0081F308BF2033A3F10B03B3F120020CDAD6
:10024C000C3208DD02F1140CC2F10C0201FA0CF0B4
:10025C0021FA02F10CE002F11402D8BFC2F1200C19
:10026C0001FA02F120FA0CFCDCBF41EA0C019040CF
:10027C00E41AA2BF01EB0451294330BD6FEA040418
:10028C001F3C1CDA0C340EDC04F11404C4F1200203
:10029C0020FA04F001FA02F340EA030021FA04F315
:1002AC0045EA030130BDC4F10C04C4F1200220FA6C
:1002BC0002F001FA04F340EA0300294630BD21FAAA
:1002CC0004F0294630BD94F0000F83F4801306BF70
:1002DC0081F480110134013D4EE77FEA645C18BF64
:1002EC007FEA655C29D094EA050F08BF90EA020FFB
:1002FC0005D054EA000C04BF1946104630BD91EAF3
:10030C00030F1EBF0021002030BD5FEA545C05D1F5
:10031C004000494128BF41F0004130BD14F5800434
:10032C003CBF01F5801130BD01F0004545F0FE41A8
:10033C0041F470014FF0000030BD7FEA645C1ABFDD
:10034C00194610467FEA655C1CBF0B46024650EA14
:10035C00013406BF52EA033591EA030F41F4002140
:10036C0030BD00BF90F0000F04BF0021704730B5C6
:10037C004FF4806404F132044FF000054FF000019B
:10038C0050E700BF90F0000F04BF0021704730B55C
:10039C004FF4806404F1320410F0004548BF404231
:1003AC004FF000013EE700BF42004FEAE2014FEA86
:1003BC0031014FEA02701FBF12F07F4393F07F4F61
:1003CC0081F06051704732F07F4208BF704793F064
:1003DC007F4F04BF41F40021704730B54FF4607477
:1003EC0001F0004521F000411CE700BF50EA01027A
:1003FC0008BF704730B54FF000050AE050EA010223
:10040C0008BF704730B511F0004502D5404261EB92
:10041C0041014FF4806404F132045FEA915C3FF4D3
:10042C00D8AE4FF003025FEADC0C18BF03325FEA70
:10043C00DC0C18BF033202EBDC02C2F1200300FA21
:10044C0003FC20FA02F001FA03FE40EA0E0021FA46
:10045C0002F11444BDE600BF80F0004002E000BF92
:10046C0081F0004142001FBF5FEA410392EA030F93
:10047C007FEA226C7FEA236C6AD04FEA1262D2EBDD
:10048C001363C1BFD218414048404140B8BF5B42E2
:10049C00192B88BF704710F0004F40F4000020F07B
:1004AC007F4018BF404211F0004F41F4000121F091
:1004BC007F4118BF494292EA030F3FD0A2F10102DB
:1004CC0041FA03FC10EB0C00C3F1200301FA03F119
:1004DC0000F0004302D5494260EB4000B0F5000F3C
:1004EC0013D3B0F1807F06D340084FEA310102F1FB
:1004FC000102FE2A51D2B1F1004F40EBC25008BFAD
:10050C0020F0010040EA03007047490040EB000076
:10051C00013A28BFB0F5000FEDD2B0FA80FCACF177
:10052C00080CB2EB0C0200FA0CF0AABF00EBC250A4
:10053C0052421843BCBFD0401843704792F0000F92
:10054C0081F4000106BF80F400000132013BB5E7E5
:10055C004FEA41037FEA226C18BF7FEA236C21D05B
:10056C0092EA030F04D092F0000F08BF08467047C0
:10057C0090EA010F1CBF0020704712F07F4F04D18E
:10058C00400028BF40F00040704712F100723CBFA1
:10059C0000F50000704700F0004343F0FE4040F4CB
:1005AC00000070477FEA226216BF08467FEA236389
:1005BC000146420206BF5FEA412390EA010F40F474
:1005CC00800070474FF0000304E000BF10F00043C0
:1005DC0048BF40425FEA000C08BF704743F09643A7
:1005EC0001464FF000001CE050EA010208BF7047C2
:1005FC004FF000030AE000BF50EA010208BF704749
:10060C0011F0004302D5404261EB41015FEA010C5D
:10061C0002BF84460146002043F0B64308BFA3F155
:10062C008053A3F50003BCFA8CF2083AA3EBC25337
:10063C0010DB01FA02FC634400FA02FCC2F1200256
:10064C00BCF1004F20FA02F243EB020008BF20F08D
:10065C000100704702F1200201FA02FCC2F12002F3
:10066C0050EA4C0021FA02F243EB020008BF20EAE8
:10067C00DC7070474FF0FF0C1CEAD0521EBF1CEA16
:10068C00D15392EA0C0F93EA0C0F6FD01A4480EA04
:10069C00010C400218BF5FEA41211ED04FF00063ED
:1006AC0043EA501043EA5111A0FB01310CF0004019
:1006BC00B1F5000F3EBF490041EAD3715B0040EA3F
:1006CC00010062F17F02FD2A1DD8B3F1004F40EB0F
:1006DC00C25008BF20F00100704790F0000F0CF0E2
:1006EC00004C08BF49024CEA502040EA51207F3AA6
:1006FC00C2BFD2F1FF0340EAC250704740F4000081
:10070C004FF00003013A5DDC12F1190FDCBF00F071
:10071C0000407047C2F10002410021FA02F1C2F11F
:10072C00200200FA02FC5FEA310040F1000053EABB
:10073C004C0308BF20EADC70704792F0000F00F009
:10074C00004C02BF400010F4000F013AF9D040EA0F
:10075C000C0093F0000F01F0004C02BF490011F4A3
:10076C00000F013BF9D041EA0C018FE70CEAD153A1
:10077C0092EA0C0F18BF93EA0C0F0AD030F0004C21
:10078C0018BF31F0004CD8D180EA010000F00040D5
:10079C00704790F0000F17BF90F0004F084691F093
:1007AC00000F91F0004F14D092EA0C0F01D14202CD
:1007BC000FD193EA0C0F03D14B0218BF084608D196
:1007CC0080EA010000F0004040F0FE4040F40000E0
:1007DC00704740F0FE4040F4400070474FF0FF0C73
:1007EC001CEAD0521EBF1CEAD15392EA0C0F93EABA
:1007FC000C0F69D0A2EB030280EA010C49024FEA0C
:10080C00402037D04FF0805343EA111143EA1013C4
:10081C000CF000408B4238BF5B0042F17D024FF47C
:10082C00000C8B4224BF5B1A40EA0C00B3EB510F57
:10083C0024BFA3EB510340EA5C00B3EB910F24BF40
:10084C00A3EB910340EA9C00B3EBD10F24BFA3EBC5
:10085C00D10340EADC001B0118BF5FEA1C1CE0D18D
:10086C00FD2A3FF650AF8B4240EBC25008BF20F040
:10087C00010070470CF0004C4CEA50207F32C2BF94
:10088C00D2F1FF0340EAC250704740F400004FF031
:10089C000003013A37E792F0000F00F0004C02BF62
:1008AC00400010F4000F013AF9D040EA0C0093F02C
:1008BC00000F01F0004C02BF490011F4000F013B86
:1008CC00F9D041EA0C0195E70CEAD15392EA0C0FEE
:1008DC0008D142027FF47DAF93EA0C0F7FF470AF26
:1008EC00084676E793EA0C0F04D14B023FF44CAF69
:1008FC0008466EE730F0004C18BF31F0004CCAD1FE
:10090C0030F000427FF45CAF31F000437FF43CAF39
:10091C005FE700BF4FF0FF3C06E000BF4FF0010C5B
:10092C0002E000BF4FF0010C4DF804CD4FEA40023D
:10093C004FEA41037FEA226C18BF7FEA236C11D087
:10094C0001B052EA530C18BF90EA010F58BFB2EB3A
:10095C00030088BFC81738BF6FEAE17018BF40F0BA
:10096C00010070477FEA226C02D15FEA402C05D16E
:10097C007FEA236CE4D15FEA412CE1D05DF8040BF3
:10098C00704700BF844608466146FFE70FB5FFF786
:10099C00C9FF002848BF10F1000F0FBD4DF808ED3E
:1009AC00FFF7F4FF0CBF012000205DF808FB00BF2F
:1009BC004DF808EDFFF7EAFF34BF012000205DF889
:1009CC0008FB00BF4DF808EDFFF7E0FF94BF0120D6
:1009DC0000205DF808FB00BF4DF808EDFFF7D2FFD3
:1009EC0094BF012000205DF808FB00BF4DF808ED16
:1009FC00FFF7C8FF34BF012000205DF808FB00BFE3
:100A0C004FEA4002B2F1FE4F0FD34FF09E03B3EB0F
:100A1C0012620DD94FEA002343F0004310F0004F4F
:100A2C0023FA02F018BF404270474FF000007047A5
:100A3C0012F1610F01D1420205D110F0004008BF44
:100A4C006FF0004070474FF00000704753B94AB93F
:100A5C00002908BF00281CBF4FF0FF314FF0FF30BA
:100A6C0000F00CB8ADF1080C6DE904CE00F008F8FC
:100A7C00DDF804E0DDE9022304B07047704700BFE5
:100A8C002DE9F04786468C460846154674461946AD
:100A9C00089E002B40F0C2808542B2FA82F245D902
:100AAC004AB1C2F1200300FA02FC2EFA03F395407E
:100ABC0043EA0C0C94404FEA154EBCFBFEF8A8B26E
:100ACC000EFB18CC08FB00F9230C43EA0C439945A8
:100ADC0028D9EB1808F1FF3704D2994502D9A8F1AF
:100AEC0002072B44A3EB0903B3FBFEFC0EFB1C33E8
:100AFC000CFB00F0A4B244EA0344A04214D92C1914
:100B0C000CF1FF3304D2A04202D9ACF102032C4405
:100B1C00241A43EA07401EB10023D44034607360AA
:100B2C00BDE8F0874746DDE76346F1E792BB01215C
:100B3C00431B4FEA154EB3FBFEFCAFB20EFB1C334E
:100B4C000CFB07F8200C40EA0343984562D9EB18DC
:100B5C000CF1FF3004D2984502D9ACF102002B44C1
:100B6C00A3EB0803B3FBFEFC0EFB1C330CFB07F7DB
:100B7C00A4B244EA0344A7424ED92C190CF1FF331A
:100B8C0004D2A74202D9ACF102032C44E41B43EA81
:100B9C000040C0E7C2F12003954020FA03F12EFA81
:100BAC0003F34FEA154EB1FBFEFC90400343AFB28A
:100BBC000EFB1C100CFB07F8190C41EA0041884590
:100BCC0004FA02F422D969180CF1FF3004D28845DA
:100BDC0002D9ACF102002944A1EB0801B1FBFEFCE7
:100BEC000EFB1C110CFB07F79BB243EA01439F421F
:100BFC000ED9EB180CF1FF3104D29F4202D9ACF1A3
:100C0C0002012B44DB1B41EA004192E76046E3E71B
:100C1C006146F7E76046A3E76346B7E7834206D928
:100C2C0016B9002108467BE7C6E900E0F9E7B3FAFC
:100C3C0083F78FB9834201D3724508D8BEEB020407
:100C4C0060EB030301209C461EB9002168E738467F
:100C5C00FAE7C6E9004CF8E7C7F1200CBB4022FAD2
:100C6C000CF41C434FEA144920FA0CF3B3FBF9F8CB
:100C7C00B8402EFA0CF101430EFA07F509FB1830B7
:100C8C001FFA84FE08FB0EFA0B0C43EA00439A454C
:100C9C0002FA07F240D9E31808F1FF3004D29A4562
:100CAC0002D9A8F102002344A3EB0A03B3FBF9F821
:100CBC0009FB183308FB0EFE89B241EA03418E454D
:100CCC002CD9611808F1FF3304D28E4502D9A8F152
:100CDC000203214443EA0040A0FB0298A1EB0E0161
:100CEC004145CE46434602D306D14D4504D2B9EB1D
:100CFC00020E68EB04030138002EA6D0B5EB0E02F1
:100D0C0061EB030101FA0CFC22FA07F34CEA030332
:100D1C00F940C6E9003198E74046C5E74346D9E7B4
:100D2C00034613F8012B002AFBD1181A013870471F
:100D3C0002460B46014803F0BBB800BFC8000020B8
:100D4C00014803F02DB900BFC80000202DE9F04781
:100D5C00C820324E05F00DFC4FF0FF314FF0FF3044
:100D6C00FFF7E6FF3568FFF7EBFF00F0D5F9FFF76B
:100D7C002DFC2B49FFF77EFC2A4905F033FA0021A4
:100D8C000446FFF715FE20B120462649FFF76AFB03
:100D9C00044629462046FFF765FB224905F022FA56
:100DAC0000210546FFF704FE20B128461D49FFF738
:100DBC0059FB05464FF0000ADFF86490194F4FF0CD
:100DCC00FF314FF0FF30FFF7B3FFD6F80080FFF78D
:100DDC00B7FF00F0A1F9FFF7F9FB4946FFF74AFC12
:100DEC00394605F0FFF951460446FFF7E1FD20B105
:100DFC0020463946FFF736FB044641462846FFF7A6
:100E0C002FFB22460146084B084800F021FA00F05F
:100E1C00B7F80A2005F0ADFBD1E700BF140800209D
:100E2C00D39BDE3F0000B4430AD7233C00080020CC
:100E3C002DE9F0410024244FDFF89080244E00F07F
:100E4C00ABF92146FFF70CFB39460546FFF7CEFD03
:100E5C0020B331462846FFF703FB05461D492846BB
:100E6C00FFF708FC01462046FFF7FCFA0021044678
:100E7C00FFF79EFD3146E0B12046FFF7F3FA04463A
:100E8C004FF0FF304FF0FF31FFF752FF124B1C6059
:100E9C00FFF756FF322005F06CFBD0E741462846A1
:100EAC00FFF786FD0028D9D031462846FFF7DAFA3D
:100EBC00D3E72046FFF790FD0028E1D031462046CD
:100ECC00FFF7CEFADBE700BF00003443000034C369
:100EDC000000B443CDCC4C3E140800202DE9F04367
:100EEC0040F6B83085B005F044FB00F077F800F020
:100EFC00E1F800F01BF94FF4FA7005F03AFB4FF0F3
:100F0C00FF304FF0FF31FFF713FFFFF719FF0023FE
:100F1C004FF07F511A46174805F03EFBDFF858801A
:100F2C00DFF858904FF0FF304FF0FF31FFF700FF24
:100F3C00D8F80470D8F80060FFF702FF3846FFF7C6
:100F4C0033FA04460D4638463146FFF789FAFFF767
:100F5C002BFACDE902013046FFF726FA2246CDE9FD
:100F6C0000012B46484605F0DFFB4FF47A7005F084
:100F7C0000FBD7E700080020140800202E8A000888
:100F8C00642807B523DC10F1640F03DB002803DDB4
:100F9C00022303E06FF06300032340428DF804301A
:100FAC0001238DF806008DF805304FF0FF334FF01C
:100FBC00FF32084802F07CFF0322074801A905F024
:100FCC00DDFA044802F0ECFF03B05DF804FB0223E9
:100FDC006420E3E7B4000020F081000807B5144852
:100FEC0006F078FD28B9134803B05DF804EB05F062
:100FFC009BBB06238DF807304FF0FF334FF0FF32C9
:10100C000D4802F055FF012209480DF1070105F0CA
:10101C00B5FA094802F0C4FF00214FF4FA7003F04E
:10102C0069FB0020FFF7ACFF03B05DF804FB00BFC9
:10103C00F08100087B8A0008B400002013B5134827
:10104C000469836801A95B68984700280ED00BDB04
:10105C00BFF35B8F0E4B53E8001F013143E80012C6
:10106C00002AF8D1BFF35B8F02B010BD2268019B40
:10107C0053401B07ECD4BFF35B8F054B53E8001FA9
:10108C00013943E80012002AECD0F7E7A0810008F0
:10109C001C080020012330B4046903FA01F2236810
:1010AC00856823EA020323602B68014A30BC184789
:1010BC001000010070B5144C204606F00BFD10B367
:1010CC00124806F007FDF0B10A212046FFF7E2FFB7
:1010DC0003210E48FFF7DEFFA568AE6936B14FF06D
:1010EC0080634FF0A0720A212046B0470849094B93
:1010FC004B604FF480638B60EB6923B1BDE87040AB
:10110C0001220148184770BDB4810008A081000875
:10111C002008002049100008BFF35B8F024B1868B1
:10112C00BFF35B8F704700BF1C08002030B585B043
:10113C00164C204606F0CEFC30B9154805F0F4FAF2
:10114C004FF0FF3005B030BD4FF0FF324FF0FF33A2
:10115C00104802F0ADFE40F63103ADF8003002232A
:10116C00CDF804D002938DF80C30A36801229D6851
:10117C0020460C2301A9A847064802F011FF4FF4A2
:10118C00FA70002103F0B6FA0020DBE7F0810008CA
:10119C00A18A0008B400002070B58AB0264C274DF7
:1011AC00204606F097FC18B92C6820460AB070BD92
:1011BC004FF0FF324FF0FF33214802F079FE11233C
:1011CC008DF807300DF107030493012305930023D9
:1011DC008DF8183002AB07930623089307238DF87C
:1011EC002430A36802229E6820460C2304A9B04731
:1011FC000446134802F0D4FE002CD5D1BDF90800EA
:10120C00FFF7E4F90446BDF90A00FFF7DFF92146C0
:10121C0004F042FF0B49FFF72DFA0B49FFF7DEFAFA
:10122C0000210446FFF7C4FB20B120460749FFF715
:10123C0019F904462C60B8E7F08100082C0800204E
:10124C00B400002000003443D00F49400000B443E8
:10125C002DE9F8430546084611461F46FFF700F9ED
:10126C0004462E4EDFF8B88031462046FFF7BEFB11
:10127C00002845D12B4EDFF8A88031462046FFF7D9
:10128C0097FB002842D129682046FFF7F3F939462D
:10129C0080462046FFF7EEF9E968FFF7E3F82249AC
:1012AC000646FFF7A3FB002836D130461F49FFF74F
:1012BC007FFB00B11D4E6968EE603046FFF7DAF92E
:1012CC00296981462046FFF7CBF83946FFF786FAA5
:1012DC00A968FFF7CFF90646494640462C61FFF74F
:1012EC00C1F83146FFF7BEF8FFF78AFB6FF06303D6
:1012FC009842B8BF18466428A8BF6420BDE8F8839C
:10130C0020464146FFF7ACF80446ADE7204641467F
:10131C00FFF7A8F80446B0E7034ECCE700003443CF
:10132C000000B443000034C30000FA430000FAC3C9
:10133C002DE9F04F91B0009302F004030293C2F335
:10134C00C2030133840705460E46DDF8689003920C
:10135C00059340F0BB81041D30B1072909D86FF00B
:10136C001B0011B0BDE8F08F01F00706341DC6F16B
:10137C000806009B4FF000084FF0040A591E4FF06E
:10138C00FF3347460193C3465346CDF810800DB149
:10139C00009A22600598002800F3E8809848009A8B
:1013AC00824203D397488242C0F0E080039AA4EBB8
:1013BC00050E92074FEA9E0000F103810F2F00F2F9
:1013CC00B180002D00F0058107F140020DEB020CFD
:1013DC00019A0CF8200C0CF8102C04980130049095
:1013EC00E7E07A285DD84B280ED8472859D8292809
:1013FC002DD8252852D054D820287AD02338D0F193
:10140C00000B4BEB000B74E04C382E2849D8DFE86E
:10141C0000F07048484848484848484848484B48B5
:10142C004848484848484859484B4B595959704BBB
:10143C006D487048184B184848827F4B48484B48B9
:10144C007F0000204FF0000B4FF0040A38E001221F
:10145C002A38C0B202FA00F010EA0E0F49D110F08F
:10146C00625C2FD110EA020B43D06046013C54441D
:10147C00B4FBFAF40AFB04F4002D61D0A3EB050CC9
:10148C00A444B4453FF66BAF002868D1042B47D178
:10149C0059F8043B2360042304342AE0019A013AEE
:1014AC0001924FF0000B24E011F8010C6C2834D1A0
:1014BC00002011F8023C83466C2BC5D14FF0080A72
:1014CC005346D3E709F1070929F00709073424F03B
:1014DC000704F9E802AB35B106982044B0423FF658
:1014EC003EAFC4E900AB4FF0000B08344FF0080AD4
:1014FC00534611F8010F002878D0BBF1000F7FF490
:10150C0070AF2528F5D14FF0010B019B01330193EE
:10151C004FF0040AECE7584694E700208346A5E711
:10152C00082B02D06FF015001BE709F1070929F011
:10153C000709F9E80223C4E9002308230834D8E793
:10154C0068B9042B02D109F10409A4E7082BE9D1ED
:10155C0009F1070929F0070909F10809EDE7059ACE
:10156C00013A059259F8042B009210E7039A900760
:10157C0020D54FF0010CA4EB050E4FEA9E00BEF5F2
:10158C00007FCFD20F2FCDD8F5B107F140020DEB74
:10159C00020E019AC0B20EF8200C0EF8102CBCF101
:1015AC00000F3FF41AAF60F07F000EF8200C08F12A
:1015BC0001080137C5F108024FF6DA7E04340692B1
:1015CC0097E74FF0000CDAE7BCF1000F01D00136C1
:1015DC00EFE7029802360028EBD10098CDE90631EE
:1015EC00FFF79EFBDDE906310644E2E7631BB3F52A
:1015FC00806F97D245B9A6F10804E018B1E600BF98
:10160C00A0800008B0940008029A9B0828602B70F8
:10161C009DF81030C2B1EB7085F80280B8F1000F64
:10162C0005D0002208A8C5F1010C97420ED14FF04D
:10163C00000AC5F101030DF1200901930DF1300BE6
:10164C00574512D1601B8CE66B70E5E710F8013B37
:10165C00190608D504EB0C0EB64503F07F033FF6D4
:10166C007EAE04F8013B0132DFE7B8F1000F03D086
:10167C0099F90020002A17DB029BD3B11AF80B2032
:10168C0004F8012B0022019B98182044B0423FF62D
:10169C0066AE99F80000009904F8010B20460392FD
:1016AC0006F0CFFC039A14440AF1010A09F101096E
:1016BC00C6E799F8002055F822300093029B009859
:1016CC0045F82230FFF72CFB421CDCE76FF00D00D5
:1016DC0047E600BF2DE9F04F97B000AFD7F880B0C8
:1016EC007B62CBF3C0030446894690F802A0FA62F1
:1016FC00BB6141B9457800780AEB800020444D4528
:10170C0017D8A0EB0409E378FB61BAF1000F02D003
:10171C001BF0010F16D1FB6953BBFB6A1BB1494689
:10172C0020467A6A98474D4628465C37BD46BDE848
:10173C00F08F461C3046FFF7F3FA0130304409F1C4
:10174C000109DCE762682378BA62FA6A9900796168
:10175C0004EB8301002A40F001810E464FF0000893
:10176C004D4601EB0A094E454CD101EB0A0610E03F
:10177C001BF0020FD1D023789A007A61626804EBD7
:10178C008301BA62FA6A002A77D14D46904601EB82
:10179C000A061BF0050F0CBF02230123FB62FB6939
:1017AC0006EB430A0BF002037B625645BCD016F8DD
:1017BC00021B16F8013C54F82390AF4B994502D309
:1017CC00AE4B994536D3BB69002B40D0B86A04F0B8
:1017DC0084FF00283BD0E9468AB06A46A84B536187
:1017EC00BB6AC2E906314FF400731384A54B42F86F
:1017FC00103F00234FF41251A34800F023FC023D8C
:10180C00CD46D2E716F8013BF96254F82300FFF7F6
:10181C0087FAD7F88430F96A01304BB1D7F88830A1
:10182C0098453EBFD7F8843023F8180008F101081A
:10183C00054498E7BB6923B1B86A04F04EFF002851
:10184C00C9D11BF0010F05D1FB6AED1AADE77B6A1C
:10185C00002BAAD04846FFF763FAD7F8843053B16F
:10186C00D7F8883098453FBFD7F88420431C22F81E
:10187C00183008F10108054497E7BAF1000F73D04E
:10188C001BF0040673D0D046002607F148005246E0
:10189C003B61396206F0D5FB396A3B6901EB0A0200
:1018AC003A62FA695200FA60D7E9071202EB410278
:1018BC003A610BF00202BA603A69396A8A4258D12D
:1018CC0062781BF0020F18BF0021BA6208BF4FEA02
:1018DC005801B2181BF0010FD2B240F0A1801BF0DE
:1018EC00040F14BF40460020BB616270A070E17011
:1018FC0020467A6A7969FB6A9847051EFFF614AF91
:10190C00BB6941462370BB6A7A6A6370FB6984F8D1
:10191C0002A0E37007F14800FB6A9847B0F1000899
:10192C00C0F2B7807B69A9EB0A01C91AFB687A6A15
:10193C00C91A386AFB6A98470028C0F2AC804FF08D
:10194C00000BA84408EB000507F1380AB34569D32E
:10195C0000217A6A0846FB6A9847E5E656464FF03E
:10196C00000807F1380092E75646D04696E7B04695
:10197C0094E73A6A12F8021B12F8015C3A6254F8C6
:10198C0025003D4A904202D33C4A904220D3BA698A
:10199C0032B1B86A7B6004F0A0FE7B6800288BD162
:1019AC00BA6812BB08F1280208F1010007F1300CEB
:1019BC00C0B294440CF8101C00F1280207F130015D
:1019CC0008F1020850185FFA88F800F8105C73E709
:1019DC00BA693AB1B86A7B6004F07FFE7B68002874
:1019EC007FF46AAF1BF0010F09D006F1280207F152
:1019FC003000711C161806F8205CCEB25CE71BF0A8
:101A0C00040F3FF459AF08F1280207F1300008F138
:101A1C00010102EB000808F8105C5FFA81F84BE753
:101A2C00002061E71BF80A3054F8239087F8373010
:101A3C00D7F8843053B333F81B8001217A6AFB6AE0
:101A4C0007F137009847002825DB0544B8F1000F53
:101A5C0006D14846FFF764F900F101081FFA88F82F
:101A6C00414648467A6AFB6A9847002813DB0544CE
:101A7C000BF1010B6AE700BFA0800008B0940008CE
:101A8C00C28A000804000001C0830008D7F88480D3
:101A9C00D3E7454648E6054646E600BF014B1860CD
:101AAC00704700BF0000002080B505460E46174663
:101ABC00984602F03DFE034606F0E2FA0446DFF8D3
:101ACC001890424649F8003039463046A84754F839
:101ADC00090001F027F800BF08000000034A0020AD
:101AEC00536823F002035360704700BF002004E0EA
:101AFC00044A0020136843F010031360024B034A9E
:101B0C001A607047002002404400002000127A0046
:101B1C002DE9F047044607464FF00109DFF85080E5
:101B2C0014B93846BDE8F08794FAA4F5B5FA85F5F2
:101B3C0009FA05F32E0108EB05156FEA030A24EAEE
:101B4C0003042B7B002BEBD058F806301B694BB9E8
:101B5C004644736804222846196807EA0A0705F008
:101B6C0082F8DDE7284698470028D9D1F0E700BF76
:101B7C001084000830B5002289B00F490F4806F0D8
:101B8C000BF9002200230024CDE906230E230C4D73
:101B9C00CDE903344FF440722846CDE90144094B9A
:101BAC000949009402F0D6FA0849284605F0E7FFE7
:101BBC00204609B030BD00BFDD1B000848060020E0
:101BCC00D0010020F51E0008E8110020768B0008DB
:101BDC00014802F021BA00BFDC0000202DE9F047DB
:101BEC00804620480F4605F016F80646002832D0ED
:101BFC0000252846BDE8F087237B83B12368DB688A
:101C0C000BB120469847636883F8069023681B69DC
:101C1C00CBB9636804222046196805F024F8013614
:101C2C0010345445E8D3B8F1000FE2D0002DDFD0CA
:101C3C002846FFF76DFF0546002FF7D000216420E2
:101C4C0002F058FDF2E7204698470028E1D009FA47
:101C5C0006F31D43E3E705464FF00109024CDFF89C
:101C6C000CA0DEE740080020108400082084000847
:101C7C00014B53F820007047C486000808B5034692
:101C8C0008462BB1044A136000F076FC002008BD16
:101C9C006FF01500FBE700BF0400002010B5044CEA
:101CAC00237813B9034802F0B7F90123237010BD50
:101CBC00DC090020DC00002010B504460B4804F0C1
:101CCC00AAFF5CB1BFF35B8F094B53E8001F0139CE
:101CDC0043E80012002AF8D1BFF35B8F054806F0E9
:101CEC0067F8BDE81040044802F096B938080020A7
:101CFC003C08002048060020DC0000200020BFF338
:101D0C005B8F0146044B53E8000F43E80012002A96
:101D1C00F9D1BFF35B8F70473808002070B5FFF71F
:101D2C00EDFF0546074C084EB44200D370BD636806
:101D3C005B792BB123685B6813B129462046984721
:101D4C001034F1E7108400082084000810B5044C0E
:101D5C000449204604F0F1FD034B1C6010BD00BF8C
:101D6C0078000020B08600083008002000230D4ABF
:101D7C0010B513700C4A4FF47A7113600B4A0C486F
:101D8C001360FFF77BFFFFF7E1FF0A4B0A49184688
:101D9C008B4200D310BD1A1A5C68121101322271E9
:101DAC001033F5E7DD090020380800203C0800203E
:101DBC003D6C0008108400082084000801460022B5
:101DCC000023014804F0DABD78000020014804F03B
:101DDC0073BE00BF78000020024B0146186804F067
:101DEC00BFBE00BF30080020014804F0F4BE00BFA5
:101DFC007800002070B5254B1878002844D0FFF7E8
:101E0C00E5FF054690B1BFF35B8F214B53E8001FF4
:101E1C00013943E80012002AF8D1BFF35B8F1D4C47
:101E2C001D4EB44226D32846FFF7D6FF1B4B1C4C45
:101E3C001B68002B12DD05F0ADFF0A220023FEF714
:101E4C0005FED4E90032C01A40F2E93361EB02011D
:101E5C00984271F1000101D3FFF760FFD4E9003221
:101E6C0013F57A7342F10002C4E90032BDE8704008
:101E7C00FFF7BABF63685B7923B123682946204614
:101E8C001B6898471034CCE770BD00BFDC090020FC
:101E9C003C0800201084000820840008380800202A
:101EAC004006002070B50D4D297861B90120FFF76F
:101EBC0095FE0B4C0B4EB44206D3FFF79BFF00284C
:101ECC00FBD101232B7070BD63685B791BB1236858
:101EDC0020469B6898471034EDE700BFDD090020D1
:101EEC00108400082084000800212DE9F0470846E2
:101EFC00FFF774FE044658B34FF4FA784FF000091C
:101F0C0006F0BEF81B4B1C4A1B58136033B11B4B1D
:101F1C001B68092B02DD1A4802F07EF80025194FC8
:101F2C00DFF85CA044B12046FFF7F2FD044618B977
:101F3C004FF0FF384FF0FF39FFF75CFF064628B92A
:101F4C00B5B942464B46504602F08AF83546E9E7A9
:101F5C004FF0FF384FF0FF39D2E72B689B691BB16C
:101F6C0000222846114698471035BD42F5D3E8E7C4
:101F7C00054DFAE708000000340800203C0800205A
:101F8C00DC000020208400081084000813B51848D9
:101F9C0004F041FE174B1B7873B1EFF3118410233F
:101FAC0083F31288BFF36F8FFFF724FF84F311883C
:101FBC00BFF36F8F02B010BD0F4B1B68002BF9D015
:101FCC0050B9002200230D48CDE9002342F21072D3
:101FDC00002302F005FEEDE70928EBD1074805F0D8
:101FEC00E7FE074802B0BDE8104002F015B800BF8C
:101FFC003C080020DD0900203408002048060020A1
:10200C00DC00002010B5064B04461B68984721469F
:10201C00A060044804F031FDBDE81040FFF7B6BFE6
:10202C000400002078000020044A054B9B1AB1EBF9
:10203C00D30F34BF52F8310000207047C083000822
:10204C00108400082DE9F04F8FB0C1F34A2804AF7B
:10205C000D469146B8607B600C0DB8F1000F63D053
:10206C0000264FF0040B4FF00A0A07F11403C7F8CF
:10207C000C80C7E907667E620193CDF808B0CDF8F5
:10208C0000A007F11C0332464846F968FFF722FB13
:10209C00B0F5006F03461CD36C468AB0D9F8041017
:1020AC0004AB26481A46C3E9050140F2FF71D96119
:1020BC004FF400711984224B42F8103F4FF4125127
:1020CC0033462048FFF7BEFFA5462C37BD46BDE87A
:1020DC00F08FC0F30A0804F11700184420F0070031
:1020EC0080083B60FFF76AFE68F35325044690B105
:1020FC003B6800F11001C7E9083607F11403F961D8
:10210C00CDE900A3CDF808B048460F4AF96807F1AD
:10211C001C03FFF7DFFA68F353252A4620467B6839
:10212C00B96804F0BFFDD0E704F1170020F00700F8
:10213C008008FFF743FE0446EDE700BF8B8B0008D9
:10214C0004000001E0830008856C00082DE9F04FC5
:10215C0087B00446DDE9105ADDE9127993469846BA
:10216C000391BFB13B46524610210020CDF80090A0
:10217C00CDF81490FFF7DCF8B0F5006F06460AD3E3
:10218C0040F2FF730221174A174807B0BDE8F04F21
:10219C0004F0E1BD3E4605F11700304420F0070085
:1021AC008008FFF70BFE04F007040BF0070BE400AC
:1021BC0044EA8B1444EA462444EA0554054640B1EB
:1021CC003FB13B4652463146CDF800901030FFF7F8
:1021DC00AFF8434622462846039907B0BDE8F04FB6
:1021EC0004F060BDCA8B0008E0830008406820B191
:1021FC00034BC01A40F3CF0070474FF0FF307047CD
:10220C00C08300080EB403B503AB53F8042B01468E
:10221C000448019300F0A0FD02B05DF804EB03B09C
:10222C00704700BFAB6D0008CA0605D48B064CBFC7
:10223C0002490349FFF7E6BF704700BF588A000800
:10224C00578A00082DE9F04F89B09A46149B9DF8E7
:10225C004CB00693159B04460593169B0D46904671
:10226C00179E0493BBF1000F00F09D8006F4807361
:10227C00079304F0F6FC06F00209024600283ED053
:10228C0020469249FFF7BEFF0746B9F1000F08D070
:10229C0016F0440F35D12A4620468D49FFF7B2FF80
:1022AC00074406F0010353B18A4B204653F82B2008
:1022BC00894B8A49002A08BF1A46FFF7A3FF06F488
:1022CC008073002B49D006F00803002B63D1B8F1C2
:1022DC00000F66D0424620468149FFF793FF054622
:1022EC00069B3D44002B6DD1049B002B73D1F3074F
:1022FC0000F1E58031462046FFF796FFD9E007460E
:10230C00C3E7784B18680028CAD0774B4FF47A791A
:10231C001B684FF46161B5FBF3F5B5FBF0F300FB03
:10232C00135509FB05F5B3FBF1F2B5FBF0FE4FF0CD
:10233C003C0C01FB123100FB1E55B1FBFCF309FBFD
:10234C0005F5B5FBF0F50CFB131120460091CDE91A
:10235C0001E56649FFF756FFA2E706F00803EBB16B
:10236C00634B204653F82B206249FFF74BFF054681
:10237C00B8F1000F05D0424620465949FFF742FFFD
:10238C000544BAF1000FABD0524620465A49FFF72C
:10239C0039FF0544A4E74FF0000AE1E706F0080511
:1023AC00E6E745469CE7BAF1010F069B06D1002BE8
:1023BC0065D1049B002B7CD000250CE0002BF8D0C1
:1023CC004E485DE04E48069B22464E4904F054F9B7
:1023DC00049B002B69D0DFF83081DFF83091049F2B
:1023EC003146102F204628BF10274FF0000AFFF768
:1023FC001BFF554546DC059B494620461A78FFF7DE
:10240C0001FF4FF0010A1AF0070F03D14146204695
:10241C00FFF7F8FE57453CD9059B4946204613F873
:10242C000A20FFF7EFFE0AF1010ABAF1100FEAD108
:10243C004FF0000A20463649FFF7E4FE5246059B52
:10244C0020469A5C334B995C11F0970F08BF2E22F3
:10245C003149FFF7D7FE0AF1010ABAF1100F1DD06E
:10246C001AF0070F03D141462046FFF7CBFE574524
:10247C005246E4D841462046FFF7C4FEEBE720481D
:10248C005D46A0E741462046FFF7BCFE0AF1010A73
:10249C00AFE720462149FFF7B5FEC4E7059B3B4457
:1024AC000593049BDB1B049399D1BBF1000F7FF4C4
:1024BC001EAF204609B0BDE8F04F04F064BC2046C6
:1024CC00054A0649FFF79EFE14E700BF078C00087B
:1024DC000B8C0008D4860008028C0008308C000895
:1024EC00338C00084808002044080020148C000895
:1024FC00E8860008378C00083D8C0008E16D000868
:10250C00AB6D0008652D00084A8C0008428C000851
:10251C004C8C0008A59300084E8C0008488C0008D1
:10252C0042F20F7373B58B4228BF0B460568044605
:10253C00052168460D4A02F093FB0646636828465F
:10254C000B225B680A4904F010FC6368324669464A
:10255C0028465B6804F009FC63681B2228465B680C
:10256C00044904F002FC02B070BD00BF5E8D00088F
:10257C006D8C0008518C000800210123064A904202
:10258C0006D8064A01B901231360054B1860704741
:10259C00012140085B00F2E740420F004408002094
:1025AC0048080020F8B50D460446064F4618B442BC
:1025BC0001D12846F8BD14F8011BBB6801485B68C3
:1025CC009847F4E7C88100082DE9F04706460C4609
:1025DC0000AF002935D006C9E9468AB06D46A3681C
:1025EC004FF0050AA8461F48C5E90723C5E90501B0
:1025FC0048F810AF002342464FF421511A48FFF718
:10260C0021FDD4E90312CD466369AD461748C5E9EF
:10261C000723C5E90501C5F810A0002342464FF475
:10262C0021511148FFF70EFDCD46E3690121104AF7
:10263C000D4804F090FBA36901210E4A0A4804F0EE
:10264C008AFB012E07D1EFF305830B4A314606486E
:10265C00103B04F080FB2146304601F095FABD4654
:10266C00BDE8F087B38C0008F8830008E28C000802
:10267C00118D0008208D00084E8D000808B5034B05
:10268C001B689847BDE8084000F026B810000020F1
:10269C0030BFFFF7FDBF00BF2DE9F04105460B4EE3
:1026AC00DFF82C80324606EB0807CC1B2046094984
:1026BC0005F0C7FCA01942460021083C05F0CFFCF0
:1026CC006C6607F10800BDE8F08100BF0000000057
:1026DC000400000020840008054B5A699B689A424C
:1026EC001FBF044A536843F080535360704700BFC8
:1026FC00AC09002000ED00E070B5224C06460D46FA
:10270C002148224904F0D5FBA36AD90638D51E48C6
:10271C001F4904F0CEFB1120A36A1A0704D51A48EE
:10272C001C4904F0C6FB1220164CA36A9B0712D559
:10273C001949154804F0BDFB636BA26A110609D553
:10274C000121164A104804F006FB1EB1A36A23F0BF
:10275C008003A36213200B4CA36ADA0704D50A4842
:10276C000F4904F0A6FB1420A36A064ADB0658BFE7
:10277C00A36A936A43F0FF03936200232B7070BD2E
:10278C001020C9E700ED00E0F8830008618D000817
:10279C00778D0008AA8D0008BD8D0008D58D000826
:1027AC00EB8D000810B5204C2049214804F081FB2A
:1027BC00A36A990136D51E481E4904F07AFB1E20E7
:1027CC00A36ADA0104D51A481B4904F072FB1F20D6
:1027DC00154CA36A1B0304D51548184904F069FB72
:1027EC002120A36A590304D51148154904F061FB53
:1027FC0022200D4CA36A9A0304D50D48114904F00C
:10280C0058FB2320A36ADB0304D509480E4904F0C6
:10281C0050FB2420044A936A6FEA03436FEA134384
:10282C00936210BD1D20CBE700ED00E00A8E00087E
:10283C00F8830008228E0008358E00084F8E0008A1
:10284C006D8E0008928E0008AC8E000870B5244C7A
:10285C0006460D462348244904F02BFBA36AD904F1
:10286C003CD52048214904F024FB1720A36A1A0503
:10287C0004D51C481E4904F01CFB1820184CA36AF4
:10288C009B0512D51B49174804F013FBA36BA26AD6
:10289C00110409D50121184A124804F05CFA1EB142
:1028AC00A36A23F40043A36219200D4CA36A5A05B2
:1028BC0004D50C48114904F0FCFA1A20A36ADB0574
:1028CC0004D508480E4904F0F4FA1B20044A936A14
:1028DC0043F47F43936200232B7070BD1620C5E731
:1028EC0000ED00E0F8830008D78E0008ED8E00089C
:1028FC00AA8D0008FE8E0008178F00082C8F000888
:10290C00478F00082DE9F0418AB0654B0446D3F897
:10291C000480002600AFC8F3080586F31188BFF3C6
:10292C006F8F02F07F43B3F17F4F07D102F00C039E
:10293C00082B12D15B495C4804F0BBFA00263446E4
:10294C000023FB71EB1E092B00F28980DFE803F0FA
:10295C000A7F827C87878787878510074CBF0C4648
:10296C000126EDE75149504804F0A3FA00234C4DE1
:10297C00FB71EB6A9A0705D54D494B4804F099FA5F
:10298C00002332E0EB6A002B01DA4A49F5E7EB6AE7
:10299C005B00F5D54849444804F08BFA6B69A26991
:1029AC0043F480736B61BFF34F8FBFF36F8F6B6911
:1029BC0032F8022C23F480736B61BFF34F8FBFF39B
:1029CC006F8F4DF602739A4208D0AB6ADBB273B3C9
:1029DC000120F91DFFF790FE034606E02368012154
:1029EC00364A314804F0B7F92368FA79DAB907F1B5
:1029FC00080504F1200C2A4620686168083403C2DB
:102A0C0064451546F7D17A6A002E44D0C2F308010A
:102A1C0021B96FEA52226FEA42227A62184607F114
:102A2C000801FFF7D1FD2837BD46BDE8F081AB6A40
:102A3C0013F47F4F04D00120F91DFFF707FFCBE7FC
:102A4C00AB6AB3F5803F9BD3FFF7ACFEC4E7002025
:102A5C00F91DBFE70020F91DEFE719498DE7194A69
:102A6C0018F4F87FE8468AB0174B18BF13466A462D
:102A7C001649103DC2E905134FF400731384144B2F
:102A8C00D56142F8103F00234FF411510648FFF76F
:102A9C00D9FAC54674E722F4FF7222F00102BCE7B2
:102AAC0000ED00E08D8F0008F8830008B88F000857
:102ABC00CF8F0008F08F0008FE8F00081D900008D3
:102ACC0039900008748F00085F8F00085D90000833
:102ADC0004000001024A536943F01003536170472C
:102AEC0000ED00E0EFF30880EFF3098101B57246C9
:102AFC00FFF708FF01BD00BF102080F311880848C4
:102B0C004FF40061401880F30988EFF31480022120
:102B1C00084380F31488BFF36F8F00F091F8000026
:102B2C00E8140020084B9B6883420BD1EFF305831C
:102B3C0043B1064B5A6842F080525A605A6A22F4EA
:102B4C0000425A6205F0EBB8AC09002000ED00E041
:102B5C006FF00A01084A9368D966084998664B6871
:102B6C0043F080534B60002383F31188BFF36F8FC6
:102B7C009368D86E704700BFAC09002000ED00E0F0
:102B8C0012498A684FF030001044EFF3098C80E84A
:102B9C00F01F102080F31288BFF36F8F0C4F4FF093
:102BAC0000664A698A603E604FF06404141920681C
:102BBC00084C2060906E0023936680F3118802F11C
:102BCC00300090E8F01F8CF309887047AC090020A6
:102BDC0004ED00E0700800201EF0040F0CBFEFF3B2
:102BEC000880EFF30980816911F8021C0229FFD0DB
:102BFC0001B504F05AF901BD40B2002807DB0123EE
:102C0C004109034A00F01F00834042F8213070470D
:102C1C0000E100E040B2002801F10101ACBF00F17D
:102C2C006040064B4FEA0111C9B2ABBF00F56140E1
:102C3C0000F00F0080F800131954704714ED00E0F9
:102C4C0008B5094B094A23F0604323F07F039360D6
:102C5C00BFF34F8FBFF36F8F01F082F801F0F4FDDB
:102C6C0000F048F801F0BCF80000000800ED00E0AE
:102C7C0042F8203C009B0B4942F81C3C019B21F084
:102C8C00010142F8183C029B42F8081C42F8143C23
:102C9C004FF0807342F8043C0023203A02658366AF
:102CAC00704700BFB51A000800B50D4B154698606B
:102CBC00426E0C4B0E461A602C4686F309884FF078
:102CCC000000054B984720464FF000014FF00002E2
:102CDC004FF00003014C2047CF6E0008B51A0008D6
:102CEC00AC090020700800201022014B1A617047BB
:102CFC0000ED00E0002310210348C21801332B2BF8
:102D0C0082F80013F9D1704700E100E008B5EFF349
:102D1C000583064A103B02EBC30152F833004968A5
:102D2C008847BDE80840FFF7D7BC00BF0482000805
:102D3C0008B5024B1B689847002008BD740800209A
:102D4C00034B044A1860937843F002039370704766
:102D5C007408002014000020F0B587B007460E461A
:102D6C0014460021102268461D4605F078F902230E
:102D7C008DF80230054B2A4621466846CDE904768B
:102D8C00019302F033F807B0F0BD00BFF76E0008F6
:102D9C0008B50649064821F00701C1F1005202F5B9
:102DAC00A04203F02CFC002008BD00BFEF21002046
:102DBC00780800202DE9F041054600244FF0010869
:102DCC000D4E0E4F2B78E2B298181F280DDC72694D
:102DDC0008FA00F333EA020207D1736157F8303076
:102DEC001BB107EBC002516898476A780134E3B213
:102DFC009A42E7D2BDE8F08100040140840800202B
:102E0C00044B184400230133994200F8012BFADCDF
:102E1C00704700BF5000002010B4064B02461856F5
:102E2C000123054993400C6823430B6010BCFFF74A
:102E3C00E3BE00BF50000020000401401F2806DC48
:102E4C000122034982400B6823EA02030B6070479E
:102E5C000004014003292AD8DFE801F0020E141FF8
:102E6C000122134B8240996821EA02019960D968CA
:102E7C0021EA0202DA60704701220D4B8240996808
:102E8C001143F3E701220A4B8240D9681143D96000
:102E9C00996821EA02029A607047012303FA00F054
:102EAC00034B9A6802439A60DA681043D860704703
:102EBC000004014030B50A4B53F830408C4204D129
:102ECC0003EBC0056D68954205D034B943F830105A
:102EDC0003EBC0035A60002030BD6FF00F00FBE71E
:102EEC00840800200022034B43F8302003EBC0037E
:102EFC005A60704784080020104B18680B68052B2B
:102F0C000BD883B1023B032B04D8DFE803F002118A
:102F1C0002140020106000207047182BFAD01C2BD4
:102F2C0004D0142BF6D06FF0850070474008F1E701
:102F3C0049F64040EEE70248ECE700BF44000020B1
:102F4C0000127A00F8B53C4F04F099F8384604F0BA
:102F5C0095F800F0BDFD394C394A63681578C3F318
:102F6C000313D35C47FA05F520FA03F6AE4202D2FE
:102F7C00284600F0D3FD236843F4802323602368A4
:102F8C0043F48033236023689B03FCD5636A43F0CE
:102F9C0001036362636A9807FCD5636803F00C0352
:102FAC00082B15D12368990706D4236843F0010335
:102FBC00236023689A07FCD5636823F003036360DE
:102FCC00636813F00C0FFBD1636823F0F0036360AC
:102FDC00236823F08073236000F036F8236843F0F5
:102FEC008073236023689B01FCD5636823F0F00396
:102FFC006360636823F0030343F002036360636858
:10300C0003F00C03082BFAD1AE4202D3284600F091
:10301C0085FD0C4B00201F60636823F4E06343F4D0
:10302C0080636360636823F460536360636823F4B4
:10303C0040436360F8BD00BF00A24A040010024088
:10304C008292000844000020054A536823F47C1344
:10305C0043F4E8135360536823F4800353607047C0
:10306C000010024008B5074804F034FD38B106489A
:10307C00FFF766FE0448FEF711FD002008BD6FF057
:10308C001200FBE7C8810008993000080A2838B5FF
:10309C000446074D04D1AB680D2128465B68984760
:1030AC00AB6803485B68E1B29847204638BD00BF67
:1030BC00C881000838B5036904465860084D284695
:1030CC0004F008FD40B16168AB6828461B680C3100
:1030DC00984700EAE07038BD6FF01200FBE700BFC4
:1030EC002881000870B50C461146B1F5001F1E462C
:1030FC004568026923D10F2304F0030204329200C5
:10310C00934043EA94032E49DAB2023251F822205A
:10311C00190C02EA134391FAA1F2B2FA82F2D340EB
:10312C00AA689A4209D12046FFF788FE2046FFF78D
:10313C00D9FE00212046FFF78DFE002070BDB1F5B1
:10314C00800F34D020461F49FFF7B4FE90BBB6F178
:10315C00806F28D0B6F1C06F27D0B6F1007F2CD18C
:10316C0002210F2204F0030304339B009A4042EA2D
:10317C009402D3B29B0003F1804303F580339E6825
:10318C00A86826EA1246150C95FAA5F2B2FA82F254
:10319C0000FA02F2324320469A60FFF75BFE2046AB
:1031AC00FFF73AFEC9E70121DBE70321D9E76FF00E
:1031BC008500C3E76FF00F00C0E76FF01500BDE7A7
:1031CC0000000140A371000810B502694368126A3F
:1031DC00DB68C2F34202012A04D0022A21D06FF02C
:1031EC00150010BD1F4A5868B1FBF2F220F03F00E9
:1031FC0010435860186A013220F03F0002431A62F3
:10320C00194AB1FBF2F140F6FC72114208BF0421DD
:10321C00DA69002022F44F4222F0FF020A43DA61FD
:10322C00DFE7104A4FF49674B1FBF2F2586820F0C5
:10323C003F00104362434FF47A74B2FBF4F25860CF
:10324C00186A013220F03F0002431A62074A914289
:10325C0085BF0132B1FBF2F148F2010141F40041AA
:10326C00D6E700BF40420F00400D03007F4F120015
:10327C0008B50121034A044803F064FD6FF0040013
:10328C0008BD00BF03910008D083000898B54268C0
:10329C000369D26800AF83F84E1029B9136823F084
:1032AC001A031360BD4698BD6C468AB06A46036823
:1032BC000848D161C2E905034FF400731384064B2F
:1032CC0042F8103F00234FF411510448FEF7BAFEA8
:1032DC00A546E7E72191000804000001D08300080F
:1032EC00F7B500224368044606691C480F46DD68A2
:1032FC00596883680192DB684BB90121184A194857
:10330C0003F020FD6FF00404204603B0F0BD01AAC9
:10331C0098470028F1DB376206F110074FF0FF32B7
:10332C004FF0FF33384600F09BFE2B68204623F00D
:10333C0001032B6096F84E10FFF7A8FF2046019969
:10334C00FFF742FF96F84D3004461BB12B6843F053
:10335C0001032B60384600F05FFED5E7288100089A
:10336C0035910008D08300082DE9F74304464668E0
:10337C0005694FF000094FF0FF320021284604F098
:10338C00ECFB20463368984785F84C9085F84E90B6
:10339C00012205F11000114604F0DFFB394F3846CD
:1033AC0004F098FB50B90121374A384803F0CAFCA5
:1033BC006FF01204204603B0BDE8F083D4F804800B
:1033CC004946D8F8140001AA04F067FA031E07DB7B
:1033DC00019B4A461979186800F06AF8031E2BDA2B
:1033EC0001212B4A294803F0B6FCF3681A6842F411
:1033FC0000421A601A6822F400421A603369254AA6
:10340C00934232D026D8244A934230D0234A934256
:10341C002FD00121224A1D4803F094FC00212046A4
:10342C0041F01001FFF75CFF041E26DA01211D4A52
:10343C00164803F087FCBDE7BB6838461B68D8F814
:10344C00041098470028D0D00121174A0F4803F0E8
:10345C0079FCCAE7154A93420DD002F5C31202F566
:10346C0020629342D5D10A21D9E70621D7E7022160
:10347C00D5E70421D3E70821D1E70123002485F8FF
:10348C004C3097E72881000863910008D08300082E
:10349C008291000840420F00A0860100801A0600AD
:1034AC00BC910008D7910008A091000840E13300BE
:1034BC002DE9F34703680446C3F38F25C3F389232F
:1034CC00FBB101228A4223D3324A15F0010F9069D5
:1034DC0040F00100906192694FEA132002F0010262
:1034EC000192019A2C4AC3F3440300FA03F009BF7A
:1034FC005368D369034343F0E06316BF034353603F
:10350C00D361264F04EBC106A64209D1002019E075
:10351C0054F83200C0F38920984238D10132D1E7F7
:10352C00D4E9002512F003090FD145F04105C2F38F
:10353C00870AC2F3831257F82280B8F1000F15D115
:10354C006FF0120002B0BDE8F087B9F1020FEED0B7
:10355C00B9F1010F07D115F4C07F0CBF45F002057E
:10356C0045F00405E3E745F00105E0E7404604F0CB
:10357C00B1FA0028E4D04B462A4640460AF00F0127
:10358C0003F0AEFE002804F10804BDDADAE76FF0B0
:10359C001500D7E700100240000001402C880008FD
:1035AC000121024A024803F0CDBB00BF359100084F
:1035BC0008840008F8B50C46036941685E682379F5
:1035CC00012B33D09A1E55425541AD026279022A25
:1035DC0096BF354F4FF4005C37F812C0A279042A1D
:1035EC0027D0003B18BF01231B03E279012A0A688C
:1035FC000CBF4FF440770027A642D1681CD121F4B0
:10360C00B05129430B43D360136923F4405343EA6D
:10361C000C03136143681A68536923F440733B43EA
:10362C0053613168BDE8F84004F02DBA4FF4C06521
:10363C00CCE74FF48053D8E701F4C0618D421FBF33
:10364C00D16821F4C0612943D160426811680A69CC
:10365C0002F4405294451FBF0A6922F4405242EAD8
:10366C000C020A6142681168CA6802F480529342E3
:10367C001FBFCA6822F480521343CB6043681A6898
:10368C00536903F440739F421FBF536923F4407383
:10369C003B43536121683368994203D004F0F3F93A
:1036AC0023683360F8BD00BF288A0008F7B50546CB
:1036BC00466804692E48206004F00CFA48B92D4A7B
:1036CC0001212D4803F03EFB6FF01204204603B09D
:1036DC00F0BD2068F16883681B6898470446E0B920
:1036EC000021306A01AA04F0D8F8041EEEDB019B1D
:1036FC00002219791868FFF7DBFE041EE6DB6E6802
:10370C002B6934685F68E36823F40053E3607068E6
:10371C0004F0E0F948B9194AD2E70121184A1648D1
:10372C0003F010FB002CD1DBDAE7D6E9010183684A
:10373C00DB6803B1984704F10C0353E8003F43F0F6
:10374C000C0304F10C0141E80032002AF3D1394694
:10375C002846FFF72FFF337D1BB1636943F0080345
:10376C006361E36843F40053E3600024AEE700BFF9
:10377C002881000863910008088400083C92000826
:10378C001C9200082DE9F0410C464368A6791D688F
:10379C000369D3F804800B794979012B33D10229C1
:1037AC004CD9042E47D04FF480574FF4C0620323FA
:1037BC008B4240D1002F79D0002A14BF032204225F
:1037CC00B24238D1E37963B1012B34D13A4B9D42EB
:1037DC0007D0A3F574439D4203D003F580639D424B
:1037EC0029D1EB68214623F40053EB60FFF7E2FE8E
:1037FC00EB6843F40053EB6094E8030088E80300A3
:10380C000020BDE8F081022B08D1022921D9042E19
:10381C0011D04FF480624FF48057C8E702290A4652
:10382C001FD9042E04D133B94FF480571A46BEE782
:10383C0063BB0329C4D06FF08500E2E71F4A042E56
:10384C0032F811C0F7D04FF4C062033B012B10D8F3
:10385C00F1E71A4A042E32F811C0ECD04FF4806212
:10386C00F3E7164A042E32F811C016D1002BE2D120
:10387C001A464FF48057BCF5805F13D0BCF5405FFF
:10388C0012D0BCF1000F92D1012391E7033B012B25
:10389C00D1D90022BFE70022D7E7002BFBD11A4673
:1038AC001F46E8E7002383E7022381E7002A14BFC1
:1038BC000222032284E700BF00380140288A000856
:1038CC004FF0E02310B50F499C691A6908689B6991
:1038DC000D4902F4803234B993B903464AB90A68E7
:1038EC001044C01A10BD002B08BF03460AB9A342EE
:1038FC00F5D90A6802440A604FF0E0221269EEE73B
:10390C000446F3E7A8090020A409002010220A4B62
:10391C00002083F823204FF4E152084B1A60084B27
:10392C0041F61F4218604FF0E0235A6198611A6902
:10393C0042F007021A61704700ED00E0A809002070
:10394C00A409002010B5FFF7BBFF1049104B086805
:10395C00D3E90042001942F10002C3E9000200233E
:10396C000B604FF4E1530B4AD2E90041001BB0FB52
:10397C00F3F043431B1941F10001C2E9003101F09E
:10398C003FF8BDE81040FEF7A7BE00BFA409002019
:10399C0088060020800600202DE9F041DFF8E08049
:1039AC0099B1421C0BD14FF0E022136923F00103B3
:1039BC0013614FF07F43C8F80030BDE8F081D8F8B0
:1039CC000060012807DC00270BE0431CD8F80060DE
:1039DC00F7D140F6191040F61A139842A8BF1846B2
:1039EC00471EEFF31185102383F31288BFF36F8FFB
:1039FC00FFF766FF4FF0E023224C9969D4E90023CE
:103A0C0080184FF0000243F10003C4E900031E4B81
:103A1C001A601E4B1A68831A2ED44FF4E15C0CFB0F
:103A2C00073303F5E0531F33B3FBFCF7131A0CFBFE
:103A3C000733B3F5806F38BF4FF48063144A934259
:103A4C0028BF13464FF0E022C8F80030013B9069C4
:103A5C005361002381429361A1EB000338BF9B1992
:103A6C00D4E900125B1842F10002C4E9003285F37C
:103A7C001188BFF36F8FA0E74FF48063E2E700BFBC
:103A8C00A809002088060020A40900208006002038
:103A9C0020DFFF0038B5EFF31185102383F3128874
:103AAC00BFF36F8F084B1C68084B1B68E41AFFF7B9
:103ABC0007FF85F31188BFF36F8F4FF4E153204458
:103ACC00B0FBF3F038BD00BF880600208006002054
:103ADC000D4A536803F00C01082912D10B48C3F3AB
:103AEC008341DB03405C09D55368094AC3F3404367
:103AFC005043084AD35CB0FBF3F07047064B584375
:103B0C0070470348704700BF0010024094920008B1
:103B1C0000127A009292000800093D00D8B10F4BB8
:103B2C00984216D80E4B984294BF002001200D4AA3
:103B3C00136823F0070303431360136803F00703B0
:103B4C0098421CBF136803F00703C01A18BF01206A
:103B5C0070470220EBE70120704700BF006CDC02CD
:103B6C0000366E010020024010B50446FEF79AF9AB
:103B7C0003480121034A03F0E5F8204603F0B5FFA2
:103B8C00F8830008A49200082DE9F84304460D467A
:103B9C0000AFEFF31188102383F31288BFF36F8FFC
:103BAC000428294A98BF294BE9468AB09668117CAB
:103BBC0098BF53F820306A4688BF254BC2E90731BD
:103BCC0040F2013323489384234BC2E9050442F8A5
:103BDC00103F00234FF431512048FEF733FACD4605
:103BEC0045B1EB69C3F3080323B101211C4A1B48FF
:103BFC0003F0A8F82EB1304603F0C4FF08B10378E7
:103C0C0003B91848E9468AB06A46174BD061C2E935
:103C1C00053640F201331384144B42F8103F002355
:103C2C004FF411510D48FEF70DFA2946CD462046AA
:103C3C00FFF79AFF88F31188BFF36F8F3046FEF7BA
:103C4C0071FFBD46BDE8F883AC0900202C89000843
:103C5C00B3920008C992000805000001F88300081F
:103C6C00F1920008C19200081293000804000001B0
:103C7C0038B5094B53F82040013053F82050A54279
:103C8C0000D838BD636823B1204603F036FF0834F2
:103C9C00F5E723689847FAE740890008012270B5D8
:103CAC002A4B032086B01A70FFF7E2FF00F0D2FF18
:103CBC0003F03FFF0420FFF7DBFF254C254D264684
:103CCC00AE4204F1300410D300F056FC204C224ECE
:103CDC00AC4226D300F064FCFDF700F91F4A137BBD
:103CEC0023F00103137306B070BD54F80C3C05931C
:103CFC0054F8103C049354F8143C039354F8183CB7
:103D0C00029354F81C3C019354F8203C009354E962
:103D1C000A2354E90C0100F0E5F954F8303C5E65D7
:103D2C00CDE7D4E90A23B3F1FF3F08BFB2F1FF3F5F
:103D3C0005D052EA0301206803D103F025FF30348B
:103D4C00C6E73146183000F0E1FDF8E7DF09002046
:103D5C0060830008C0830008C17C000800070020B5
:103D6C0008B50348034A0021121A03F0DEFE08BD11
:103D7C00F0000020E4090020702370B5134E0122DE
:103D8C0003FB0066002386B0CDE904230F220193C8
:103D9C00CDE9023214230E4D0E4903FB00550446A7
:103DAC0001EB00214FF4807230460B4B009500F074
:103DBC0099F9737B2C7423F004037373074B013450
:103DCC0003EBC423EE606B6006B070BD9006002060
:103DDC00AC090020E81C0020417B0008E8140020FE
:103DEC00BFB50020FFF744FF294B83F30888294C0B
:103DFC0000256369284E43F400736361F02384F853
:103E0C002230E57725766576A57684F82050636AAE
:103E1C00224F43F4E0236362FEF75CFEFEF764FF7F
:103E2C004FF0FF33A362E362FDF7A0FF40F20112F3
:103E3C001B4B1C4C9A81B3601D6603F04AFE01209B
:103E4C00FFF716FF0220FFF713FF00F0C9FB164B1C
:103E5C0074610593012315494FF48062CDE9035336
:103E6C0020463B46CDE90155009500F03BF906464E
:103E7C00627B204622F00402627303F0C1FE2846E6
:103E8C00FFF77AFF3A4631462046FEF70DFF00BF9A
:103E9C00E81C002000ED00E0AC090020A93C000863
:103EAC00700700200007002074930008E81D002014
:103EBC002DE9F341044617461E46EFF311881023F3
:103ECC0083F31288BFF36F8FC368334A7BB180686A
:103EDC009168884219D057EA060318D188F31188E3
:103EEC00BFF36F8F6FF00F0002B0BDE8F0819168E7
:103EFC0091F90E100133E36093682161A36088F39C
:103F0C001188BFF36F8F0020EEE72169F2E791F97A
:103F1C000E1090F90E306FF07E029942A8BF194630
:103F2C009142B8BF11468B422DDD03F00EFE0546C3
:103F3C0022464146CDE90076184800F047FA0028A1
:103F4C00E1D0EFF31186102383F31288BFF36F8F48
:103F5C00A068D0B1236821699C420AD04BB193F977
:103F6C000E309942A8BF19466FF07E039942B8BF34
:103F7C00194603F0EAFD40B13146084800F0B8FAA2
:103F8C006FF00A00B0E70025D2E7002DF4D186F3DC
:103F9C001188BFF36F8FF3E7AC090020E009002014
:103FAC0038B58368044663B3194A926893422BD19F
:103FBC00C368012B03D9013BC360002038BDEFF36C
:103FCC001185102383F31288BFF36F8F016980680A
:103FDC0003F0BBFD204603F087FEA06058B190F9BA
:103FEC000E2022610022C26603F00AFE294609480F
:103FFC0000F07EFAE1E7E06085F31188BFF36F8F84
:10400C00DBE76FF01500D9E74FF0FF30D6E700BFC4
:10401C00AC090020E009002038B50446EFF3118507
:10402C00102383F31288BFF36F8F03F05DFE48B14A
:10403C000022C26603F0E4FD2946BDE8384007487B
:10404C0000F056BAD4E902329A4218BF0133A36089
:10405C0085F31188BFF36F8F38BD00BFE0090020D6
:10406C0013B5EFF31181102484F31288BFF36F8F13
:10407C00846844B1013C846081F31188BFF36F8F75
:10408C00002002B010BD52EA030406D181F311885E
:10409C00BFF36F8F6FF00F00F3E7CDE900230246FB
:1040AC00014800F093F9ECE7E009002070B50446F4
:1040BC00EFF31185102383F31288BFF36F8F6FF02A
:1040CC000A06204603F010FE18B1C66603F098FDF0
:1040DC00F7E7A0602946BDE87040014800F008BA37
:1040EC00E00900202DE9FF41984600F15803C0E992
:1040FC0016330E9B002603730423D51D437325F042
:10410C0007050D9B0D440F4683732946C0E90666CF
:10411C008660C6730446FEF7BFFA0C9B0730029309
:10412C000B9B20F0070001930A9B2D1A00932A4643
:10413C00434639462046FEF79BFD054B66659B685A
:10414C0003B11B6E2846236604B0BDE8F08100BFA6
:10415C00AC090020F0B5002587B00595109DDDE970
:10416C00127604950F9D044603950E9D02950D9DA8
:10417C0001950C9D0095FFF7B5FFB6F1FF3F08BF09
:10418C00B7F1FF3F05D056EA070305D1204600F0F2
:10419C00C1F9204607B0F0BD3A463346024904F156
:1041AC00180000F0B3FBF4E7C17C000838B50D4DE6
:1041BC002B4653F8184F9C4200D004B9EC68AB68FE
:1041CC0038B95A7BD20604D1A26912B9DA897F2A8E
:1041DC0005D89C4202D0204600F0DEFA23466B61E3
:1041EC0038BD00BFAC09002008B590F90D20014680
:1041FC00002A437B04DA03F07F03437303F0C6FC0D
:10420C00044B9868431A58425841BDE80840FFF7E0
:10421C00CDBF00BFAC09002070B490F90D30427BCB
:10422C00002B29DBD30627D183692BBB134962F002
:10423C007F0242730A4652F8184F944218BF234625
:10424C00CC6923B9C0E900242060C8610CE090F966
:10425C000E5093F90E60B5420AD0AE4208DD5A6892
:10426C00C0E9003210605860002070BCFFF79EBFA0
:10427C009C42E7D01B68E4E770BC7047AC09002097
:10428C00002A2DE9F0410E460CBF10210821427B7B
:10429C00044611420FD141EA0203D20918D14373EB
:1042AC0008291BD00120FFF781FFBFF35F8F637BD1
:1042BC0023F060036373264B9B68A34241D1EFF359
:1042CC000583002B3DD13046BDE8F041FEF740BCE4
:1042DC0003F07F03437303F059FCE1E7A36813B1C8
:1042EC00204603F05BFC04F1180003F03AFDA56DC9
:1042FC0004F15807AF4211D04FF0000875B12846B1
:10430C0003F04CFC05F1180003F02BFD2846C5F812
:10431C006C80FFF781FFA56DAF42EFD10C4DAB6800
:10432C009C42BFD1EFF30583002BBBD00120FFF7DC
:10433C003DFF40F20112074B9A810022AB601A66D6
:10434C00B3E786F31188BFF36F8FBDE8F08100BF30
:10435C00AC0900207007002070B590F90D200146C3
:10436C00002A437B04DA03F07F03437303F00EFC53
:10437C00154A4B7B104663F07F034B7350F8183F84
:10438C00D469834208BF002323B9C1E9000421602A
:10439C00D1610CE091F90E5093F90E60B5420ED03C
:1043AC00AE420CDD5868C1E900300160596090687C
:1043BC00BDE87040431A58425841FFF7F7BE9C4283
:1043CC00E3D01B68E0E700BFAC090020F8B5124B46
:1043DC000C46DDE9067611469868104A1060EFF33A
:1043EC001182102282F31288BFF36F8F9D682846CA
:1043FC0003F0DEFBB6F1FF3F08BFB7F1FF3F06D07D
:10440C003A463346064905F1180000F07FFA20467B
:10441C00BDE8F840FEF79CBBAC090020CC0900209D
:10442C00C17C0008F8B50446EFF31186102383F322
:10443C001288BFF36F8F437B49B2DA0619D18569B5
:10444C00BDB903F07F03437303F0A0FB437B274A02
:10445C0063F07F0343731346817353F8180F98422C
:10446C0018BF0546D06945B9C4E900300460D46171
:10447C000EE09B0719D4A17336E095F90E70B94282
:10448C000FD08F420DDD6B68C4E900531C606C606B
:10449C000120FFF78BFE012086F31188BFF36F8F8D
:1044AC00F8BDA842E0D02D68DDE7A568204603F0F2
:1044BC006DFBA1732B689D4209D16B68C4E9005355
:1044CC001C606C6010E06A689342F6D01B68002B8D
:1044DC00F3D093F90E209142F5D08A42F3DD5A685D
:1044EC00C4E9003214605C600020D5E7AC09002000
:1044FC0049B9EFF3058030B9054B5A699B689A426C
:10450C0001D0FEF725BB81F31188BFF36F8F704785
:10451C00AC09002010B5EFF31184102282F312883D
:10452C00BFF36F8F427B510704D484F31188BFF320
:10453C006F8F10BD22F004024273FFF76DFE21460F
:10454C00BDE810400148FFF7D3BF00BFE0090020D1
:10455C00034648B9EFF3058232B9064A51699268AD
:10456C00914201D0FEF7F4BA83F31188BFF36F8F39
:10457C00704700BFAC090020EFF31181102383F3C7
:10458C001288BFF36F8F054B9A68D37B013BD373B3
:10459C0081F31188BFF36F8F704700BFAC09002007
:1045AC0038B5EFF31185102484F31288BFF36F8FA5
:1045BC000A4B00209A68D37B0133D373FFF7F6FDC7
:1045CC0085F31188BFF36F8FEFF3118084F312889A
:1045DC00BFF36F8FBDE83840FFF7BABFAC090020BE
:1045EC00024B03F11802C3E906227047AC09002004
:1045FC00F8B5EFF31185102383F31288BFF36F8F97
:10460C0019498868437B03F07F03437303F0BEFAB8
:10461C0008468B685A7B62F07F025A7350F8182F49
:10462C00CC69824208BF002222B9C3E9000423608E
:10463C00CB610CE093F90E6092F90E70BE420ED075
:10464C00B7420CDD5168C3E900210B6053600120B7
:10465C00FFF7ACFD2846BDE8F840FEF779BAA24258
:10466C00E3D01268E0E700BFAC09002050EA010378
:10467C002DE9F04105460E4603D1FFF7B9FF0020A6
:10468C002BE0831C71F1FF3329DB03F07FFB2C182B
:10469C00EFF31188102383F31288BFF36F8F124F3F
:1046AC00124BB8681860FFF79FFDB86810492A468E
:1046BC003346183000F02AF9BA684046537B43F071
:1046CC0010035373FEF744FA03F060FB201A63EBFC
:1046DC000303012873F10003D1DBBDE8F0816FF017
:1046EC000104241AD4E700BFAC090020CC09002037
:1046FC00C17C0008B1F1FF3F08BFB0F1FF3F08B526
:10470C0006D10A4B986803F08AFA4FF0FF3008BDC7
:10471C00FFF7ACFFC11709304FF00A024FF000034E
:10472C0041F10001FCF792F9F1E700BFAC09002060
:10473C00014B9868704700BFAC0900200122044B64
:10474C00C01A044BC0105843034B1A54704700BF97
:10475C00E0070020ABAAAAAAE0090020C3897F2B9E
:10476C0012D80A4B1B6863B1094B90F90E201B68D9
:10477C009A4209DB437BDB0606D1064BC31A18BFF2
:10478C00012303F0010070470023FAE7D40900204D
:10479C00D00900209006002070B50E4B0E4C1E7CEC
:1047AC00182303FB06440546204603F0DAFA0022E0
:1047BC000A4B28469A55FFF7D1FF48B1084B2046C3
:1047CC00BDE870401A680749013AD31700F09EB84B
:1047DC0070BD00BFAC090020E0070020E0090020FC
:1047EC00D40900204947000838B5EFF31185102390
:1047FC0083F31288BFF36F8F104B114A9C681068BB
:10480C00A04206D1FFF7C8FF85F31188BFF36F8F65
:10481C0038BD00211B7C11600A4AD35C002BF3D0FD
:10482C002046FFF79BFF0028EED0637BDB0602D10E
:10483C002046FFF791FD2046E4E700BFAC090020BD
:10484C00CC090020E0090020074808B5074A0849B0
:10485C00121A03F06CF9BDE808400648064A0749ED
:10486C00121A03F064B900BF00000020EC00002015
:10487C00B09400080000002000000020B094000854
:10488C00034B1B680BB9FFF705B90020704700BF3D
:10489C00D809002030B570B10B4B5B6898420AD038
:1048AC00036843B1D3E90421D0E90445121941EB63
:1048BC000501C3E90421D0E9003213605A600023DA
:1048CC00C0E9003330BD00BF4800002010B50E4BCE
:1048DC001C689C4204D1FFF7D3FF6FF0004010BD61
:1048EC00FFF7CEFF002CF8D0D4E904321B1A62EB90
:1048FC00E072B3F1004F72F10001EEDA002AACBFA6
:10490C0018460020EBE700BF48000020B3F1FF3F42
:10491C0008BFB2F1FF3FF8B504461D4616465ED0FF
:10492C008160EFF31187102383F31288BFF36F8F2D
:10493C00013275F1FF3324DA6FF001032D49D1E90F
:10494C0000209B1A4FF0FF3262EB00009E1B60EBC5
:10495C000500012E70F1000301DA01260020C4E9E4
:10496C000460254ED6F800C07568B44508BF4FF0FA
:10497C00000CBCF1000F0DD1C4E900652C60746013
:10498C001CE0FFF77DFF013645F10005361845EBBD
:10499C00E070E4E7DCE90420D4E90431934271EBE4
:1049AC00000E1DDAD21ADCF8043060EB0100CCE901
:1049BC000420C4E900C31C60CCF804403368B34243
:1049CC0009D09C4207D10D4B1C6824B9FFF77EFF20
:1049DC002146FEF7E1FF87F31188BFF36F8FF8BD17
:1049EC009B1A61EB0001AC45C4E90431C4D0DCF87E
:1049FC0000C0BEE7F807002048000020D8090020BE
:104A0C002DE9F84FEFF3118C102383F31288BFF3C9
:104A1C006F8FDFF8B0A0DFF8B0900024C9F8000069
:104A2C00DAF800000025504508BF0020274FE0466B
:104A3C00D7E90021D9F8003078B3D0E9046C4FEAFB
:104A4C00E37EB3427EEB0C0B05DAF61A6CEB0E042C
:104A5C00C0E9046421E0B21841EBE671C0E90445F9
:104A6C00C7E90021FFF716FF88F31188BFF36F8F9A
:104A7C0083689847EFF31188102383F31288BFF3F0
:104A8C006F8FD9F80030DAF800009B1B5045C446F4
:104A9C00C9F80030CBD1D7E9002100249A1841EB9A
:104AAC00E373C7E90023C9F80040FFF70FFF214665
:104ABC00FEF772FF88F31188BFF36F8FBDE8F84FD4
:104ACC00FFF792BE48000020D8090020F80700200C
:104ADC0010B5EFF31184102383F31288BFF36F8F9B
:104AEC00FFF7CEFE0346054AD2E90001181841EB48
:104AFC00E37184F31188BFF36F8F10BDF8070020AA
:104B0C00F8B50446EFF31187102383F31288BFF333
:104B1C006F8F026822B187F31188BFF36F8FF8BDD6
:104B2C00D0E90A36581C46F10001022871F1000147
:104B3C0027D3012B76F10001BCBF012316465D1E65
:104B4C0046F1FF3603F026F9013041F1000140191E
:104B5C0046EB0101012871F1000139DB03F01AF970
:104B6C00013041F100016FF00102401946EB0103E5
:104B7C004FF0FF31121A61EB030320461749FFF780
:104B8C00C5FE236B01332363236A6BB187F3118852
:104B9C00BFF36F8F2046236A9847EFF311871023DA
:104BAC0083F31288BFF36F8F54F8185FA542B2D00D
:104BBC00002DB0D0284603F04BF80023EB6687F3AA
:104BCC001188BFF36F8F2846BDE8F84003F018B882
:104BDC006FF001024FF0FF33CFE700BF0D4B000821
:104BEC002DE9F04105461C4690461F46EFF3118611
:104BFC00102383F31288BFF36F8FB4F1FF3F08BF0C
:104C0C00B2F1FF3F05D186F31188BFF36F8FBDE87A
:104C1C00F081531C74F1FF3309DB012A74F100039A
:104C2C00BCBF0122002412F1FF3844F1FF372846A3
:104C3C0003F097F8DDE906010023C5E90A012B63AF
:104C4C0042463B4628460249FFF760FEDBE700BFC1
:104C5C000D4B0008014801F067BD00BF7C930008B4
:104C6C000CB430B589B005460C461C22002101A8B5
:104C7C0003F0F5F902238DF806300E4B05950293DF
:104C8C0023462CB1B4F1004F28BF4FF00043013B39
:104C9C001D440DAA0C9901A80695009200F0A6F8E7
:104CAC0014B10022059B1A7009B0BDE8304002B067
:104CBC00704700BF7B8000082DE9F04101260746B4
:104CCC00B24201DCBDE8F0813B461F4613F8014BB4
:104CDC00002CF7D0252CF8D11C780237252CF3D0DA
:104CEC0000239C461D46DFF800811F2D18D8A4F127
:104CFC00200EBEF1100F09D9A4F1300EBEF1090F30
:104D0C001ED80A24202504FB03E304E028FA0EFE37
:104D1C001EF0010F06D017F8014B002CE5D128E04E
:104D2C007F2D1CD8A4F1300EBEF1090FE9D9242C2B
:104D3C0010D1BCF1000F46D0B34246D00023EAE7B5
:104D4C0024F0040EBEF12A0FF8D06C2C09D145F0DA
:104D5C008005E0E724F0040EBEF12A0FEED06C2C97
:104D6C0022D06C2C1BD8682C23D06A2C28D04C2C2D
:104D7C0026D0BCF1000FA5D0B445A1D144F020073A
:104D8C00A7F1650CBCF1020F0B6801D9612F1ED184
:104D9C00073323F0070308330B6001368FE7742CBD
:104DAC00B9D07A2CB7D0E4E72C0648BF45F400758F
:104DBC00CDE7EC0548BF45F4007545F48075AAE7CE
:104DCC0045F42075A7E79C46B8E76324D6E7692C21
:104DDC0002D007D8632C03D02F0601D5AC05D7D44D
:104DEC000433D9E7732CF6E7892801002DE9F04F3D
:104DFC00436895B00393837880469B07CDE90A12EC
:104E0C0011D50B4600260D921F7877B1252F10D0A7
:104E1C000133099341463846039B9847002806F115
:104E2C00010680F22C854FF0FF36304615B0BDE8F8
:104E3C00F08F5F789A1C252F0992EBD00024254621
:104E4C00A246A346BBF11F0F32D8A7F12003102BAB
:104E5C000AD8DFE803F02409092A0909091B090902
:104E6C000922092709091900A7F13003092B2DD9AB
:104E7C002A2F39D154B90D9B1BF0400F53F8042B3A
:104E8C000D9329D0154601E04BF0010B099B13F84B
:104E9C00017B0993002FD5D156E04BF0020B4BF060
:104EAC00040BF3E74BF0080BF0E74BF0100BEDE7BE
:104EBC00BBF17F0F3FD8A7F13003092BD8D81BF0DB
:104ECC00400F03D00A2202FB0535DFE70A2202FB62
:104EDC000A3A4BF0200BD9E7B2F1000AF9DACAF121
:104EEC00000A4BF0280BD1E72E2F05D11BF0400FF9
:104EFC009BD14BF0400BC9E7242F1CD1002C00F0A8
:104F0C008A800B9B1BF0400F0D930AD152460A98D6
:104F1C000DA9FFF7D1FE0D9B1A1DD3F800A00D9221
:104F2C00B4E72A460A980DA9FFF7C6FE0D9B1A1D79
:104F3C001D680D92AAE76C2F5AD052D8682F5FD0FB
:104F4C006A2F65D04C2F63D034B10B9B22460A9844
:104F5C000DA90D93FFF7B0FE002D47F02003B8BF4D
:104F6C002BF0400B0793A3F16503BCBF00251FFA80
:104F7C008BFB022B54D947F02003612B40F061834B
:104F8C00FF4307F0200308930D9B073323F007031F
:104F9C0003F108020D924BF4C05204921A68059268
:104FAC005A68DDF814C0C2F30A57C2F3130047EA7B
:104FBC000C0353EA000401460BF040044FEAD27292
:104FCC005AD13027D2B28DF83D708DF83C20A7B263
:104FDC00002C00F0BF810C2D4FF000075EDD0D257D
:104FEC00B3E0742F3FF452AF7A2F3FF44FAFABE7DF
:104FFC001BF0800F18BF4BF4007B4BF0800B45E788
:10500C001BF4807F18BF4BF4007B4BF4807B3DE797
:10501C004BF4207B3AE725465446AB46AA4635E787
:10502C00FF4307F0200308930D9B1BF0400F03F187
:10503C00070323F0070303F10802D3E90001079BE0
:10504C0008BF0625652B0D9240F09881002214466E
:10505C006B1CDBB24BF4805B112B28BF1123CDE909
:10506C0000240EAA00F0AAFCC3B2059302230E9FE3
:10507C00CDF810B0069380E0002F00F03A81312378
:10508C00D2B28DF83D30A7F2FF378DF83C20A3B299
:10509C00002C00F056810C2D00F355810123C5F135
:1050AC000D01890001F1FF39A1F12104C1F1210E9B
:1050BC0023FA0EFE03FA04F403FA09F344EA0E048D
:1050CC0013EB030E44EB0409DEF1000BCDF818B022
:1050DC0069EB490BCDF81CB0DDF814B01EF1FF3EA6
:1050EC0049F1FF390EEA0B0E09EA0009734574EB1E
:1050FC00090912DBC1F12009B1F1200E00FA09F9FE
:10510C002BFA01F141EA09015CBF40FA0EFE41EABB
:10511C000E0111F0010F00F0EF800599CB1840EB58
:10512C000400B0F5801F9C46C0F2E6809DF83D104F
:10513C00B7F5806F01F101018DF83D1000F0E880AA
:10514C00069A07991A40134601400D20089AC2F19D
:10515C00570403F00F021B0943EA01730911002ADB
:10516C0040F0FD80854280F2FC800138F1D10E23A5
:10517C000120CDE905307023079307F10902122AAB
:10518C003B4600F2D0809DF83CB00BF00C091BF0B4
:10519C00010B40F02A81049B9A0700F1208113F047
:1051AC00040400F0FF80B9F1000F40F024814FF0AF
:1051BC002009049B13F4405F23D1002D08BF012567
:1051CC00059B50336B44133B059A22B113F8012D08
:1051DC00302A00F04481049B13F0100F059B18BF7C
:1051EC002B46381DC0F24081BD4240F33D81049AEC
:1051FC00BB4242F4005292B2049240F337817D1CC0
:10520C005D1B049B13F4005B00F0328127EAE7740A
:10521C000134B9F1000F00D00134002D00F03181C0
:10522C006B1C1C44049BA245D4BF0024AAEB0404B1
:10523C0013F0090F04D13444A64240F02781002416
:10524C00B9F1000F08D041464846039B9847002807
:10525C0006F10106FFF6E7AD049B1A0513D541468E
:10526C003020039B98470028FFF6DDAD089B414694
:10527C00C3F1780000F0F800039B9847002806F172
:10528C000206FFF6D0AD049B1B0705D43444B44290
:10529C0040F0068126460024BBF1000F00F031815E
:1052AC0027EAE77AA7EB0A0B6D42059B0AF1FF3A56
:1052BC005B4585BF0EAB5B4430205879554506F1F4
:1052CC00010900F3F7804146039B984700280BF136
:1052DC00010BFFF6A8ADBAF1FF3F08D141462E20D5
:1052EC00039B98470028FFF69EAD06F102094E4637
:1052FC00DBE730230127C3E6069B03EA0C0C079B74
:10530C0003401846B7F5806F26D15CEA00001CD02C
:10531C004FF4806742F008028DF83C200E23059371
:10532C00702307933B4603F16302C62A38D940F237
:10533C00CE7203F2E73393428CBF0423032306930C
:10534C0021E71D46DEE70D25DCE742F004028DF86F
:10535C003C20E3E73D46F8E663460146F5E6092ABC
:10536C0009D830320DF1380C84448542B8BF05465B
:10537C008CF80520F9E62244D2B2F3E7079B662BA2
:10538C0005D12C46012211234BF4005B64E600226C
:10539C006527EBB2012B38BF0123144607975BE658
:1053AC000223CCE7B9F1000F3FF403AFBAF1030FBE
:1053BC0034DD049BAAF103041F072FD43444414667
:1053CC002020039B9847002806F10106FFF62BAD21
:1053DC00A642F4D1BBF1000F36D0002415E0B9F190
:1053EC00000F2BD14FF02B09E3E6B9F1000F28D1B8
:1053FC004FF02D09DDE64FF0200BBAF1040FECDD78
:10540C00049BAAF104041D07D8D541465846039BBA
:10541C009847002806F10106FFF605AD9DF83C30D3
:10542C009F4D13F0080F9F4B08BF1D462F46B946E2
:10543C0017F8010B50B9751BA9445DE04FF02B0B0D
:10544C00DBE74FF02D0BD8E75C46E7E7089B4146BE
:10545C00C01AC0B2039B98470028E8DAE3E4059A27
:10546C00013AD2B20592AFE65D1ECAE60025C8E647
:10547C00049B13F4006F0CBF03240524069B1C44EF
:10548C00C7E6049BD90648BF0134CBE64146202031
:10549C00039B9847002806F10106BFF6CDAEC2E487
:1054AC0041463020039B9847002806F10106BFF6C1
:1054BC00EEAEB8E4BA450AD19DF83D30352B1ED876
:1054CC0005D19DF83C3013F0100F08BF3120414638
:1054DC00039B98470028FFF6A6AC049BD8060BD577
:1054EC00BAF1FF3F08D141462E2006F10209039B79
:1054FC0098470028FFF697AC4E464C4446E23120C4
:10550C00E5E79DF83D00414631281EBF9DF83C3033
:10551C0023F010038DF83C30039B98470028FFF6CE
:10552C0082AC002D6DDD41462E20039B9847002850
:10553C0006F10209FFF677AC01263346059A41467F
:10554C0096423DBF50336B4413F8130C3020039B31
:10555C009847002809F10109FFF665AC0136F6B24F
:10556C00AE423346EADDDDE90732981A4146039B29
:10557C00C0B298470028FFF656AC002F04DB4FD181
:10558C009DF83C30DB064BD52D207F424146039BDA
:10559C0098470028FFF647AC069B042B42D14FF4EA
:1055AC007A7697FBF6F505F130004146039BC0B2C5
:1055BC009847002809F10309FFF635AC06FB15776F
:1055CC00642697FBF6F505F130004146039BC0B20B
:1055DC009847002809F10109FFF625AC06FB157761
:1055EC000A2697FBF6F505F130004146039BC0B245
:1055FC009847002809F10109FFF615AC06FB157751
:10560C0018E0049BDA0602D406F10109ABE7414627
:10561C002E20039B9847002806F10209A3DA02E426
:10562C002B20B3E7069B09F10209032BC8D0069B7C
:10563C00012BD5D107F13000414609F10109C0B267
:10564C0055E7A7F16303122B00F20081DFE813F09A
:10565C0013005800FE00FE00FE00FE005800FE0085
:10566C00FE00FE00FE00FE001A01F900FE00FE0026
:10567C002C00FE00BA0001240D9B0EAF1A1D1B68F6
:10568C000D928DF838301BF0080F2ED03D4607EBED
:10569C000409A9452BD1F71BB944AAEB04042BE749
:1056AC00A5940008918C00080D9B1A1D0D921F6883
:1056BC00AC4B002F08BF1F461BF0400F14BF2946F0
:1056CC004FF0FF31384602F08FFB0446DBE74146D2
:1056DC002020039B98470028FFF6A5AB013DA5426F
:1056EC00F5D85644761BAA46D0E75546F7E741460F
:1056FC0015F8010B039B98470028CADAFFF793BBF8
:10570C001BF0800F0D9B3CD01BF4007F34D0073373
:10571C0023F0070303F108020D92D3E900012BF0EB
:10572C00100900291FFA89F93DDA404261EB410169
:10573C0049F480690A230DF1380B5A4602F060FBDC
:10574C0019F0400FA0EB0B0B65D029F001025D4561
:10575C0092B240F3B380002F00F0AB8019F010032D
:10576C002C46914640F0AD8040F2064319EA030303
:10577C001CBF0023013455E01A1D18680D92C11787
:10578C00CDE71A1D1BF4807F19680D9201D10846D4
:10579C00F5E71BF4007F15BF48B208B241F3C01106
:1057AC0041F3C031BBE750EA0103C3D11BF0400FFA
:1057BC00C0D0002DBED12BF0110B1FFA8BF9AB46CC
:1057CC002C46D1E70A232BF0100B1FFA8BFB1BF096
:1057DC0080040D9A59D01BF4007115BF0732101DAF
:1057EC0022F007020D900FBF106802F108010D9115
:1057FC00D2E9000150EA010254D12BF016091BF03A
:10580C00400F1FFA89F951D0002D4FD12BF0170BF7
:10581C001FFA8BF9AB4619F0100354D0002F4FD15F
:10582C000BF1010419F0080F60D119F0010F06D02B
:10583C00A2456FDDAAEB040404EB0B05544622468B
:10584C004FE0102378274BF0100BC0E747F02003F4
:10585C00782B05D1582F14BF10234FF40473B6E7DF
:10586C0041462520039B98470028FFF6DCAA4146B9
:10587C003846039B98470028FFF6D5AA0236099BA9
:10588C00FFF7C2BA08230027A1E7111D0D911BF4E5
:10589C0080711068AED01BF400711ABF2146C0B2E3
:1058AC0080B2A7E72BF0060B1FFA8BF90DF1380B22
:1058BC0043E729F011091FFA89F981E79146AAE714
:1058CC005C460234AEE75C464EE7CDE90423414624
:1058DC002020039B98470028FFF6A5AA049A059B55
:1058EC0001329245F1DC341BA6181446A3B1414693
:1058FC003020039B98470028FFF695AA7FB34146BA
:10590C0038460236039B98470028FFF68CAAB1460E
:10591C0035441BE05D4692E740F2064319EA030F5B
:10592C00F5D019F0020F14BF2B20202019F4806F32
:10593C00414618BF2D200136E4E741463020039B39
:10594C009847002809F10109FFF66DAAA5EB090398
:10595C005B45F2DC5D460EAE35B9D9449DE60136A9
:10596C00D5E700BFA9940008013D4146705D039B3B
:10597C0098470028F0DAFFF756BA41462020039BDF
:10598C009847002806F10106FFF64DAAA31B002B31
:10599C00F3DC74E71FB502AB0093074A4FF0CC332E
:1059AC0002F015FBDDE90201C00840EA4170C908AC
:1059BC0005B05DF804FB00BFCDCCCCCC2DE9F04F8D
:1059CC009BB005920A460A939DF89030C2F30A5593
:1059DC00D20F0B930446C1F313030992090D85B939
:1059EC0050EA03021CD130230126059A5371099BFE
:1059FC00957143F002031371156030461BB0BDE87E
:105A0C00F08F40F2FF7295424AD10343099B059AED
:105A1C0014BF43F0080343F0040300261371ECE7B2
:105A2C0000F00102089201229A4616464FEA8308BA
:105A3C00AA4D48EA90788700C5F1000B58460692AB
:105A4C0000F01CFBB5F1FF3FACBF8146A0F1010992
:105A5C00ABEB090B09EB05035846049300F014FB60
:105A6C0016A9A0F17D05584600F012FA069A12AB61
:105A7C00A9EB0505019310AB204602920093514609
:105A8C002B4616AA02F0E6F9B9F1010F04460D46B1
:105A9C0000F2D280089B002B40F0C58001276BE000
:105AAC0043F4801A00F001024FEA8A080343A5F27E
:105ABC003545089248EA90784FEA800749D140F280
:105ACC00FE7319420CBF01260026002D3246B3DBB3
