:020000040800F2
:10000000C821002059340008DD2F000845340008BD
:10001000453400084534000845340008000000005D
:10002000000000000000000000000000393500085A
:100030004534000800000000E1340008A542000833
:100040006D3600086D3600086D3600086D36000804
:100050006D3600086D3600086D3600086D360008F4
:100060006D3600086D3600086D3600086D360008E4
:100070006D3600086D3600086D3600086D360008D4
:100080006D3600086D3600086D3600086D360008C4
:100090006D3600086D3600086D3600086D360008B4
:1000A0006D3600086D3600086D3600086D360008A4
:1000B0006D3600086D3600086D3600086D36000894
:1000C0006D3600086D3600086D3600086D36000884
:1000D0006D3600086D3600086D3600086D36000874
:0C00E0006D3600086D3600086D36000813
:0400EC00FFFFFFFF14
:1000F00081F0004102E000BF83F0004330B54FEAD9
:1001000041044FEA430594EA050F08BF90EA020F45
:100110001FBF54EA000C55EA020C7FEA645C7FEAD8
:10012000655C00F0E2804FEA5454D4EB5555B8BFFB
:100130006D420CDD2C4480EA020281EA030382EA6C
:10014000000083EA010180EA020281EA0303362DFE
:1001500088BF30BD11F0004F4FEA01314FF4801CD1
:100160004CEA113102D0404261EB410113F0004FE3
:100170004FEA03334CEA133302D0524263EB43039A
:1001800094EA050F00F0A780A4F10104D5F1200E38
:100190000DDB02FA0EFC22FA05F2801841F1000193
:1001A00003FA0EF2801843FA05F359410EE0A5F167
:1001B00020050EF1200E012A03FA0EFC28BF4CF098
:1001C000020C43FA05F3C01851EBE37101F000454E
:1001D00007D54FF0000EDCF1000C7EEB00006EEB5B
:1001E0000101B1F5801F1BD3B1F5001F0CD34908E5
:1001F0005FEA30004FEA3C0C04F101044FEA44523C
:1002000012F5800F80F09A80BCF1004F08BF5FEAC2
:10021000500C50F1000041EB045141EA050130BDA2
:100220005FEA4C0C404141EB0101013C28BFB1F5B4
:10023000801FE9D291F0000F04BF01460020B1FAFF
:1002400081F308BF2033A3F10B03B3F120020CDAD2
:100250000C3208DD02F1140CC2F10C0201FA0CF0B0
:1002600021FA02F10CE002F11402D8BFC2F1200C15
:1002700001FA02F120FA0CFCDCBF41EA0C019040CB
:10028000E41AA2BF01EB0451294330BD6FEA040414
:100290001F3C1CDA0C340EDC04F11404C4F12002FF
:1002A00020FA04F001FA02F340EA030021FA04F311
:1002B00045EA030130BDC4F10C04C4F1200220FA68
:1002C00002F001FA04F340EA0300294630BD21FAA6
:1002D00004F0294630BD94F0000F83F4801306BF6C
:1002E00081F480110134013D4EE77FEA645C18BF60
:1002F0007FEA655C29D094EA050F08BF90EA020FF7
:1003000005D054EA000C04BF1946104630BD91EAEE
:10031000030F1EBF0021002030BD5FEA545C05D1F1
:100320004000494128BF41F0004130BD14F5800430
:100330003CBF01F5801130BD01F0004545F0FE41A4
:1003400041F470014FF0000030BD7FEA645C1ABFD9
:10035000194610467FEA655C1CBF0B46024650EA10
:10036000013406BF52EA033591EA030F41F400213C
:1003700030BD00BF90F0000F04BF0021704730B5C2
:100380004FF4806404F132044FF000054FF0000197
:1003900050E700BF90F0000F04BF0021704730B558
:1003A0004FF4806404F1320410F0004548BF40422D
:1003B0004FF000013EE700BF42004FEAE2014FEA82
:1003C00031014FEA02701FBF12F07F4393F07F4F5D
:1003D00081F06051704732F07F4208BF704793F060
:1003E0007F4F04BF41F40021704730B54FF4607473
:1003F00001F0004521F000411CE700BF50EA010276
:1004000008BF704730B54FF000050AE050EA01021E
:1004100008BF704730B511F0004502D5404261EB8E
:1004200041014FF4806404F132045FEA915C3FF4CF
:10043000D8AE4FF003025FEADC0C18BF03325FEA6C
:10044000DC0C18BF033202EBDC02C2F1200300FA1D
:1004500003FC20FA02F001FA03FE40EA0E0021FA42
:1004600002F11444BDE600BF70B54FF0FF0C4CF430
:10047000E06C1CEA11541DBF1CEA135594EA0C0FE2
:1004800095EA0C0F00F0DEF82C4481EA030621EA1D
:100490004C5123EA4C5350EA013518BF52EA033558
:1004A00041F4801143F4801338D0A0FB02CE4FF00A
:1004B0000005E1FB02E506F00042E0FB03E54FF03A
:1004C0000006E1FB03569CF0000F18BF4EF0010E32
:1004D000A4F1FF04B6F5007F64F5407404D25FEA2E
:1004E0004E0E6D4146EB060642EAC62141EA5551E1
:1004F0004FEAC52040EA5E504FEACE2EB4F1FD0C23
:1005000088BFBCF5E06F1ED8BEF1004F08BF5FEAA0
:10051000500E50F1000041EB045170BD06F0004652
:1005200046EA010140EA020081EA0301B4EB5C04FF
:10053000C2BFD4EB0C0541EA045170BD41F48011F7
:100540004FF0000E013C00F3AB8014F1360FDEBF1C
:10055000002001F0004170BDC4F10004203C35DAF8
:100560000C341BDC04F11404C4F1200500FA05F37B
:1005700020FA04F001FA05F240EA020001F000421C
:1005800021F0004110EBD37021FA04F642EB060192
:100590005EEA430E08BF20EAD37070BDC4F10C04BC
:1005A000C4F1200500FA04F320FA05F001FA04F280
:1005B00040EA020001F0004110EBD37041F100016C
:1005C0005EEA430E08BF20EAD37070BDC4F1200577
:1005D00000FA05F24EEA020E20FA04F301FA05F2DF
:1005E00043EA020321FA04F001F0004121FA04F287
:1005F00020EA020000EBD3705EEA430E08BF20EA57
:10060000D37070BD94F0000F0FD101F00046400090
:1006100041EB010111F4801F08BF013CF7D041EA12
:10062000060195F0000F18BF704703F00046520016
:1006300043EB030313F4801F08BF013DF7D043EAE7
:100640000603704794EA0C0F0CEA135518BF95EA9D
:100650000C0F0CD050EA410618BF52EA4306D1D124
:1006600081EA030101F000414FF0000070BD50EA43
:10067000410606BF1046194652EA430619D094EACD
:100680000C0F02D150EA013613D195EA0C0F05D1B7
:1006900052EA03361CBF104619460AD181EA03010B
:1006A00001F0004141F0FE4141F470014FF00000C3
:1006B00070BD41F0FE4141F4780170BD70B54FF05E
:1006C000FF0C4CF4E06C1CEA11541DBF1CEA1355DE
:1006D00094EA0C0F95EA0C0F00F0A7F8A4EB0504C0
:1006E00081EA030E52EA03354FEA013100F08880B7
:1006F0004FEA03334FF0805545EA131343EA126380
:100700004FEA022245EA111545EA10654FEA002634
:100710000EF000419D4208BF964244F1FD0404F5ED
:10072000407402D25B084FEA3202B61A65EB030549
:100730005B084FEA32024FF480104FF4002CB6EB06
:10074000020E75EB030E22BFB61A754640EA0C0086
:100750005B084FEA3202B6EB020E75EB030E22BFC6
:10076000B61A754640EA5C005B084FEA3202B6EB07
:10077000020E75EB030E22BFB61A754640EA9C00C6
:100780005B084FEA3202B6EB020E75EB030E22BF96
:10079000B61A754640EADC0055EA060E18D04FEA54
:1007A000051545EA16754FEA06164FEAC30343EAF4
:1007B00052734FEAC2025FEA1C1CC0D111F4801FC1
:1007C0000BD141EA00014FF000004FF0004CB6E7BA
:1007D00011F4801F04BF01430020B4F1FD0C88BF59
:1007E000BCF5E06F3FF6AFAEB5EB030C04BFB6EB64
:1007F000020C5FEA500C50F1000041EB045170BD57
:100800000EF0004E4EEA113114EB5C04C2BFD4EB83
:100810000C0541EA045170BD41F480114FF0000E07
:10082000013C90E645EA060E8DE60CEA135594EA83
:100830000C0F08BF95EA0C0F3FF43BAF94EA0C0F86
:100840000AD150EA01347FF434AF95EA0C0F7FF4FB
:1008500025AF104619462CE795EA0C0F06D152EA4F
:1008600003353FF4FDAE1046194622E750EA410633
:1008700018BF52EA43067FF4C5AE50EA41047FF444
:100880000DAF52EA43057FF4EBAE12E74FEA4102A7
:10089000B2F1E04324BFB3F5001CDCF1FE5C0DD9DE
:1008A00001F0004C4FEAC0024CEA5070B2F1004F28
:1008B00040EB830008BF20F00100704711F0804F2B
:1008C00021D113F13872BCBF01F00040704741F4F0
:1008D00080114FEA5252C2F11802C2F1200C10FAF4
:1008E0000CF320FA02F018BF40F001004FEAC123D8
:1008F0004FEAD32303FA0CFC40EA0C0023FA02F37C
:100900004FEA4303CCE77FEA625307D150EA013351
:100910001EBF4FF0FE4040F44000704701F0004021
:1009200040F0FE4040F40000704700BF80F00040FF
:1009300002E000BF81F0004142001FBF5FEA4103B7
:1009400092EA030F7FEA226C7FEA236C6AD04FEAB7
:100950001262D2EB1363C1BFD218414048404140FC
:10096000B8BF5B42192B88BF704710F0004F40F4AE
:10097000000020F07F4018BF404211F0004F41F4CA
:10098000000121F07F4118BF494292EA030F3FD096
:10099000A2F1010241FA03FC10EB0C00C3F12003A9
:1009A00001FA03F100F0004302D5494260EB400038
:1009B000B0F5000F13D3B0F1807F06D340084FEAA3
:1009C000310102F10102FE2A51D2B1F1004F40EB98
:1009D000C25008BF20F0010040EA03007047490000
:1009E00040EB0000013A28BFB0F5000FEDD2B0FA9D
:1009F00080FCACF1080CB2EB0C0200FA0CF0AABFC0
:100A000000EBC25052421843BCBFD040184370475D
:100A100092F0000F81F4000106BF80F40000013263
:100A2000013BB5E74FEA41037FEA226C18BF7FEA3A
:100A3000236C21D092EA030F04D092F0000F08BF7C
:100A40000846704790EA010F1CBF0020704712F063
:100A50007F4F04D1400028BF40F00040704712F1A2
:100A600000723CBF00F50000704700F0004343F007
:100A7000FE4040F4000070477FEA226216BF08463D
:100A80007FEA23630146420206BF5FEA412390EA00
:100A9000010F40F4800070474FF0000304E000BFF6
:100AA00010F0004348BF40425FEA000C08BF7047A7
:100AB00043F0964301464FF000001CE050EA01026B
:100AC00008BF70474FF000030AE000BF50EA010280
:100AD00008BF704711F0004302D5404261EB41016D
:100AE0005FEA010C02BF84460146002043F0B64392
:100AF00008BFA3F18053A3F50003BCFA8CF2083AB7
:100B0000A3EBC25310DB01FA02FC634400FA02FCBF
:100B1000C2F12002BCF1004F20FA02F243EB0200C6
:100B200008BF20F00100704702F1200201FA02FC28
:100B3000C2F1200250EA4C0021FA02F243EB02001B
:100B400008BF20EADC7070474FF0FF0C1CEAD0525F
:100B50001EBF1CEAD15392EA0C0F93EA0C0F6FD020
:100B60001A4480EA010C400218BF5FEA41211ED0FE
:100B70004FF0006343EA501043EA5111A0FB0131EA
:100B80000CF00040B1F5000F3EBF490041EAD371BF
:100B90005B0040EA010062F17F02FD2A1DD8B3F13B
:100BA000004F40EBC25008BF20F00100704790F0AA
:100BB000000F0CF0004C08BF49024CEA502040EAFC
:100BC00051207F3AC2BFD2F1FF0340EAC2507047C2
:100BD00040F400004FF00003013A5DDC12F1190F00
:100BE000DCBF00F000407047C2F10002410021FA72
:100BF00002F1C2F1200200FA02FC5FEA310040F18A
:100C0000000053EA4C0308BF20EADC70704792F002
:100C1000000F00F0004C02BF400010F4000F013A3A
:100C2000F9D040EA0C0093F0000F01F0004C02BF35
:100C3000490011F4000F013BF9D041EA0C018FE7A4
:100C40000CEAD15392EA0C0F18BF93EA0C0F0AD0AA
:100C500030F0004C18BF31F0004CD8D180EA0100D0
:100C600000F00040704790F0000F17BF90F0004F69
:100C7000084691F0000F91F0004F14D092EA0C0F4B
:100C800001D142020FD193EA0C0F03D14B0218BFDE
:100C9000084608D180EA010000F0004040F0FE4024
:100CA00040F40000704740F0FE4040F440007047C0
:100CB0004FF0FF0C1CEAD0521EBF1CEAD15392EA3F
:100CC0000C0F93EA0C0F69D0A2EB030280EA010C2F
:100CD00049024FEA402037D04FF0805343EA1111C8
:100CE00043EA10130CF000408B4238BF5B0042F126
:100CF0007D024FF4000C8B4224BF5B1A40EA0C00CB
:100D0000B3EB510F24BFA3EB510340EA5C00B3EBFC
:100D1000910F24BFA3EB910340EA9C00B3EBD10FEA
:100D200024BFA3EBD10340EADC001B0118BF5FEA3C
:100D30001C1CE0D1FD2A3FF650AF8B4240EBC25065
:100D400008BF20F0010070470CF0004C4CEA502026
:100D50007F32C2BFD2F1FF0340EAC250704740F475
:100D600000004FF00003013A37E792F0000F00F067
:100D7000004C02BF400010F4000F013AF9D040EAE5
:100D80000C0093F0000F01F0004C02BF490011F479
:100D9000000F013BF9D041EA0C0195E70CEAD15371
:100DA00092EA0C0F08D142027FF47DAF93EA0C0F58
:100DB0007FF470AF084676E793EA0C0F04D14B023C
:100DC0003FF44CAF08466EE730F0004C18BF31F0EE
:100DD000004CCAD130F000427FF45CAF31F00043E8
:100DE0007FF43CAF5FE700BF4FF0FF3C06E000BF81
:100DF0004FF0010C02E000BF4FF0010C4DF804CDA4
:100E00004FEA40024FEA41037FEA226C18BF7FEAB3
:100E1000236C11D001B052EA530C18BF90EA010FB5
:100E200058BFB2EB030088BFC81738BF6FEAE17044
:100E300018BF40F0010070477FEA226C02D15FEAE0
:100E4000402C05D17FEA236CE4D15FEA412CE1D04C
:100E50005DF8040B704700BF844608466146FFE713
:100E60000FB5FFF7C9FF002848BF10F1000F0FBDF5
:100E70004DF808EDFFF7F4FF0CBF012000205DF8EE
:100E800008FB00BF4DF808EDFFF7EAFF34BF012073
:100E900000205DF808FB00BF4DF808EDFFF7E0FF0C
:100EA00094BF012000205DF808FB00BF4DF808ED5D
:100EB000FFF7D2FF94BF012000205DF808FB00BFC0
:100EC0004DF808EDFFF7C8FF34BF012000205DF8A2
:100ED00008FB00BF4FEA4002B2F1FE4F0FD34FF0C4
:100EE0009E03B3EB12620DD94FEA002343F0004397
:100EF00010F0004F23FA02F018BF404270474FF045
:100F00000000704712F1610F01D1420205D110F0CB
:100F1000004008BF6FF0004070474FF0000070477E
:100F200053B94AB9002908BF00281CBF4FF0FF3150
:100F30004FF0FF3000F00CB8ADF1080C6DE904CEB5
:100F400000F090F8DDF804E0DDE9022304B070471A
:100F5000704700BF4FF0FF3C06E000BF4FF0010CB0
:100F600002E000BF4FF0010C4DF804CD4FEA410CF8
:100F70007FEA6C5C4FEA430C18BF7FEA6C5C1BD0C5
:100F800001B050EA410C0CBF52EA430C91EA030F46
:100F900002BF90EA020F0020704710F1000F91EAA3
:100FA000030F58BF994208BF90422CBFD8176FEA71
:100FB000E37040F0010070474FEA410C7FEA6C5C3F
:100FC00002D150EA013C07D14FEA430C7FEA6C5C46
:100FD000D6D152EA033CD3D05DF8040B704700BF72
:100FE0008446104662468C461946634600E000BFC0
:100FF00001B5FFF7B7FF002848BF10F1000F01BD92
:101000004DF808EDFFF7F4FF0CBF012000205DF85C
:1010100008FB00BF4DF808EDFFF7EAFF34BF0120E1
:1010200000205DF808FB00BF4DF808EDFFF7E0FF7A
:1010300094BF012000205DF808FB00BF4DF808EDCB
:10104000FFF7CEFF94BF012000205DF808FB00BF32
:101050004DF808EDFFF7C4FF34BF012000205DF814
:1010600008FB00BF2DE9F04786468C46084615462A
:1010700074461946089E002B40F0C2808542B2FAA1
:1010800082F245D94AB1C2F1200300FA02FC2EFADD
:1010900003F3954043EA0C0C94404FEA154EBCFB19
:1010A000FEF8A8B20EFB18CC08FB00F9230C43EAAB
:1010B0000C43994528D9EB1808F1FF3704D299451C
:1010C00002D9A8F102072B44A3EB0903B3FBFEFCF2
:1010D0000EFB1C330CFB00F0A4B244EA0344A04214
:1010E00014D92C190CF1FF3304D2A04202D9ACF16F
:1010F00002032C44241A43EA07401EB10023D440C3
:1011000034607360BDE8F0874746DDE76346F1E78A
:1011100092BB0121431B4FEA154EB3FBFEFCAFB25D
:101120000EFB1C330CFB07F8200C40EA03439845E8
:1011300062D9EB180CF1FF3004D2984502D9ACF11A
:1011400002002B44A3EB0803B3FBFEFC0EFB1C3395
:101150000CFB07F7A4B244EA0344A7424ED92C196A
:101160000CF1FF3304D2A74202D9ACF102032C44A4
:10117000E41B43EA0040C0E7C2F12003954020FA97
:1011800003F12EFA03F34FEA154EB1FBFEFC90403B
:101190000343AFB20EFB1C100CFB07F8190C41EA1D
:1011A0000041884504FA02F422D969180CF1FF3095
:1011B00004D2884502D9ACF102002944A1EB080110
:1011C000B1FBFEFC0EFB1C110CFB07F79BB243EAC4
:1011D00001439F420ED9EB180CF1FF3104D29F421C
:1011E00002D9ACF102012B44DB1B41EA004192E73A
:1011F0006046E3E76146F7E76046A3E76346B7E783
:10120000834206D916B9002108467BE7C6E900E00B
:10121000F9E7B3FA83F78FB9834201D3724508D84F
:10122000BEEB020460EB030301209C461EB90021C3
:1012300068E73846FAE7C6E9004CF8E7C7F1200C42
:10124000BB4022FA0CF41C434FEA144920FA0CF379
:10125000B3FBF9F8B8402EFA0CF101430EFA07F58A
:1012600009FB18301FFA84FE08FB0EFA0B0C43EA48
:1012700000439A4502FA07F240D9E31808F1FF301B
:1012800004D29A4502D9A8F102002344A3EB0A0331
:10129000B3FBF9F809FB183308FB0EFE89B241EAEB
:1012A00003418E452CD9611808F1FF3304D28E45D5
:1012B00002D9A8F10203214443EA0040A0FB0298AE
:1012C000A1EB0E014145CE46434602D306D14D4522
:1012D00004D2B9EB020E68EB04030138002EA6D04D
:1012E000B5EB0E0261EB030101FA0CFC22FA07F3E5
:1012F0004CEA0303F940C6E9003198E74046C5E7E8
:101300004346D9E7034613F8012B002AFBD1181AEC
:101310000138704700000000112330B58BB08DF804
:1013200007300DF1070304930123059300238DF883
:10133000183002AB07930623089307238DF8243057
:1013400015480222836804A99C680C23A047BDF9B4
:101350000800FFF7A5FBFFF72FF80D460446BDF97F
:101360000A00FFF79DFBFFF727F822462B4600F007
:1013700017F80022094BFFF777F805A3D3E90023FC
:10138000FFF79CF9FFF782FA0BB030BDAFF3008096
:1013900000000000FA2109406C86000800806640C9
:1013A0002DE9F84F17469046994623F000427B42BC
:1013B000DFF8E4A13B4342EAD373534504460D46AC
:1013C00009D8464221F00043064343EAD676564503
:1013D0008E46834608D942464B4620462946FEF7AC
:1013E0008DFE04460D4616E009F1404606F58016CE
:1013F0003E4303D1BDE8F84F00F0D2B84FEAA976DA
:1014000006F0020653EA0B0B46EAD17617D1022EFC
:1014100005D0032E0AD020462946BDE8F88F48A300
:10142000D3E9002348A1D1E90001D8E744A3D3E9D7
:10143000002347A1D1E90001FEF75EFED1E7174383
:101440000DD13FA3D3E90023BEF1000F03DA42A17F
:10145000D1E90001F0E742A1D1E90001BFE752451F
:1014600024D1934218D136A3D3E90023022E0BD006
:10147000032E0DD0012E03D03BA1D1E90001AEE730
:101480003BA1D1E90001D7E73BA1D1E90001A6E7E3
:101490003BA1D1E90001CFE7022EC0D0032EC5D079
:1014A000012E4FF0000448D00025B4E75345C8D0C2
:1014B0009B1AB3F1747F4FEA23521ADB32A3D3E9AC
:1014C000002327A1D1E90001FEF718FE04460D46CE
:1014D000012E21D0022E23D0002E9CD02CA3D3E9A4
:1014E000002320462946FEF707FE17A3D3E9002371
:1014F000A2E7B9F1000F01DA3C320ADB42464B4663
:1015000020462946FFF7DAF821F0004100F048F8BC
:10151000DCE700240025DBE705F100431D467AE700
:101520001BA3D3E9002320462946FEF7E5FD02462A
:101530000B4605A1D1E900017EE74FF000456AE7BF
:1015400059F3F8C21F6EA501182D4454FB21094020
:10155000182D4454FB2109C0182D4454FB21F9BF18
:10156000182D4454FB21F93F182D4454FB21E93F29
:10157000182D4454FB21E9BFD221337F7CD902408E
:10158000D221337F7CD902C0075C143326A6913C5C
:10159000075C143326A6A13C0000F07F0000000089
:1015A000C34A2DE9F84F21F00043934204460D460B
:1015B0008B4620D9BF4A934201D80CD158B122465C
:1015C0002B4620462946FEF799FD04460D46204647
:1015D0002946BDE8F88FBBF1000F97A3D3E900239C
:1015E00003DD97A1D1E90001EDE797A1D1E9000161
:1015F000FEF782FDE9E7B04A934211D8A2F1DE720C
:1016000093420AD892A3D3E90023FEF777FD002284
:10161000AA4BFFF71DFD0028D9D14FF0FF3A27E074
:10162000A74A0646934221F0004700F2B880A2F58F
:101630005022934200F29B8002463B463946FEF719
:101640005DFD00229D4BFEF757FD002204460D462E
:101650004FF0804330463946FEF750FD02460B46B8
:1016600020462946FFF72AF84FF0000A04460D46A7
:1016700022462B4620462946FEF7F6FE02460B463A
:1016800080468946FEF7F0FE73A3D3E900230646A1
:101690000F46FEF7E9FE72A3D3E90023FEF72EFD05
:1016A00032463B46FEF7E0FE6FA3D3E90023FEF788
:1016B00025FD32463B46FEF7D7FE6DA3D3E9002356
:1016C000FEF71CFD32463B46FEF7CEFE6AA3D3E989
:1016D0000023FEF713FD32463B46FEF7C5FE68A326
:1016E000D3E90023FEF70AFD42464B46FEF7BCFE57
:1016F00065A3D3E900238046894630463946FEF784
:10170000B3FE63A3D3E90023FEF7F6FC32463B4663
:10171000FEF7AAFE60A3D3E90023FEF7EDFC3246F4
:101720003B46FEF7A1FE5EA3D3E90023FEF7E4FCEF
:1017300032463B46FEF798FE5BA3D3E90023FEF753
:10174000DBFC32463B46FEF78FFE02460B46404628
:101750004946FEF7D3FC22462B46FEF785FEBAF13A
:10176000FF3F02460B4644D12046294640E700226F
:10177000524B3946FEF7C0FC002204460D464F4B43
:1017800030463946FEF7BAFC02460B46204629464B
:10179000FEF794FF4FF0010A04460D4668E7494AF8
:1017A00093421BD20022484B3946FEF7A5FC00228B
:1017B00004460D46444B30463946FEF755FE00229E
:1017C0003E4BFEF79BFC02460B4620462946FEF7A1
:1017D00075FF4FF0020A04460D4649E702463B46B4
:1017E00000203A49FEF76AFF4FF0030A04460D460F
:1017F0003EE7374B374E03EBCA03D3E90023FEF72E
:101800007BFC22462B46FEF777FC06EBCA06024617
:101810000B46D6E90001FEF76FFCBBF1000FBCBF21
:10182000024601F1004304460D46BCBF14461D4666
:10183000CDE600BFAFF30080075C143326A6913CD1
:10184000182D4454FB21F93F182D4454FB21F9BFB6
:101850009C7500883CE4377E11DA22E33AAD903F74
:10186000EB0D76244B7BA93F513DD0A0660DB13FD7
:101870006E204CC5CD45B73FFF8300922449C23F3F
:101880000D5555555555D53F2F6C6A2C44B4A2BF04
:101890009AFDDE522DDEAD3F6D9A74AFF2B0B33FCC
:1018A000711623FEC671BC3FC4EB98999999C93F44
:1018B000FFFF0F440000F07FFFFFDB3F0000F03F21
:1018C000FFFFF23F008003400000F83F0000F0BF40
:1018D000288B0008488B000870B50A4D0A4EFFF7A8
:1018E0001BFD04464FF0FF324FF0FF33284602F055
:1018F0008FFF3460284603F003F8322005F07DF8AE
:10190000EDE700BFB4000020FC0700202DE9F04106
:101910000D4C0E4DDFF838804FF0FF324FF0FF33A3
:10192000204602F075FF6E682F68204602F0E8FF3F
:1019300043463A463146074800F03AF900F0A0F82D
:101940000A2005F05AF8E7E7B4000020FC07002061
:101950000AD7233CE80700202DE9F34140F6B830D0
:1019600005F04BF81F4805F023F940F6B83005F0B4
:1019700044F81D4805F01CF900F05AF800F0AEF8E4
:1019800000F0DCF860B3194805F012F94FF07C5311
:101990004FF07F51164A174805F042F8164E174F80
:1019A000DFF85C804FF0FF324FF0FF33304602F03B
:1019B0002FFF7868FEF700FD044638680D46FEF7F5
:1019C000FBFC2246CDE900012B46404605F0F0F82D
:1019D000304602F095FF40F6B83005F00EF8E1E72A
:1019E0000848D1E7BE8E0008CA8E0008E38E0008C2
:1019F000CDCCCC3DE8070020B4000020FC0700203F
:101A0000318F0008228F000807B5074B07481A8856
:101A10009B78ADF8042001A903228DF8063004F06C
:101A2000F1FF03B05DF804FB778F00086C860008B7
:101A300007B5104806F092FA28B90F4803B05DF8D0
:101A400004EB05F0B5B8062301220A480DF10701A1
:101A50008DF8073004F0D6FF00214FF4FA7003F040
:101A6000F9FAFFF7D1FF054805F0A2F803B05DF8D9
:101A700004FB00BF6C8600087A8F0008A08F000866
:101A80006FF05903984207B5B8BF18465A28A8BF47
:101A90005A2000F13B03762B04D803B05DF804EB29
:101AA000FFF7B2BF4FF481730028B8BF40428DF8F2
:101AB00006000322044801A9ADF8043004F0A2FF97
:101AC00003B05DF804FB00BF6C860008024A13688F
:101AD00001331360704700BF0408002070B5134C39
:101AE000204606F03BFA00B32269A56813680A2174
:101AF00023F48063136020462B680D4A9847AE6933
:101B000036B14FF080634FF0A0720A212046B047F3
:101B10000849094B4B604FF480638B60EB6923B13C
:101B2000BDE8704001220148184770BD30860008AA
:101B30001000010008080020CD1A000830B589B057
:101B40000DF10703029301230DF106020024CDE9F4
:101B50000523039307238DF806408DF807408DF881
:101B600010408DF81C300E480222836802A99D683F
:101B70000C23A8479DF806100A4805F019F89DF8AF
:101B80000630092B05D1084805F012F8204609B0A7
:101B900030BD064805F00CF84FF0FF30F7E700BF06
:101BA0006C860008D68F0008F98F00081D90000889
:101BB0002DE9F8430546084611461F46FEF7BAFED2
:101BC00004462E4EDFF8B88031462046FFF778F9FC
:101BD000002845D12B4EDFF8A88031462046FFF77C
:101BE00051F9002842D129682046FEF7ADFF394659
:101BF00080462046FEF7A8FFE968FEF79DFE2249D1
:101C00000646FFF75DF9002836D130461F49FFF739
:101C100039F900B11D4E6968EE603046FEF794FF59
:101C2000296981462046FEF785FE3946FFF740F8D0
:101C3000A968FEF789FF0646494640462C61FEF733
:101C40007BFE3146FEF778FEFFF744F96FF059034B
:101C50009842B8BF18465A28A8BF5A20BDE8F88352
:101C600020464146FEF766FE0446ADE72046414663
:101C7000FEF762FE0446B0E7034ECCE700003443B3
:101C80000000B443000034C30000FA430000FAC36C
:101C90002DE9F04F91B0009302F004030293C2F3D8
:101CA000C2030133840705460E46DDF868900392AF
:101CB000059340F0BB81041D30B1072909D86FF0AE
:101CC0001B0011B0BDE8F08F01F00706341DC6F10E
:101CD0000806009B4FF000084FF0040A591E4FF011
:101CE000FF3347460193C3465346CDF810800DB1EC
:101CF000009A22600598002800F3E8809848009A2E
:101D0000824203D397488242C0F0E080039AA4EB5A
:101D1000050E92074FEA9E0000F103810F2F00F29B
:101D2000B180002D00F0058107F140020DEB020C9F
:101D3000019A0CF8200C0CF8102C04980130049037
:101D4000E7E07A285DD84B280ED8472859D82928AB
:101D50002DD8252852D054D820287AD02338D0F135
:101D6000000B4BEB000B74E04C382E2849D8DFE811
:101D700000F07048484848484848484848484B4858
:101D80004848484848484859484B4B595959704B5E
:101D90006D487048184B184848827F4B48484B485C
:101DA0007F0000204FF0000B4FF0040A38E00122C2
:101DB0002A38C0B202FA00F010EA0E0F49D110F032
:101DC000625C2FD110EA020B43D06046013C5444C0
:101DD000B4FBFAF40AFB04F4002D61D0A3EB050C6C
:101DE000A444B4453FF66BAF002868D1042B47D11B
:101DF00059F8043B2360042304342AE0019A013A91
:101E000001924FF0000B24E011F8010C6C2834D142
:101E1000002011F8023C83466C2BC5D14FF0080A14
:101E20005346D3E709F1070929F00709073424F0DD
:101E30000704F9E802AB35B106982044B0423FF6FA
:101E40003EAFC4E900AB4FF0000B08344FF0080A76
:101E5000534611F8010F002878D0BBF1000F7FF432
:101E600070AF2528F5D14FF0010B019B0133019391
:101E70004FF0040AECE7584694E700208346A5E7B4
:101E8000082B02D06FF015001BE709F1070929F0B4
:101E90000709F9E80223C4E9002308230834D8E736
:101EA00068B9042B02D109F10409A4E7082BE9D190
:101EB00009F1070929F0070909F10809EDE7059A71
:101EC000013A059259F8042B009210E7039A900703
:101ED00020D54FF0010CA4EB050E4FEA9E00BEF595
:101EE000007FCFD20F2FCDD8F5B107F140020DEB17
:101EF000020E019AC0B20EF8200C0EF8102CBCF1A4
:101F0000000F3FF41AAF60F07F000EF8200C08F1CC
:101F100001080137C5F108024FF6DA7E0434069253
:101F200097E74FF0000CDAE7BCF1000F01D0013663
:101F3000EFE7029802360028EBD10098CDE9063190
:101F4000FFF7E0F9DDE906310644E2E7631BB3F58C
:101F5000806F97D245B9A6F10804E018B1E600BF3A
:101F60001C850008409A0008029A9B0828602B7084
:101F70009DF81030C2B1EB7085F80280B8F1000F07
:101F800005D0002208A8C5F1010C97420ED14FF0F0
:101F9000000AC5F101030DF1200901930DF1300B89
:101FA000574512D1601B8CE66B70E5E710F8013BDA
:101FB000190608D504EB0C0EB64503F07F033FF677
:101FC0007EAE04F8013B0132DFE7B8F1000F03D029
:101FD00099F90020002A17DB029BD3B11AF80B20D5
:101FE00004F8012B0022019B98182044B0423FF6D0
:101FF00066AE99F80000009904F8010B20460392A0
:1020000006F063FA039A14440AF1010A09F101097E
:10201000C6E799F8002055F822300093029B0098FB
:1020200045F82230FFF76EF9421CDCE76FF00D0037
:1020300047E600BF2DE9F04F97B000AFD7F880B06A
:102040007B62CBF3C0030446894690F802A0FA6293
:10205000BB6141B9457800780AEB800020444D45CA
:1020600017D8A0EB0409E378FB61BAF1000F02D0A6
:102070001BF0010F16D1FB6953BBFB6A1BB149462C
:1020800020467A6A98474D4628465C37BD46BDE8EB
:10209000F08F461C3046FFF735F90130304409F126
:1020A0000109DCE762682378BA62FA6A990079610B
:1020B00004EB8301002A40F001810E464FF0000836
:1020C0004D4601EB0A094E454CD101EB0A0610E0E2
:1020D0001BF0020FD1D023789A007A61626804EB7A
:1020E0008301BA62FA6A002A77D14D46904601EB25
:1020F0000A061BF0050F0CBF02230123FB62FB69DC
:1021000006EB430A0BF002037B625645BCD016F87F
:10211000021B16F8013C54F82390AF4B994502D3AB
:10212000AE4B994536D3BB69002B40D0B86A04F05A
:1021300018FD00283BD0E9468AB06A46A84B536197
:10214000BB6AC2E906314FF400731384A54B42F811
:10215000103F00234FF41251A34800F023FC023D2E
:10216000CD46D2E716F8013BF96254F82300FFF799
:10217000C9F8D7F88430F96A01304BB1D7F8883004
:1021800098453EBFD7F8843023F8180008F10108BD
:10219000054498E7BB6923B1B86A04F0E2FC002863
:1021A000C9D11BF0010F05D1FB6AED1AADE77B6ABF
:1021B000002BAAD04846FFF7A5F8D7F8843053B1D2
:1021C000D7F8883098453FBFD7F88420431C22F8C1
:1021D000183008F10108054497E7BAF1000F73D0F1
:1021E0001BF0040673D0D046002607F14800524683
:1021F0003B61396206F069F9396A3B6901EB0A0211
:102200003A62FA695200FA60D7E9071202EB41021A
:102210003A610BF00202BA603A69396A8A4258D1CF
:1022200062781BF0020F18BF0021BA6208BF4FEAA4
:102230005801B2181BF0010FD2B240F0A1801BF080
:10224000040F14BF40460020BB616270A070E170B3
:1022500020467A6A7969FB6A9847051EFFF614AF33
:10226000BB6941462370BB6A7A6A6370FB6984F874
:1022700002A0E37007F14800FB6A9847B0F100083C
:10228000C0F2B7807B69A9EB0A01C91AFB687A6AB8
:10229000C91A386AFB6A98470028C0F2AC804FF030
:1022A000000BA84408EB000507F1380AB34569D3D1
:1022B00000217A6A0846FB6A9847E5E656464FF0E1
:1022C000000807F1380092E75646D04696E7B04638
:1022D00094E73A6A12F8021B12F8015C3A6254F869
:1022E00025003D4A904202D33C4A904220D3BA692D
:1022F00032B1B86A7B6004F034FC7B6800288BD173
:10230000BA6812BB08F1280208F1010007F1300C8D
:10231000C0B294440CF8101C00F1280207F13001FF
:1023200008F1020850185FFA88F800F8105C73E7AB
:10233000BA693AB1B86A7B6004F013FC7B68002884
:102340007FF46AAF1BF0010F09D006F1280207F1F4
:102350003000711C161806F8205CCEB25CE71BF04A
:10236000040F3FF459AF08F1280207F1300008F1DB
:10237000010102EB000808F8105C5FFA81F84BE7F6
:10238000002061E71BF80A3054F8239087F83730B3
:10239000D7F8843053B333F81B8001217A6AFB6A83
:1023A00007F137009847002825DB0544B8F1000FF6
:1023B00006D14846FEF7A6FF00F101081FFA88F88B
:1023C000414648467A6AFB6A9847002813DB054471
:1023D0000BF1010B6AE700BF1C850008409A00085A
:1023E000519000080400000138880008D7F8848064
:1023F000D3E7454648E6054646E600BF014B186070
:10240000704700BF0000002080B505460E46174605
:10241000984602F03DFE034606F076F80446DFF8E3
:102420001890424649F8003039463046A84754F8DB
:10243000090001F027F800BF08000000034A00204F
:10244000536823F002035360704700BF002004E08C
:10245000044A0020136843F010031360024B034A40
:102460001A607047002002404400002000127A00E9
:102470002DE9F047044607464FF00109DFF8508088
:1024800014B93846BDE8F08794FAA4F5B5FA85F595
:1024900009FA05F32E0108EB05156FEA030A24EA91
:1024A00003042B7B002BEBD058F806301B694BB98B
:1024B0004644736804222846196807EA0A0704F0AC
:1024C00016FEDDE7284698470028D9D1F0E700BF7F
:1024D0008888000830B5002289B00F490F4805F000
:1024E0009FFE002200230024CDE906230E230C4D7D
:1024F000CDE903344FF440722846CDE90144094B3D
:102500000949009402F0D6FA0849284605F07BFDF7
:10251000204609B030BD00BF31250008300600203C
:10252000B801002049280008C811002005910008C2
:10253000014802F021BA00BFC80000202DE9F04791
:10254000804620480F4604F0AAFD0646002832D0F7
:1025500000252846BDE8F087237B83B12368DB682C
:102560000BB120469847636883F8069023681B697F
:10257000CBB9636804222046196804F0B8FD01361F
:1025800010345445E8D3B8F1000FE2D0002DDFD06D
:102590002846FFF76DFF0546002FF7D00021642085
:1025A00002F058FDF2E7204698470028E1D009FAEA
:1025B00006F31D43E3E705464FF00109024CDFF83F
:1025C0000CA0DEE72408002088880008988800080E
:1025D000014B53F8200070477C8B000808B5034678
:1025E00008462BB1044A136000F076FC002008BDB9
:1025F0006FF01500FBE700BF0400002010B5044C8D
:10260000237813B9034802F0B7F90123237010BDF2
:10261000C0090020C800002010B504460B4804F093
:102620003EFD5CB1BFF35B8F094B53E8001F0139DE
:1026300043E80012002AF8D1BFF35B8F054805F08C
:10264000FBFDBDE81040044802F096B91C080020CC
:102650002008002030060020C80000200020BFF322
:102660005B8F0146044B53E8000F43E80012002A39
:10267000F9D1BFF35B8F70471C08002070B5FFF7DE
:10268000EDFF0546074C084EB44200D370BD6368A9
:102690005B792BB123685B6813B1294620469847C4
:1026A0001034F1E7888800089888000810B5044CB9
:1026B0000449204604F085FB034B1C6010BD00BF9D
:1026C00078000020688B00081408002000230D4AC1
:1026D00010B513700C4A4FF47A7113600B4A0C4812
:1026E0001360FFF77BFFFFF7E1FF0A4B0A4918462B
:1026F0008B4200D310BD1A1A5C681211013222718C
:102700001033F5E7C10900201C0800202008002034
:10271000B9700008888800089888000801460022DF
:102720000023014804F06EBB78000020014804F04B
:1027300007BC00BF78000020024B0146186804F077
:1027400053BC00BF14080020014804F088BC00BF3F
:102750007800002070B5254B1878002844D0FFF78A
:10276000E5FF054690B1BFF35B8F214B53E8001F97
:10277000013943E80012002AF8D1BFF35B8F1D4CEA
:102780001D4EB44226D32846FFF7D6FF1B4B1C4CE8
:102790001B68002B12DD05F041FD0A220023FEF725
:1027A000BFFBD4E90032C01A40F2E93361EB020109
:1027B000984271F1000101D3FFF760FFD4E90032C4
:1027C00013F57A7342F10002C4E90032BDE87040AB
:1027D000FFF7BABF63685B7923B1236829462046B7
:1027E0001B6898471034CCE770BD00BFC0090020BB
:1027F0002008002088880008988800081C0800200D
:102800002806002070B50D4D297861B90120FFF729
:1028100095FE0B4C0B4EB44206D3FFF79BFF0028EE
:10282000FBD101232B7070BD63685B791BB12368FA
:1028300020469B6898471034EDE700BFC10900208F
:10284000888800089888000800212DE9F04708468C
:10285000FFF774FE044658B34FF4FA784FF00009BE
:1028600005F052FE1B4B1C4A1B58136033B11B4B27
:102870001B68092B02DD1A4802F07EF80025194F6B
:10288000DFF85CA044B12046FFF7F2FD044618B91A
:102890004FF0FF384FF0FF39FFF75CFF064628B9CD
:1028A000B5B942464B46504602F08AF83546E9E74C
:1028B0004FF0FF384FF0FF39D2E72B689B691BB10F
:1028C00000222846114698471035BD42F5D3E8E767
:1028D000054DFAE708000000180800202008002035
:1028E000C8000020988800088888000813B5184898
:1028F00004F0D5FB174B1B7873B1EFF31184102351
:1029000083F31288BFF36F8FFFF724FF84F31188DE
:10291000BFF36F8F02B010BD0F4B1B68002BF9D0B7
:1029200050B9002200230D48CDE9002342F2107275
:10293000002302F005FEEDE70928EBD1074805F07A
:102940007BFC074802B0BDE8104002F015B800BF9C
:1029500020080020C10900201808002030060020AF
:10296000C800002010B5064B04461B689847214656
:10297000A060044804F0C5FABDE81040FFF7B6BFF8
:102980000400002078000020044A054B9B1AB1EB9C
:10299000D30F34BF52F83100002070473888000848
:1029A000888800082DE9F04F8FB0C1F34A2804AFA2
:1029B0000D469146B8607B600C0DB8F1000F63D0F6
:1029C00000264FF0040B4FF00A0A07F11403C7F872
:1029D0000C80C7E907667E620193CDF808B0CDF898
:1029E00000A007F11C0332464846F968FFF722FBB6
:1029F000B0F5006F03461CD36C468AB0D9F80410BA
:102A000004AB26481A46C3E9050140F2FF71D961BB
:102A10004FF400711984224B42F8103F4FF41251C9
:102A200033462048FFF7BEFFA5462C37BD46BDE81C
:102A3000F08FC0F30A0804F11700184420F00700D3
:102A400080083B60FFF76AFE68F35325044690B1A7
:102A50003B6800F11001C7E9083607F11403F9617A
:102A6000CDE900A3CDF808B048460F4AF96807F150
:102A70001C03FFF7DFFA68F353252A4620467B68DC
:102A8000B96804F053FBD0E704F1170020F0070009
:102A90008008FFF743FE0446EDE700BF1A910008E7
:102AA0000400000158880008017100082DE9F04F6A
:102AB00087B00446DDE9105ADDE91279934698465D
:102AC0000391BFB13B46524610210020CDF8009043
:102AD000CDF81490FFF7DCF8B0F5006F06460AD386
:102AE00040F2FF730221174A174807B0BDE8F04FC4
:102AF00004F075BB3E4605F11700304420F0070096
:102B00008008FFF70BFE04F007040BF0070BE4004E
:102B100044EA8B1444EA462444EA0554054640B18D
:102B20003FB13B4652463146CDF800901030FFF79A
:102B3000AFF8434622462846039907B0BDE8F04F58
:102B400004F0F4BA5991000858880008406820B190
:102B5000034BC01A40F3CF0070474FF0FF3070476F
:102B6000388800080EB403B503AB53F8042B0146B4
:102B70000448019300F0A0FD02B05DF804EB03B03F
:102B8000704700BF27720008CA0605D48B064CBFE9
:102B900002490349FFF7E6BF704700BFD48F000822
:102BA000D38F00082DE9F04F89B09A46149B9DF809
:102BB0004CB00693159B04460593169B0D46904614
:102BC000179E0493BBF1000F00F09D8006F4807304
:102BD000079304F08AFA06F00209024600283ED064
:102BE00020469249FFF7BEFF0746B9F1000F08D013
:102BF00016F0440F35D12A4620468D49FFF7B2FF23
:102C0000074406F0010353B18A4B204653F82B20AA
:102C1000894B8A49002A08BF1A46FFF7A3FF06F42A
:102C20008073002B49D006F00803002B63D1B8F164
:102C3000000F66D0424620468149FFF793FF0546C4
:102C4000069B3D44002B6DD1049B002B73D1F307F1
:102C500000F1E58031462046FFF796FFD9E00746B0
:102C6000C3E7784B18680028CAD0774B4FF47A79BD
:102C70001B684FF46161B5FBF3F5B5FBF0F300FBA6
:102C8000135509FB05F5B3FBF1F2B5FBF0FE4FF070
:102C90003C0C01FB123100FB1E55B1FBFCF309FBA0
:102CA00005F5B5FBF0F50CFB131120460091CDE9BD
:102CB00001E56649FFF756FFA2E706F00803EBB10E
:102CC000634B204653F82B206249FFF74BFF054624
:102CD000B8F1000F05D0424620465949FFF742FFA0
:102CE0000544BAF1000FABD0524620465A49FFF7CF
:102CF00039FF0544A4E74FF0000AE1E706F00805B4
:102D0000E6E745469CE7BAF1010F069B06D1002B8A
:102D100065D1049B002B7CD000250CE0002BF8D063
:102D20004E485DE04E48069B22464E4903F0E8FEC1
:102D3000049B002B69D0DFF83081DFF83091049FCD
:102D40003146102F204628BF10274FF0000AFFF70A
:102D50001BFF554546DC059B494620461A78FFF780
:102D600001FF4FF0010A1AF0070F03D14146204638
:102D7000FFF7F8FE57453CD9059B4946204613F816
:102D80000A20FFF7EFFE0AF1010ABAF1100FEAD1AB
:102D90004FF0000A20463649FFF7E4FE5246059BF5
:102DA00020469A5C334B995C11F0970F08BF2E2296
:102DB0003149FFF7D7FE0AF1010ABAF1100F1DD011
:102DC0001AF0070F03D141462046FFF7CBFE5745C7
:102DD0005246E4D841462046FFF7C4FEEBE72048C0
:102DE0005D46A0E741462046FFF7BCFE0AF1010A16
:102DF000AFE720462149FFF7B5FEC4E7059B3B44FA
:102E00000593049BDB1B049399D1BBF1000F7FF466
:102E10001EAF204609B0BDE8F04F04F0F8B92046D7
:102E2000054A0649FFF79EFE14E700BF9691000889
:102E30009A9100088C8B000891910008BF910008BE
:102E4000C29100082C08002028080020A391000847
:102E5000A08B0008C6910008CC9100085D720008A4
:102E600027720008B9360008D9910008D1910008EE
:102E7000DB91000834990008DD910008D791000823
:102E800042F20F7373B58B4228BF0B4605680446A8
:102E9000052168460D4A02F093FB06466368284602
:102EA0000B225B680A4904F0A4F96368324669465C
:102EB00028465B6804F09DF963681B2228465B681E
:102EC000044904F096F902B070BD00BFED9200080D
:102ED000FC910008E091000800210123064A90427D
:102EE00006D8064A01B901231360054B18607047E4
:102EF000012140085B00F2E740420F002808002053
:102F00002C080020F8B50D460446064F4618B4427A
:102F100001D12846F8BD14F8011BBB6801485B6865
:102F20009847F4E7448600082DE9F04706460C462A
:102F300000AF002935D006C9E9468AB06D46A368BE
:102F40004FF0050AA8461F48C5E90723C5E9050152
:102F500048F810AF002342464FF421511A48FFF7BA
:102F600021FDD4E90312CD466369AD461748C5E992
:102F70000723C5E90501C5F810A0002342464FF418
:102F800021511148FFF70EFDCD46E3690121104A9A
:102F90000D4804F024F9A36901210E4A0A4804F0FF
:102FA0001EF9012E07D1EFF305830B4A314606487F
:102FB000103B04F014F92146304601F095FABD4665
:102FC000BDE8F087429200087088000871920008FE
:102FD000A0920008AF920008DD92000808B5034BEC
:102FE0001B689847BDE8084000F026B81000002094
:102FF00030BFFFF7FDBF00BF2DE9F04105460B4E86
:10300000DFF82C80324606EB0807CC1B2046094926
:1030100005F05BFAA01942460021083C05F063FA6E
:103020006C6607F10800BDE8F08100BF00000000F9
:103030000400000098880008054B5A699B689A4272
:103040001FBF044A536843F080535360704700BF6A
:103050009009002000ED00E070B5224C06460D46B8
:103060002148224904F069F9A36AD90638D51E48D7
:103070001F4904F062F91120A36A1A0704D51A48FF
:103080001C4904F05AF91220164CA36A9B0712D56A
:103090001949154804F051F9636BA26A110609D564
:1030A0000121164A104804F09AF81EB1A36A23F0D1
:1030B0008003A36213200B4CA36ADA0704D50A48E5
:1030C0000F4904F03AF91420A36A064ADB0658BFF8
:1030D000A36A936A43F0FF03936200232B7070BDD1
:1030E0001020C9E700ED00E070880008F0920008A9
:1030F00006930008399300084C9300086493000875
:103100007A93000810B5204C2049214804F015F9A5
:10311000A36A990136D51E481E4904F00EF91E20F7
:10312000A36ADA0104D51A481B4904F006F91F20E6
:10313000154CA36A1B0304D51548184904F0FDF883
:103140002120A36A590304D51148154904F0F5F864
:1031500022200D4CA36A9A0304D50D48114904F0AE
:10316000ECF82320A36ADB0304D509480E4904F0D8
:10317000E4F82420044A936A6FEA03436FEA134396
:10318000936210BD1D20CBE700ED00E0999300088D
:1031900070880008B1930008C4930008DE9300080B
:1031A000FC930008219400083B94000870B5244C5F
:1031B00006460D462348244904F0BFF8A36AD90403
:1031C0003CD52048214904F0B8F81720A36A1A0515
:1031D00004D51C481E4904F0B0F81820184CA36A06
:1031E0009B0512D51B49174804F0A7F8A36BA26AE8
:1031F000110409D50121184A124803F0F0FF1EB14D
:10320000A36A23F40043A36219200D4CA36A5A0554
:1032100004D50C48114904F090F81A20A36ADB0584
:1032200004D508480E4904F088F81B20044A936A24
:1032300043F47F43936200232B7070BD1620C5E7D3
:1032400000ED00E070880008669400087C94000897
:10325000399300088D940008A6940008BB940008D8
:10326000D69400082DE9F0418AB0654B0446D3F8A6
:103270000480002600AFC8F3080586F31188BFF369
:103280006F8F02F07F43B3F17F4F07D102F00C0341
:10329000082B12D15B495C4804F04FF800263446F5
:1032A0000023FB71EB1E092B00F28980DFE803F09D
:1032B0000A7F827C87878787878510074CBF0C46EB
:1032C0000126EDE75149504804F037F800234C4DF2
:1032D000FB71EB6A9A0705D54D494B4804F02DF870
:1032E000002332E0EB6A002B01DA4A49F5E7EB6A8A
:1032F0005B00F5D54849444804F01FF86B69A269A2
:1033000043F480736B61BFF34F8FBFF36F8F6B69B3
:1033100032F8022C23F480736B61BFF34F8FBFF33D
:103320006F8F4DF602739A4208D0AB6ADBB273B36B
:103330000120F91DFFF790FE034606E023680121F6
:10334000364A314803F04BFF2368FA79DAB907F1BE
:10335000080504F1200C2A4620686168083403C27D
:1033600064451546F7D17A6A002E44D0C2F30801AD
:1033700021B96FEA52226FEA42227A62184607F1B7
:103380000801FFF7D1FD2837BD46BDE8F081AB6AE3
:1033900013F47F4F04D00120F91DFFF707FFCBE79F
:1033A000AB6AB3F5803F9BD3FFF7ACFEC4E70020C8
:1033B000F91DBFE70020F91DEFE719498DE7194A0C
:1033C00018F4F87FE8468AB0174B18BF13466A46D0
:1033D0001649103DC2E905134FF400731384144BD2
:1033E000D56142F8103F00234FF411510648FFF712
:1033F000D9FAC54674E722F4FF7222F00102BCE755
:1034000000ED00E01C950008708800084795000852
:103410005E9500087F9500088D950008AC95000822
:10342000C895000803950008EE940008EC95000884
:1034300004000001024A536943F0100353617047CE
:1034400000ED00E0EFF30880EFF3098101B572466B
:10345000FFF708FF01BD00BF102080F31188084866
:103460004FF40061401880F30988EFF314800221C3
:10347000084380F31488BFF36F8F00F091F80000C9
:10348000C8140020084B9B6883420BD1EFF30583DF
:1034900043B1064B5A6842F080525A605A6A22F48D
:1034A00000425A6204F07FBE9009002000ED00E067
:1034B0006FF00A01084A9368D966084998664B6814
:1034C00043F080534B60002383F31188BFF36F8F69
:1034D0009368D86E704700BF9009002000ED00E0AF
:1034E00012498A684FF030001044EFF3098C80E8ED
:1034F000F01F102080F31288BFF36F8F0C4F4FF036
:1035000000664A698A603E604FF0640414192068BE
:10351000084C2060906E0023936680F3118802F1BE
:10352000300090E8F01F8CF3098870479009002064
:1035300004ED00E0540800201EF0040F0CBFEFF370
:103540000880EFF30980816911F8021C0229FFD07D
:1035500001B503F0EEFE01BD40B2002807DB0123F8
:103560004109034A00F01F00834042F821307047B0
:1035700000E100E040B2002801F10101ACBF00F120
:103580006040064B4FEA0111C9B2ABBF00F5614084
:1035900000F00F0080F800131954704714ED00E09C
:1035A00008B5094B094A23F0604323F07F03936079
:1035B000BFF34F8FBFF36F8F01F082F801F0F4FD7E
:1035C00000F048F801F0BCF80000000800ED00E051
:1035D00042F8203C009B0B4942F81C3C019B21F027
:1035E000010142F8183C029B42F8081C42F8143CC6
:1035F0004FF0807342F8043C0023203A0265836652
:10360000704700BF0924000800B50D4B15469860AF
:10361000426E0C4B0E461A602C4686F309884FF01A
:103620000000054B984720464FF000014FF0000284
:103630004FF00003014C20474B7300080924000899
:1036400090090020540800201022014B1A61704795
:1036500000ED00E0002310210348C21801332B2B9A
:1036600082F80013F9D1704700E100E008B5EFF3EC
:103670000583064A103B02EBC30152F83300496848
:103680008847BDE80840FFF7D7BC00BF8086000828
:1036900008B5024B1B689847002008BD5808002059
:1036A000034B044A1860937843F002039370704709
:1036B0005808002014000020F0B587B007460E46D9
:1036C00014460021102268461D4604F00CFF022318
:1036D0008DF80230054B2A4621466846CDE904762E
:1036E000019302F033F807B0F0BD00BF7373000818
:1036F00008B50649064821F00701C1F1005202F55C
:10370000A04203F0C0F9002008BD00BFCF21002077
:103710005C0800202DE9F041054600244FF0010827
:103720000D4E0E4F2B78E2B298181F280DDC7269EF
:1037300008FA00F333EA020207D1736157F8303018
:103740001BB107EBC002516898476A780134E3B2B5
:103750009A42E7D2BDE8F0810004014068080020E9
:10376000044B184400230133994200F8012BFADC82
:10377000704700BF5000002010B4064B0246185698
:103780000123054993400C6823430B6010BCFFF7ED
:10379000E3BE00BF50000020000401401F2806DCEB
:1037A0000122034982400B6823EA02030B60704741
:1037B0000004014003292AD8DFE801F0020E141F9B
:1037C0000122134B8240996821EA02019960D9686D
:1037D00021EA0202DA60704701220D4B82409968AB
:1037E0001143F3E701220A4B8240D9681143D960A3
:1037F000996821EA02029A607047012303FA00F0F7
:10380000034B9A6802439A60DA681043D8607047A5
:103810000004014030B50A4B53F830408C4204D1CB
:1038200003EBC0056D68954205D034B943F83010FC
:1038300003EBC0035A60002030BD6FF00F00FBE7C0
:10384000680800200022034B43F8302003EBC0033C
:103850005A60704768080020104B18680B68052BE9
:103860000BD883B1023B032B04D8DFE803F002112D
:1038700002140020106000207047182BFAD01C2B77
:1038800004D0142BF6D06FF0850070474008F1E7A4
:1038900049F64040EEE70248ECE700BF4400002054
:1038A00000127A00F8B53C4F03F02DFE384603F0C5
:1038B00029FE00F0BDFD394C394A63681578C3F321
:1038C0000313D35C47FA05F520FA03F6AE4202D2A1
:1038D000284600F0D3FD236843F480232360236847
:1038E00043F48033236023689B03FCD5636A43F071
:1038F00001036362636A9807FCD5636803F00C03F5
:10390000082B15D12368990706D4236843F00103D7
:10391000236023689A07FCD5636823F00303636080
:10392000636813F00C0FFBD1636823F0F00363604E
:10393000236823F08073236000F036F8236843F097
:103940008073236023689B01FCD5636823F0F00338
:103950006360636823F0030343F0020363606368FA
:1039600003F00C03082BFAD1AE4202D3284600F034
:1039700085FD0C4B00201F60636823F4E06343F473
:1039800080636360636823F460536360636823F457
:1039900040436360F8BD00BF00A24A04001002402B
:1039A0001198000844000020054A536823F47C1352
:1039B00043F4E8135360536823F480035360704763
:1039C0000010024008B5074804F0C8FA38B10648AC
:1039D000FFF766FE0448FEF711FD002008BD6FF0FA
:1039E0001200FBE744860008ED3900080A2838B5C4
:1039F0000446074D04D1AB680D2128465B68984703
:103A0000AB6803485B68E1B29847204638BD00BF09
:103A10004486000838B5036904465860084D2846B6
:103A200004F09CFA40B16168AB6828461B680C3111
:103A3000984700EAE07038BD6FF01200FBE700BF66
:103A4000A485000870B50C461146B1F5001F1E464E
:103A50004568026923D10F2304F003020432920067
:103A6000934043EA94032E49DAB2023251F82220FD
:103A7000190C02EA134391FAA1F2B2FA82F2D3408E
:103A8000AA689A4209D12046FFF788FE2046FFF730
:103A9000D9FE00212046FFF78DFE002070BDB1F554
:103AA000800F34D020461F49FFF7B4FE90BBB6F11B
:103AB000806F28D0B6F1C06F27D0B6F1007F2CD12F
:103AC00002210F2204F0030304339B009A4042EAD0
:103AD0009402D3B29B0003F1804303F580339E68C8
:103AE000A86826EA1246150C95FAA5F2B2FA82F2F7
:103AF00000FA02F2324320469A60FFF75BFE20464E
:103B0000FFF73AFEC9E70121DBE70321D9E76FF0B0
:103B10008500C3E76FF00F00C0E76FF01500BDE749
:103B2000000001401F76000810B502694368126A60
:103B3000DB68C2F34202012A04D0022A21D06FF0CE
:103B4000150010BD1F4A5868B1FBF2F220F03F008B
:103B500010435860186A013220F03F0002431A6295
:103B6000194AB1FBF2F140F6FC72114208BF042180
:103B7000DA69002022F44F4222F0FF020A43DA61A0
:103B8000DFE7104A4FF49674B1FBF2F2586820F068
:103B90003F00104362434FF47A74B2FBF4F2586072
:103BA000186A013220F03F0002431A62074A91422C
:103BB00085BF0132B1FBF2F148F2010141F400414D
:103BC000D6E700BF40420F00400D03007F4F1200B8
:103BD00008B50121034A044803F0F8FA6FF0040025
:103BE00008BD00BF929600084888000898B5426852
:103BF0000369D26800AF83F84E1029B9136823F027
:103C00001A031360BD4698BD6C468AB06A460368C5
:103C10000848D161C2E905034FF400731384064BD1
:103C200042F8103F00234FF411510448FEF7BAFE4A
:103C3000A546E7E7B09600080400000148880008A0
:103C4000F7B500224368044606691C480F46DD6844
:103C5000596883680192DB684BB90121184A1948F9
:103C600003F0B4FA6FF00404204603B0F0BD01AADB
:103C700098470028F1DB376206F110074FF0FF325A
:103C80004FF0FF33384600F09BFE2B68204623F0B0
:103C900001032B6096F84E10FFF7A8FF204601990C
:103CA000FFF742FF96F84D3004461BB12B6843F0F6
:103CB00001032B60384600F05FFED5E7A4850008BD
:103CC000C4960008488800082DE9F7430446466872
:103CD00005694FF000094FF0FF320021284604F03B
:103CE00080F920463368984785F84C9085F84E90C7
:103CF000012205F11000114604F073F9394F3846DE
:103D000004F02CF950B90121374A384803F05EFA23
:103D10006FF01204204603B0BDE8F083D4F80480AD
:103D20004946D8F8140001AA03F0FBFF031E07DB85
:103D3000019B4A461979186800F06AF8031E2BDACD
:103D400001212B4A294803F04AFAF3681A6842F421
:103D500000421A601A6822F400421A603369254A48
:103D6000934232D026D8244A934230D0234A9342F9
:103D70002FD00121224A1D4803F028FA00212046B5
:103D800041F01001FFF75CFF041E26DA01211D4AF5
:103D9000164803F01BFABDE7BB6838461B68D8F825
:103DA000041098470028D0D00121174A0F4803F08B
:103DB0000DFACAE7154A93420DD002F5C31202F577
:103DC00020629342D5D10A21D9E70621D7E7022103
:103DD000D5E70421D3E70821D1E70123002485F8A2
:103DE0004C3097E7A4850008F29600084888000840
:103DF0001197000840420F00A0860100801A0600BB
:103E00004B970008669700082F97000840E13300A1
:103E10002DE9F34703680446C3F38F25C3F38923D1
:103E2000FBB101228A4223D3324A15F0010F906977
:103E300040F00100906192694FEA132002F0010204
:103E40000192019A2C4AC3F3440300FA03F009BF1C
:103E50005368D369034343F0E06316BF03435360E1
:103E6000D361264F04EBC106A64209D1002019E018
:103E700054F83200C0F38920984238D10132D1E79A
:103E8000D4E9002512F003090FD145F04105C2F332
:103E9000870AC2F3831257F82280B8F1000F15D1B8
:103EA0006FF0120002B0BDE8F087B9F1020FEED05A
:103EB000B9F1010F07D115F4C07F0CBF45F0020521
:103EC00045F00405E3E745F00105E0E7404604F06E
:103ED00045F80028E4D04B462A4640460AF00F0138
:103EE00003F042FC002804F10804BDDADAE76FF0C1
:103EF0001500D7E70010024000000140E48C0008E4
:103F00000121024A024803F061B900BFC4960008CB
:103F100080880008F8B50C46036941685E6823791B
:103F2000012B33D09A1E55425541AD026279022AC7
:103F300096BF354F4FF4005C37F812C0A279042ABF
:103F400027D0003B18BF01231B03E279012A0A682E
:103F50000CBF4FF440770027A642D1681CD121F452
:103F6000B05129430B43D360136923F4405343EA10
:103F70000C03136143681A68536923F440733B438D
:103F800053613168BDE8F84003F0C1BF4FF4C0652C
:103F9000CCE74FF48053D8E701F4C0618D421FBFD6
:103FA000D16821F4C0612943D160426811680A696F
:103FB00002F4405294451FBF0A6922F4405242EA7B
:103FC0000C020A6142681168CA6802F48052934286
:103FD0001FBFCA6822F480521343CB6043681A683B
:103FE000536903F440739F421FBF536923F4407326
:103FF0003B43536121683368994203D003F087FF44
:1040000023683360F8BD00BFB88E0008F7B50546D9
:10401000466804692E48206003F0A0FF48B92D4A85
:1040200001212D4803F0D2F86FF01204204603B0AE
:10403000F0BD2068F16883681B6898470446E0B9C2
:104040000021306A01AA03F06CFE041EEEDB019B26
:10405000002219791868FFF7DBFE041EE6DB6E68A4
:104060002B6934685F68E36823F40053E360706889
:1040700003F074FF48B9194AD2E70121184A1648DB
:1040800003F0A4F8002CD1DBDAE7D6E9010183685C
:10409000DB6803B1984704F10C0353E8003F43F099
:1040A0000C0304F10C0141E80032002AF3D1394637
:1040B0002846FFF72FFF337D1BB1636943F00803E8
:1040C0006361E36843F40053E3600024AEE700BF9C
:1040D000A4850008F296000880880008CB970008A5
:1040E000AB9700082DE9F0410C464368A6791D689E
:1040F0000369D3F804800B794979012B33D1022964
:104100004CD9042E47D04FF480574FF4C06203239C
:104110008B4240D1002F79D0002A14BF0322042201
:10412000B24238D1E37963B1012B34D13A4B9D428D
:1041300007D0A3F574439D4203D003F580639D42ED
:1041400029D1EB68214623F40053EB60FFF7E2FE30
:10415000EB6843F40053EB6094E8030088E8030045
:104160000020BDE8F081022B08D1022921D9042EBC
:1041700011D04FF480624FF48057C8E702290A46F5
:104180001FD9042E04D133B94FF480571A46BEE725
:1041900063BB0329C4D06FF08500E2E71F4A042EF9
:1041A00032F811C0F7D04FF4C062033B012B10D896
:1041B000F1E71A4A042E32F811C0ECD04FF48062B5
:1041C000F3E7164A042E32F811C016D1002BE2D1C3
:1041D0001A464FF48057BCF5805F13D0BCF5405FA2
:1041E00012D0BCF1000F92D1012391E7033B012BC8
:1041F000D1D90022BFE70022D7E7002BFBD11A4616
:104200001F46E8E7002383E7022381E7002A14BF63
:104210000222032284E700BF00380140B88E000864
:104220004FF0E02310B50F499C691A6908689B6933
:104230000D4902F4803234B993B903464AB90A6889
:104240001044C01A10BD002B08BF03460AB9A34290
:10425000F5D90A6802440A604FF0E0221269EEE7DD
:104260000446F3E78C0900208809002010220A4B3D
:10427000002083F823204FF4E152084B1A60084BCA
:1042800041F61F4218604FF0E0235A6198611A69A5
:1042900042F007021A61704700ED00E08C0900202F
:1042A0008809002010B5FFF7BBFF1049104B0868C4
:1042B000D3E90042001942F10002C3E900020023E1
:1042C0000B604FF4E1530B4AD2E90041001BB0FBF5
:1042D000F3F043431B1941F10001C2E9003101F041
:1042E0003FF8BDE81040FEF7A7BE00BF88090020D8
:1042F00070060020680600202DE9F041DFF8E0801C
:1043000099B1421C0BD14FF0E022136923F0010355
:1043100013614FF07F43C8F80030BDE8F081D8F852
:104320000060012807DC00270BE0431CD8F8006080
:10433000F7D140F6191040F61A139842A8BF184654
:10434000471EEFF31185102383F31288BFF36F8F9D
:10435000FFF766FF4FF0E023224C9969D4E9002370
:1043600080184FF0000243F10003C4E900031E4B24
:104370001A601E4B1A68831A2ED44FF4E15C0CFBB2
:10438000073303F5E0531F33B3FBFCF7131A0CFBA1
:104390000733B3F5806F38BF4FF48063144A9342FC
:1043A00028BF13464FF0E022C8F80030013B906967
:1043B0005361002381429361A1EB000338BF9B1935
:1043C000D4E900125B1842F10002C4E9003285F31F
:1043D0001188BFF36F8FA0E74FF48063E2E700BF5F
:1043E0008C09002070060020880900206806002043
:1043F00020DFFF0038B5EFF31185102383F3128817
:10440000BFF36F8F084B1C68084B1B68E41AFFF75B
:1044100007FF85F31188BFF36F8F4FF4E1532044FA
:10442000B0FBF3F038BD00BF700600206806002026
:104430000D4A536803F00C01082912D10B48C3F34D
:104440008341DB03405C09D55368094AC3F3404309
:104450005043084AD35CB0FBF3F07047064B584317
:1044600070470348704700BF0010024023980008BF
:1044700000127A002198000800093D00D8B10F4BC6
:10448000984216D80E4B984294BF002001200D4A46
:10449000136823F0070303431360136803F0070353
:1044A00098421CBF136803F00703C01A18BF01200D
:1044B00070470220EBE70120704700BF006CDC0270
:1044C00000366E010020024010B50446FEF79AF94E
:1044D00003480121034A02F079FE204603F049FD1A
:1044E00070880008339800082DE9F84304460D460B
:1044F00000AFEFF31188102383F31288BFF36F8F9F
:104500000428294A98BF294BE9468AB09668117C4D
:1045100098BF53F820306A4688BF254BC2E907315F
:1045200040F2013323489384234BC2E9050442F847
:10453000103F00234FF431512048FEF733FACD46A7
:1045400045B1EB69C3F3080323B101211C4A1B48A1
:1045500002F03CFE2EB1304603F058FD08B103785E
:1045600003B91848E9468AB06A46174BD061C2E9D8
:10457000053640F201331384144B42F8103F0023F8
:104580004FF411510D48FEF70DFA2946CD4620464D
:10459000FFF79AFF88F31188BFF36F8F3046FEF75D
:1045A00071FFBD46BDE8F88390090020E48D000846
:1045B000429800085898000805000001708800081B
:1045C0008098000850980008A19800080400000195
:1045D00038B5094B53F82040013053F82050A5421C
:1045E00000D838BD636823B1204603F0CAFC083404
:1045F000F5E723689847FAE7F88D0008012270B5BF
:104600002A4B032086B01A70FFF7E2FF00F0D2FFBA
:1046100003F0D3FC0420FFF7DBFF254C254D264695
:10462000AE4204F1300410D300F056FC204C224E70
:10463000AC4226D300F064FCFDF78EF91F4A137BD1
:1046400023F00103137306B070BD54F80C3C0593BE
:1046500054F8103C049354F8143C039354F8183C59
:10466000029354F81C3C019354F8203C009354E905
:104670000A2354E90C0100F0E5F954F8303C5E657A
:10468000CDE7D4E90A23B3F1FF3F08BFB2F1FF3F02
:1046900005D052EA0301206803D103F0B9FC30349D
:1046A000C6E73146183000F0E1FDF8E7C309002005
:1046B000D8870008388800083D810008E8060020F7
:1046C00008B50348034A0021121A03F072FC08BD22
:1046D000D8000020C8090020702370B5134E0122B5
:1046E00003FB0066002386B0CDE904230F2201936B
:1046F000CDE9023214230E4D0E4903FB005504464A
:1047000001EB00214FF4807230460B4B009500F016
:1047100099F9737B2C7423F004037373074B0134F2
:1047200003EBC423EE606B6006B070BD780600201A
:1047300090090020C81C0020BD7F0008C81400207C
:10474000BFB50020FFF744FF294B83F30888294CAD
:1047500000256369284E43F400736361F02384F8F5
:104760002230E57725766576A57684F82050636A51
:10477000224F43F4E0236362FEF75CFEFEF764FF22
:104780004FF0FF33A362E362FDF7A0FF40F2011296
:104790001B4B1C4C9A81B3601D6603F0DEFB0120AD
:1047A000FFF716FF0220FFF713FF00F0C9FB164BBF
:1047B00074610593012315494FF48062CDE90353D9
:1047C00020463B46CDE90155009500F03BF90646F1
:1047D000627B204622F00402627303F055FC2846F7
:1047E000FFF77AFF3A4631462046FEF70DFF00BF3D
:1047F000C81C002000ED00E090090020FD450008E5
:1048000058070020E806002003990008C81D002072
:104810002DE9F341044617461E46EFF31188102395
:1048200083F31288BFF36F8FC368334A7BB180680C
:104830009168884219D057EA060318D188F3118885
:10484000BFF36F8F6FF00F0002B0BDE8F081916889
:1048500091F90E100133E36093682161A36088F33E
:104860001188BFF36F8F0020EEE72169F2E791F91D
:104870000E1090F90E306FF07E029942A8BF1946D3
:104880009142B8BF11468B422DDD03F0A2FB0546D5
:1048900022464146CDE90076184800F047FA002844
:1048A000E1D0EFF31186102383F31288BFF36F8FEB
:1048B000A068D0B1236821699C420AD04BB193F91A
:1048C0000E309942A8BF19466FF07E039942B8BFD7
:1048D000194603F07EFB40B13146084800F0B8FAB3
:1048E0006FF00A00B0E70025D2E7002DF4D186F37F
:1048F0001188BFF36F8FF3E790090020C4090020EF
:1049000038B58368044663B3194A926893422BD141
:10491000C368012B03D9013BC360002038BDEFF30E
:104920001185102383F31288BFF36F8F01698068AC
:1049300003F04FFB204603F01BFCA06058B190F938
:104940000E2022610022C26603F09EFB2946094820
:1049500000F07EFAE1E7E06085F31188BFF36F8F26
:10496000DBE76FF01500D9E74FF0FF30D6E700BF67
:1049700090090020C409002038B50446EFF31185E2
:10498000102383F31288BFF36F8F03F0F1FB48B15C
:104990000022C26603F078FB2946BDE8384007488C
:1049A00000F056BAD4E902329A4218BF0133A3602C
:1049B00085F31188BFF36F8F38BD00BFC409002095
:1049C00013B5EFF31181102484F31288BFF36F8FB6
:1049D000846844B1013C846081F31188BFF36F8F18
:1049E000002002B010BD52EA030406D181F3118801
:1049F000BFF36F8F6FF00F00F3E7CDE9002302469E
:104A0000014800F093F9ECE7C409002070B50446B2
:104A1000EFF31185102383F31288BFF36F8F6FF0CC
:104A20000A06204603F0A4FB18B1C66603F02CFB6F
:104A3000F7E7A0602946BDE87040014800F008BAD9
:104A4000C40900202DE9FF41984600F15803C0E950
:104A500016330E9B002603730423D51D437325F0E4
:104A600007050D9B0D440F4683732946C0E9066672
:104A70008660C6730446FEF7BFFA0C9B07300293AC
:104A80000B9B20F0070001930A9B2D1A00932A46E6
:104A9000434639462046FEF79BFD054B66659B68FD
:104AA00003B11B6E2846236604B0BDE8F08100BF49
:104AB00090090020F0B5002587B00595109DDDE92F
:104AC000127604950F9D044603950E9D02950D9D4B
:104AD00001950C9D0095FFF7B5FFB6F1FF3F08BFAC
:104AE000B7F1FF3F05D056EA070305D1204600F095
:104AF000C1F9204607B0F0BD3A463346024904F1F9
:104B0000180000F0B3FBF4E73D81000838B50D4D07
:104B10002B4653F8184F9C4200D004B9EC68AB68A0
:104B200038B95A7BD20604D1A26912B9DA897F2A30
:104B300005D89C4202D0204600F0DEFA23466B6185
:104B400038BD00BF9009002008B590F90D2001463E
:104B5000002A437B04DA03F07F03437303F05AFA1D
:104B6000044B9868431A58425841BDE80840FFF783
:104B7000CDBF00BF9009002070B490F90D30427B8A
:104B8000002B29DBD30627D183692BBB134962F0A5
:104B90007F0242730A4652F8184F944218BF2346C8
:104BA000CC6923B9C0E900242060C8610CE090F909
:104BB0000E5093F90E60B5420AD0AE4208DD5A6835
:104BC000C0E9003210605860002070BCFFF79EBF43
:104BD0009C42E7D01B68E4E770BC70479009002056
:104BE000002A2DE9F0410E460CBF10210821427B1E
:104BF000044611420FD141EA0203D20918D143738E
:104C000008291BD00120FFF781FFBFF35F8F637B73
:104C100023F060036373264B9B68A34241D1EFF3FB
:104C20000583002B3DD13046BDE8F041FEF740BC86
:104C300003F07F03437303F0EDF9E1E7A36813B1D9
:104C4000204603F0EFF904F1180003F0CEFAA56D49
:104C500004F15807AF4211D04FF0000875B1284653
:104C600003F0E0F905F1180003F0BFFA2846C5F893
:104C70006C80FFF781FFA56DAF42EFD10C4DAB68A3
:104C80009C42BFD1EFF30583002BBBD00120FFF77F
:104C90003DFF40F20112074B9A810022AB601A6679
:104CA000B3E786F31188BFF36F8FBDE8F08100BFD3
:104CB000900900205807002070B590F90D2001469A
:104CC000002A437B04DA03F07F03437303F0A2F965
:104CD000154A4B7B104663F07F034B7350F8183F27
:104CE000D469834208BF002323B9C1E900042160CD
:104CF000D1610CE091F90E5093F90E60B5420ED0DF
:104D0000AE420CDD5868C1E900300160596090681E
:104D1000BDE87040431A58425841FFF7F7BE9C4225
:104D2000E3D01B68E0E700BF90090020F8B5124B04
:104D30000C46DDE9067611469868104A1060EFF3DC
:104D40001182102282F31288BFF36F8F9D6828466C
:104D500003F072F9B6F1FF3F08BFB7F1FF3F06D08D
:104D60003A463346064905F1180000F07FFA20461E
:104D7000BDE8F840FEF79CBB90090020B009002078
:104D80003D810008F8B50446EFF31186102383F344
:104D90001288BFF36F8F437B49B2DA0619D1856958
:104DA000BDB903F07F03437303F034F9437B274A13
:104DB00063F07F0343731346817353F8180F9842CF
:104DC00018BF0546D06945B9C4E900300460D46114
:104DD0000EE09B0719D4A17336E095F90E70B94225
:104DE0000FD08F420DDD6B68C4E900531C606C600E
:104DF0000120FFF78BFE012086F31188BFF36F8F30
:104E0000F8BDA842E0D02D68DDE7A568204603F094
:104E100001F9A1732B689D4209D16B68C4E9005365
:104E20001C606C6010E06A689342F6D01B68002B2F
:104E3000F3D093F90E209142F5D08A42F3DD5A68FF
:104E4000C4E9003214605C600020D5E790090020BE
:104E500049B9EFF3058030B9054B5A699B689A420E
:104E600001D0FEF725BB81F31188BFF36F8F704728
:104E70009009002010B5EFF31184102282F31288FC
:104E8000BFF36F8F427B510704D484F31188BFF3C3
:104E90006F8F10BD22F004024273FFF76DFE2146B2
:104EA000BDE810400148FFF7D3BF00BFC409002090
:104EB000034648B9EFF3058232B9064A5169926850
:104EC000914201D0FEF7F4BA83F31188BFF36F8FDC
:104ED000704700BF90090020EFF31181102383F386
:104EE0001288BFF36F8F054B9A68D37B013BD37356
:104EF00081F31188BFF36F8F704700BF90090020C6
:104F000038B5EFF31185102484F31288BFF36F8F47
:104F10000A4B00209A68D37B0133D373FFF7F6FD69
:104F200085F31188BFF36F8FEFF3118084F312883C
:104F3000BFF36F8FBDE83840FFF7BABF900900207C
:104F4000024B03F11802C3E90622704790090020C2
:104F5000F8B5EFF31185102383F31288BFF36F8F39
:104F600019498868437B03F07F03437303F052F8C9
:104F700008468B685A7B62F07F025A7350F8182FEC
:104F8000CC69824208BF002222B9C3E90004236031
:104F9000CB610CE093F90E6092F90E70BE420ED018
:104FA000B7420CDD5168C3E900210B60536001205A
:104FB000FFF7ACFD2846BDE8F840FEF779BAA242FB
:104FC000E3D01268E0E700BF9009002050EA010337
:104FD0002DE9F04105460E4603D1FFF7B9FF002049
:104FE0002BE0831C71F1FF3329DB03F013F92C183C
:104FF000EFF31188102383F31288BFF36F8F124FE2
:10500000124BB8681860FFF79FFDB86810492A4630
:105010003346183000F02AF9BA684046537B43F013
:1050200010035373FEF744FA03F0F4F8201A63EB0D
:105030000303012873F10003D1DBBDE8F0816FF0B9
:105040000104241AD4E700BF90090020B009002011
:105050003D810008B1F1FF3F08BFB0F1FF3F08B547
:1050600006D10A4B986803F01EF84FF0FF3008BDD8
:10507000FFF7ACFFC11709304FF00A024FF00003F1
:1050800041F10001FBF74CFFF1E700BF9009002060
:10509000014B9868704700BF900900200122044B23
:1050A000C01A044BC0105843034B1A54704700BF3A
:1050B000C8070020ABAAAAAAC4090020C3897F2B75
:1050C00012D80A4B1B6863B1094B90F90E201B687C
:1050D0009A4209DB437BDB0606D1064BC31A18BF95
:1050E000012303F0010070470023FAE7B80900200C
:1050F000B40900207806002070B50E4B0E4C1E7CC3
:10510000182303FB06440546204603F06EF80022F0
:105110000A4B28469A55FFF7D1FF48B1084B204665
:10512000BDE870401A680749013AD31700F09EB8ED
:1051300070BD00BF90090020C8070020C4090020EE
:10514000B80900209D50000838B5EFF311851023F1
:1051500083F31288BFF36F8F104B114A9C6810685D
:10516000A04206D1FFF7C8FF85F31188BFF36F8F08
:1051700038BD00211B7C11600A4AD35C002BF3D0A0
:105180002046FFF79BFF0028EED0637BDB0602D1B1
:105190002046FFF791FD2046E4E700BF900900207C
:1051A000B0090020C4090020074808B5074A08498B
:1051B000121A02F000FFBDE808400648064A0749F7
:1051C000121A02F0F8BE00BF00000020D800002034
:1051D000409A00080000002000000020409A0008CB
:1051E000034B1B680BB9FFF705B90020704700BFE0
:1051F000BC09002030B570B10B4B5B6898420AD0F7
:10520000036843B1D3E90421D0E90445121941EB05
:105210000501C3E90421D0E9003213605A6000237C
:10522000C0E9003330BD00BF4800002010B50E4B70
:105230001C689C4204D1FFF7D3FF6FF0004010BD03
:10524000FFF7CEFF002CF8D0D4E904321B1A62EB32
:10525000E072B3F1004F72F10001EEDA002AACBF48
:1052600018460020EBE700BF48000020B3F1FF3FE5
:1052700008BFB2F1FF3FF8B504461D4616465ED0A2
:105280008160EFF31187102383F31288BFF36F8FD0
:10529000013275F1FF3324DA6FF001032D49D1E9B2
:1052A00000209B1A4FF0FF3262EB00009E1B60EB68
:1052B0000500012E70F1000301DA01260020C4E987
:1052C0000460254ED6F800C07568B44508BF4FF09D
:1052D000000CBCF1000F0DD1C4E900652C607460B6
:1052E0001CE0FFF77DFF013645F10005361845EB60
:1052F000E070E4E7DCE90420D4E90431934271EB87
:10530000000E1DDAD21ADCF8043060EB0100CCE9A3
:105310000420C4E900C31C60CCF804403368B342E5
:1053200009D09C4207D10D4B1C6824B9FFF77EFFC2
:105330002146FEF7E1FF87F31188BFF36F8FF8BDB9
:105340009B1A61EB0001AC45C4E90431C4D0DCF820
:1053500000C0BEE7E007002048000020BC09002094
:105360002DE9F84FEFF3118C102383F31288BFF36C
:105370006F8FDFF8B0A0DFF8B0900024C9F800000C
:10538000DAF800000025504508BF0020274FE0460E
:10539000D7E90021D9F8003078B3D0E9046C4FEA9E
:1053A000E37EB3427EEB0C0B05DAF61A6CEB0E04CF
:1053B000C0E9046421E0B21841EBE671C0E904459C
:1053C000C7E90021FFF716FF88F31188BFF36F8F3D
:1053D00083689847EFF31188102383F31288BFF393
:1053E0006F8FD9F80030DAF800009B1B5045C44697
:1053F000C9F80030CBD1D7E9002100249A1841EB3D
:10540000E373C7E90023C9F80040FFF70FFF214607
:10541000FEF772FF88F31188BFF36F8FBDE8F84F76
:10542000FFF792BE48000020BC090020E0070020E2
:1054300010B5EFF31184102383F31288BFF36F8F3D
:10544000FFF7CEFE0346054AD2E90001181841EBEA
:10545000E37184F31188BFF36F8F10BDE007002064
:10546000F8B50446EFF31187102383F31288BFF3D6
:105470006F8F026822B187F31188BFF36F8FF8BD79
:10548000D0E90A36581C46F10001022871F10001EA
:1054900027D3012B76F10001BCBF012316465D1E08
:1054A00046F1FF3602F0BAFE013041F10001401929
:1054B00046EB0101012871F1000139DB02F0AEFE7B
:1054C000013041F100016FF00102401946EB010388
:1054D0004FF0FF31121A61EB030320461749FFF723
:1054E000C5FE236B01332363236A6BB187F31188F5
:1054F000BFF36F8F2046236A9847EFF3118710237D
:1055000083F31288BFF36F8F54F8185FA542B2D0AF
:10551000002DB0D0284602F0DFFD0023EB6687F3B4
:105520001188BFF36F8F2846BDE8F84002F0ACBD8C
:105530006FF001024FF0FF33CFE700BF6154000866
:105540002DE9F04105461C4690461F46EFF31186B3
:10555000102383F31288BFF36F8FB4F1FF3F08BFAE
:10556000B2F1FF3F05D186F31188BFF36F8FBDE81D
:10557000F081531C74F1FF3309DB012A74F100033D
:10558000BCBF0122002412F1FF3844F1FF37284646
:1055900002F02BFEDDE906010023C5E90A012B63B9
:1055A00042463B4628460249FFF760FEDBE700BF64
:1055B00061540008014801F0FBBA00BF0B990008D4
:1055C0000CB430B589B005460C461C22002101A858
:1055D00002F089FF02238DF806300E4B05950293E9
:1055E00023462CB1B4F1004F28BF4FF00043013BDC
:1055F0001D440DAA0C9901A80695009200F0A6F88A
:1056000014B10022059B1A7009B0BDE8304002B009
:10561000704700BFF78400082DE9F04101260746D6
:10562000B24201DCBDE8F0813B461F4613F8014B56
:10563000002CF7D0252CF8D11C780237252CF3D07C
:1056400000239C461D46DFF800811F2D18D8A4F1C9
:10565000200EBEF1100F09D9A4F1300EBEF1090FD2
:105660001ED80A24202504FB03E304E028FA0EFEDA
:105670001EF0010F06D017F8014B002CE5D128E0F1
:105680007F2D1CD8A4F1300EBEF1090FE9D9242CCE
:1056900010D1BCF1000F46D0B34246D00023EAE758
:1056A00024F0040EBEF12A0FF8D06C2C09D145F07D
:1056B0008005E0E724F0040EBEF12A0FEED06C2C3A
:1056C00022D06C2C1BD8682C23D06A2C28D04C2CD0
:1056D00026D0BCF1000FA5D0B445A1D144F02007DD
:1056E000A7F1650CBCF1020F0B6801D9612F1ED127
:1056F000073323F0070308330B6001368FE7742C60
:10570000B9D07A2CB7D0E4E72C0648BF45F4007531
:10571000CDE7EC0548BF45F4007545F48075AAE770
:1057200045F42075A7E79C46B8E76324D6E7692CC3
:1057300002D007D8632C03D02F0601D5AC05D7D4EF
:105740000433D9E7732CF6E7892801002DE9F04FDF
:10575000436895B00393837880469B07CDE90A128E
:1057600011D50B4600260D921F7877B1252F10D04A
:105770000133099341463846039B9847002806F1B8
:10578000010680F22C854FF0FF36304615B0BDE89B
:10579000F08F5F789A1C252F0992EBD000242546C4
:1057A000A246A346BBF11F0F32D8A7F12003102B4E
:1057B0000AD8DFE803F02409092A0909091B0909A5
:1057C0000922092709091900A7F13003092B2DD94E
:1057D0002A2F39D154B90D9B1BF0400F53F8042BDD
:1057E0000D9329D0154601E04BF0010B099B13F8EE
:1057F000017B0993002FD5D156E04BF0020B4BF003
:10580000040BF3E74BF0080BF0E74BF0100BEDE760
:10581000BBF17F0F3FD8A7F13003092BD8D81BF07D
:10582000400F03D00A2202FB0535DFE70A2202FB04
:105830000A3A4BF0200BD9E7B2F1000AF9DACAF1C3
:10584000000A4BF0280BD1E72E2F05D11BF0400F9B
:105850009BD14BF0400BC9E7242F1CD1002C00F04A
:105860008A800B9B1BF0400F0D930AD152460A9879
:105870000DA9FFF7D1FE0D9B1A1DD3F800A00D92C4
:10588000B4E72A460A980DA9FFF7C6FE0D9B1A1D1C
:105890001D680D92AAE76C2F5AD052D8682F5FD09E
:1058A0006A2F65D04C2F63D034B10B9B22460A98E7
:1058B0000DA90D93FFF7B0FE002D47F02003B8BFF0
:1058C0002BF0400B0793A3F16503BCBF00251FFA23
:1058D0008BFB022B54D947F02003612B40F06183EE
:1058E000FF4307F0200308930D9B073323F00703C2
:1058F00003F108020D924BF4C05204921A6805920B
:105900005A68DDF814C0C2F30A57C2F3130047EA1D
:105910000C0353EA000401460BF040044FEAD27234
:105920005AD13027D2B28DF83D708DF83C20A7B205
:10593000002C00F0BF810C2D4FF000075EDD0D251F
:10594000B3E0742F3FF452AF7A2F3FF44FAFABE781
:105950001BF0800F18BF4BF4007B4BF0800B45E72A
:105960001BF4807F18BF4BF4007B4BF4807B3DE73A
:105970004BF4207B3AE725465446AB46AA4635E72A
:10598000FF4307F0200308930D9B1BF0400F03F12A
:10599000070323F0070303F10802D3E90001079B83
:1059A00008BF0625652B0D9240F098810022144611
:1059B0006B1CDBB24BF4805B112B28BF1123CDE9AC
:1059C00000240EAA00F0AAFCC3B2059302230E9F86
:1059D000CDF810B0069380E0002F00F03A8131231B
:1059E000D2B28DF83D30A7F2FF378DF83C20A3B23C
:1059F000002C00F056810C2D00F355810123C5F1D8
:105A00000D01890001F1FF39A1F12104C1F1210E3D
:105A100023FA0EFE03FA04F403FA09F344EA0E042F
:105A200013EB030E44EB0409DEF1000BCDF818B0C4
:105A300069EB490BCDF81CB0DDF814B01EF1FF3E48
:105A400049F1FF390EEA0B0E09EA0009734574EBC0
:105A5000090912DBC1F12009B1F1200E00FA09F9A0
:105A60002BFA01F141EA09015CBF40FA0EFE41EA5E
:105A70000E0111F0010F00F0EF800599CB1840EBFB
:105A80000400B0F5801F9C46C0F2E6809DF83D10F2
:105A9000B7F5806F01F101018DF83D1000F0E8804D
:105AA000069A07991A40134601400D20089AC2F140
:105AB000570403F00F021B0943EA01730911002A7E
:105AC00040F0FD80854280F2FC800138F1D10E2348
