:020000040800F2
:10000000C0180020D51C000859180008C11C0008A1
:10001000C11C0008C11C0008C11C00080000000031
:10002000000000000000000000000000B51D0008F6
:10003000C11C0008000000005D1D0008212B000805
:10004000E91E0008E91E0008E91E0008E91E000874
:10005000E91E0008E91E0008E91E0008E91E000864
:10006000E91E0008E91E0008E91E0008E91E000854
:10007000E91E0008E91E0008E91E0008E91E000844
:10008000E91E0008E91E0008E91E0008E91E000834
:10009000E91E0008E91E0008E91E0008E91E000824
:1000A000E91E0008E91E0008E91E0008E91E000814
:1000B000E91E0008E91E0008E91E0008E91E000804
:1000C000E91E0008E91E0008E91E0008E91E0008F4
:1000D000E91E0008E91E0008E91E0008E91E0008E4
:0C00E000E91E0008E91E0008E91E0008E7
:1000EC0053B94AB9002908BF00281CBF4FF0FF3193
:1000FC004FF0FF3000F00CB8ADF1080C6DE904CEF8
:10010C0000F008F8DDF804E0DDE9022304B07047E4
:10011C00704700BF2DE9F04786468C4608461546C9
:10012C0074461946089E002B40F0C2808542B2FAF4
:10013C0082F245D94AB1C2F1200300FA02FC2EFA30
:10014C0003F3954043EA0C0C94404FEA154EBCFB6C
:10015C00FEF8A8B20EFB18CC08FB00F9230C43EAFE
:10016C000C43994528D9EB1808F1FF3704D299456F
:10017C0002D9A8F102072B44A3EB0903B3FBFEFC45
:10018C000EFB1C330CFB00F0A4B244EA0344A04267
:10019C0014D92C190CF1FF3304D2A04202D9ACF1C2
:1001AC0002032C44241A43EA07401EB10023D44016
:1001BC0034607360BDE8F0874746DDE76346F1E7DE
:1001CC0092BB0121431B4FEA154EB3FBFEFCAFB2B1
:1001DC000EFB1C330CFB07F8200C40EA034398453C
:1001EC0062D9EB180CF1FF3004D2984502D9ACF16E
:1001FC0002002B44A3EB0803B3FBFEFC0EFB1C33E9
:10020C000CFB07F7A4B244EA0344A7424ED92C19BD
:10021C000CF1FF3304D2A74202D9ACF102032C44F7
:10022C00E41B43EA0040C0E7C2F12003954020FAEA
:10023C0003F12EFA03F34FEA154EB1FBFEFC90408E
:10024C000343AFB20EFB1C100CFB07F8190C41EA70
:10025C000041884504FA02F422D969180CF1FF30E8
:10026C0004D2884502D9ACF102002944A1EB080163
:10027C00B1FBFEFC0EFB1C110CFB07F79BB243EA17
:10028C0001439F420ED9EB180CF1FF3104D29F426F
:10029C0002D9ACF102012B44DB1B41EA004192E78D
:1002AC006046E3E76146F7E76046A3E76346B7E7D6
:1002BC00834206D916B9002108467BE7C6E900E05F
:1002CC00F9E7B3FA83F78FB9834201D3724508D8A3
:1002DC00BEEB020460EB030301209C461EB9002117
:1002EC0068E73846FAE7C6E9004CF8E7C7F1200C96
:1002FC00BB4022FA0CF41C434FEA144920FA0CF3CD
:10030C00B3FBF9F8B8402EFA0CF101430EFA07F5DD
:10031C0009FB18301FFA84FE08FB0EFA0B0C43EA9B
:10032C0000439A4502FA07F240D9E31808F1FF306E
:10033C0004D29A4502D9A8F102002344A3EB0A0384
:10034C00B3FBF9F809FB183308FB0EFE89B241EA3E
:10035C0003418E452CD9611808F1FF3304D28E4528
:10036C0002D9A8F10203214443EA0040A0FB029801
:10037C00A1EB0E014145CE46434602D306D14D4575
:10038C0004D2B9EB020E68EB04030138002EA6D0A0
:10039C00B5EB0E0261EB030101FA0CFC22FA07F338
:1003AC004CEA0303F940C6E9003198E74046C5E73B
:1003BC004346D9E7034613F8012B002AFBD1181A40
:1003CC0001387047024A136801331360704700BF4D
:1003DC00F806002008B54FF4FA6004F02CFE1F4814
:1003EC0004F0FDFE1E4C204606F0CFF808B322693F
:1003FC00A56813680A2123F48063136020462B68D8
:10040C00184A9847AE6936B14FF080634FF0A0722E
:10041C000A212046B0471449144B4B604FF48063BB
:10042C008B60EB6913B101220D489847104804F01A
:10043C00D6FE00F03DF840F6B83004F0FCFD0D4D52
:10044C000D4C2046296804F0CAFE502000F016F826
:10045C004FF4FA7004F0EFFDF3E700BF46740008A8
:10046C00586C000810000100FC060020D1030008A5
:10047C0064740008F8060020837400084FF481733C
:10048C0007B5ADF804306FF059039842B8BF184661
:10049C005A28A8BF5A2003228DF8060001A9034848
:1004AC0004F0CEFD03B05DF804FB00BF946C0008B3
:1004BC0007B5104806F069F828B90F4803B05DF885
:1004CC0004EB04F08CBE062301220A480DF107014F
:1004DC008DF8073004F0B4FD00214FF4FA7003F0EE
:1004EC00D7F80020FFF7CAFF044804F078FE03B0E9
:1004FC005DF804FB946C0008B2740008D874000812
:10050C002DE9F04F91B0009302F004030293C2F373
:10051C00C2030133840705460E46DDF8689003924A
:10052C00059340F0BB81041D30B1072909D86FF049
:10053C001B0011B0BDE8F08F01F00706341DC6F1A9
:10054C000806009B4FF000084FF0040A591E4FF0AC
:10055C00FF3347460193C3465346CDF810800DB187
:10056C00009A22600598002800F3E8809848009AC9
:10057C00824203D397488242C0F0E080039AA4EBF6
:10058C00050E92074FEA9E0000F103810F2F00F237
:10059C00B180002D00F0058107F140020DEB020C3B
:1005AC00019A0CF8200C0CF8102C049801300490D3
:1005BC00E7E07A285DD84B280ED8472859D8292847
:1005CC002DD8252852D054D820287AD02338D0F1D1
:1005DC00000B4BEB000B74E04C382E2849D8DFE8AD
:1005EC0000F07048484848484848484848484B48F4
:1005FC004848484848484859484B4B595959704BFA
:10060C006D487048184B184848827F4B48484B48F7
:10061C007F0000204FF0000B4FF0040A38E001225D
:10062C002A38C0B202FA00F010EA0E0F49D110F0CD
:10063C00625C2FD110EA020B43D06046013C54445B
:10064C00B4FBFAF40AFB04F4002D61D0A3EB050C07
:10065C00A444B4453FF66BAF002868D1042B47D1B6
:10066C0059F8043B2360042304342AE0019A013A2C
:10067C0001924FF0000B24E011F8010C6C2834D1DE
:10068C00002011F8023C83466C2BC5D14FF0080AB0
:10069C005346D3E709F1070929F00709073424F079
:1006AC000704F9E802AB35B106982044B0423FF696
:1006BC003EAFC4E900AB4FF0000B08344FF0080A12
:1006CC00534611F8010F002878D0BBF1000F7FF4CE
:1006DC0070AF2528F5D14FF0010B019B013301932D
:1006EC004FF0040AECE7584694E700208346A5E750
:1006FC00082B02D06FF015001BE709F1070929F050
:10070C000709F9E80223C4E9002308230834D8E7D1
:10071C0068B9042B02D109F10409A4E7082BE9D12B
:10072C0009F1070929F0070909F10809EDE7059A0C
:10073C00013A059259F8042B009210E7039A90079E
:10074C0020D54FF0010CA4EB050E4FEA9E00BEF530
:10075C00007FCFD20F2FCDD8F5B107F140020DEBB2
:10076C00020E019AC0B20EF8200C0EF8102CBCF13F
:10077C00000F3FF41AAF60F07F000EF8200C08F168
:10078C0001080137C5F108024FF6DA7E04340692EF
:10079C0097E74FF0000CDAE7BCF1000F01D00136FF
:1007AC00EFE7029802360028EBD10098CDE906312C
:1007BC00FFF700FEDDE906310644E2E7631BB3F503
:1007CC00806F97D245B9A6F10804E018B1E600BFD6
:1007DC00446B0008FC7E0008029A9B0828602B7072
:1007EC009DF81030C2B1EB7085F80280B8F1000FA3
:1007FC0005D0002208A8C5F1010C97420ED14FF08C
:10080C00000AC5F101030DF1200901930DF1300B24
:10081C00574512D1601B8CE66B70E5E710F8013B75
:10082C00190608D504EB0C0EB64503F07F033FF612
:10083C007EAE04F8013B0132DFE7B8F1000F03D0C4
:10084C0099F90020002A17DB029BD3B11AF80B2070
:10085C0004F8012B0022019B98182044B0423FF66B
:10086C0066AE99F80000009904F8010B204603923B
:10087C0006F03AF9039A14440AF1010A09F1010944
:10088C00C6E799F8002055F822300093029B009897
:10089C0045F82230FFF78EFD421CDCE76FF00D00AF
:1008AC0047E600BF2DE9F04F97B000AFD7F880B006
:1008BC007B62CBF3C0030446894690F802A0FA622F
:1008CC00BB6141B9457800780AEB800020444D4566
:1008DC0017D8A0EB0409E378FB61BAF1000F02D042
:1008EC001BF0010F16D1FB6953BBFB6A1BB14946C8
:1008FC0020467A6A98474D4628465C37BD46BDE887
:10090C00F08F461C3046FFF755FD0130304409F19D
:10091C000109DCE762682378BA62FA6A99007961A6
:10092C0004EB8301002A40F001810E464FF00008D1
:10093C004D4601EB0A094E454CD101EB0A0610E07D
:10094C001BF0020FD1D023789A007A61626804EB15
:10095C008301BA62FA6A002A77D14D46904601EBC0
:10096C000A061BF0050F0CBF02230123FB62FB6977
:10097C0006EB430A0BF002037B625645BCD016F81B
:10098C00021B16F8013C54F82390AF4B994502D347
:10099C00AE4B994536D3BB69002B40D0B86A04F0F6
:1009AC00F7FB00283BD0E9468AB06A46A84B536156
:1009BC00BB6AC2E906314FF400731384A54B42F8AD
:1009CC00103F00234FF41251A34800F023FC023DCA
:1009DC00CD46D2E716F8013BF96254F82300FFF735
:1009EC00E9FCD7F88430F96A01304BB1D7F888307C
:1009FC0098453EBFD7F8843023F8180008F1010859
:100A0C00054498E7BB6923B1B86A04F0C1FB002820
:100A1C00C9D11BF0010F05D1FB6AED1AADE77B6A5A
:100A2C00002BAAD04846FFF7C5FCD7F8843053B149
:100A3C00D7F8883098453FBFD7F88420431C22F85C
:100A4C00183008F10108054497E7BAF1000F73D08C
:100A5C001BF0040673D0D046002607F1480052461E
:100A6C003B61396206F040F8396A3B6901EB0A02D6
:100A7C003A62FA695200FA60D7E9071202EB4102B6
:100A8C003A610BF00202BA603A69396A8A4258D16B
:100A9C0062781BF0020F18BF0021BA6208BF4FEA40
:100AAC005801B2181BF0010FD2B240F0A1801BF01C
:100ABC00040F14BF40460020BB616270A070E1704F
:100ACC0020467A6A7969FB6A9847051EFFF614AFCF
:100ADC00BB6941462370BB6A7A6A6370FB6984F810
:100AEC0002A0E37007F14800FB6A9847B0F10008D8
:100AFC00C0F2B7807B69A9EB0A01C91AFB687A6A54
:100B0C00C91A386AFB6A98470028C0F2AC804FF0CB
:100B1C00000BA84408EB000507F1380AB34569D36C
:100B2C0000217A6A0846FB6A9847E5E656464FF07C
:100B3C00000807F1380092E75646D04696E7B046D3
:100B4C0094E73A6A12F8021B12F8015C3A6254F804
:100B5C0025003D4A904202D33C4A904220D3BA69C8
:100B6C0032B1B86A7B6004F013FB7B6800288BD130
:100B7C00BA6812BB08F1280208F1010007F1300C29
:100B8C00C0B294440CF8101C00F1280207F130019B
:100B9C0008F1020850185FFA88F800F8105C73E747
:100BAC00BA693AB1B86A7B6004F0F2FA7B68002843
:100BBC007FF46AAF1BF0010F09D006F1280207F190
:100BCC003000711C161806F8205CCEB25CE71BF0E6
:100BDC00040F3FF459AF08F1280207F1300008F177
:100BEC00010102EB000808F8105C5FFA81F84BE792
:100BFC00002061E71BF80A3054F8239087F837304F
:100C0C00D7F8843053B333F81B8001217A6AFB6A1E
:100C1C0007F137009847002825DB0544B8F1000F91
:100C2C0006D14846FFF7C6FB00F101081FFA88F809
:100C3C00414648467A6AFB6A9847002813DB05440C
:100C4C000BF1010B6AE700BF446B0008FC7E000847
:100C5C000D75000804000001006E0008D7F88480B0
:100C6C00D3E7454648E6054646E600BF014B18600B
:100C7C00704700BF0000002080B505460E461746A1
:100C8C00984602F023FD034605F04CFF0446DFF8BE
:100C9C001890424649F8003039463046A84754F877
:100CAC00090001F027F800BF08000000034A0020EB
:100CBC00536823F002035360704700BF002004E028
:100CCC00044A0020136843F010031360024B034ADC
:100CDC001A607047002002404400002000127A0085
:100CEC002DE9F047044607464FF00109DFF8508024
:100CFC0014B93846BDE8F08794FAA4F5B5FA85F531
:100D0C0009FA05F32E0108EB05156FEA030A24EA2C
:100D1C0003042B7B002BEBD058F806301B694BB926
:100D2C004644736804222846196807EA0A0704F047
:100D3C00F5FCDDE7284698470028D9D1F0E700BF3D
:100D4C00506E000830B5002289B00F490F4805F0ED
:100D5C0076FD002200230024CDE906230E230C4D42
:100D6C00CDE903344FF440722846CDE90144094BD8
:100D7C000949009402F022FA0849284605F052FC71
:100D8C00204609B030BD00BFAD0D00084005002065
:100D9C00C8000020C5100008C0080020C17500085C
:100DAC00014802F06DB900BFB40000202DE9F047F6
:100DBC00804620480F4604F089FC0646002832D0B5
:100DCC0000252846BDE8F087237B83B12368DB68C8
:100DDC000BB120469847636883F8069023681B691B
:100DEC00CBB9636804222046196804F097FC0136DD
:100DFC0010345445E8D3B8F1000FE2D0002DDFD009
:100E0C002846FFF76DFF0546002FF7D00021642020
:100E1C0002F03EFCF2E7204698470028E1D009FAA0
:100E2C0006F31D43E3E705464FF00109024CDFF8DA
:100E3C000CA0DEE718070020506E0008606E00085A
:100E4C00014B53F8200070470471000808B50346A5
:100E5C0008462BB1044A136000F076FC002008BD54
:100E6C006FF01500FBE700BF0400002010B5044C28
:100E7C00237813B9034802F003F90123237010BD42
:100E8C00B4080020B400002010B504460B4804F050
:100E9C001DFC5CB1BFF35B8F094B53E8001F01399C
:100EAC0043E80012002AF8D1BFF35B8F054805F028
:100EBC00D2FCBDE81040044802F0E2B81007002054
:100ECC001407002040050020B40000200020BFF3D0
:100EDC005B8F0146044B53E8000F43E80012002AD5
:100EEC00F9D1BFF35B8F70471007002070B5FFF787
:100EFC00EDFF0546074C084EB44200D370BD636845
:100F0C005B792BB123685B6813B12946204698475F
:100F1C001034F1E7506E0008606E000810B5044CF8
:100F2C000449204604F064FA034B1C6010BD00BF5A
:100F3C0078000020F07000080807002000230D4AFC
:100F4C0010B513700C4A4FF47A7113600B4A0C48AD
:100F5C001360FFF77BFFFFF7E1FF0A4B0A491846C6
:100F6C008B4200D310BD1A1A5C6812110132227127
:100F7C001033F5E7B50800201007002014070020F7
:100F8C00F3560008506E0008606E000801460022FF
:100F9C000023014804F04DBA78000020014804F009
:100FAC00E6BA00BF78000020024B0146186804F036
:100FBC0032BB00BF08070020014804F067BB00BF2C
:100FCC007800002070B5254B1878002844D0FFF726
:100FDC00E5FF054690B1BFF35B8F214B53E8001F33
:100FEC00013943E80012002AF8D1BFF35B8F1D4C86
:100FFC001D4EB44226D32846FFF7D6FF1B4B1C4C84
:10100C001B68002B12DD05F018FC0A220023FFF7E9
:10101C0067F8D4E90032C01A40F2E93361EB0201FF
:10102C00984271F1000101D3FFF760FFD4E900325F
:10103C0013F57A7342F10002C4E90032BDE8704046
:10104C00FFF7BABF63685B7923B123682946204652
:10105C001B6898471034CCE770BD00BFB408002063
:10106C0014070020506E0008606E00081007002066
:10107C003805002070B50D4D297861B90120FFF7B6
:10108C0095FE0B4C0B4EB44206D3FFF79BFF00288A
:10109C00FBD101232B7070BD63685B791BB1236896
:1010AC0020469B6898471034EDE700BFB508002038
:1010BC00506E0008606E000800212DE9F0470846CC
:1010CC00FFF774FE044658B34FF4FA784FF000095A
:1010DC0005F028FD1B4B1C4A1B58136033B11B4BEE
:1010EC001B68092B02DD1A4801F0CAFF0025194FB5
:1010FC00DFF85CA044B12046FFF7F2FD044618B9B6
:10110C004FF0FF384FF0FF39FFF75CFF064628B968
:10111C00B5B942464B46504601F0D6FF3546E9E795
:10112C004FF0FF384FF0FF39D2E72B689B691BB1AA
:10113C0000222846114698471035BD42F5D3E8E702
:10114C00054DFAE7080000000C07002014070020EA
:10115C00B4000020606E0008506E000813B51848EB
:10116C0004F0B4FA174B1B7873B1EFF3118410230E
:10117C0083F31288BFF36F8FFFF724FF84F311887A
:10118C00BFF36F8F02B010BD0F4B1B68002BF9D053
:10119C0050B9002200230D48CDE9002342F2107211
:1011AC00002302F0EBFCEDE70928EBD1074805F032
:1011BC0052FB074802B0BDE8104001F061BF00BF10
:1011CC0014070020B50800200C0700204005002063
:1011DC00B400002010B5064B04461B689847214606
:1011EC00A060044804F0A4F9BDE81040FFF7B6BFB6
:1011FC000400002078000020044A054B9B1AB1EB38
:10120C00D30F34BF52F8310000207047006E000835
:10121C00506E00082DE9F04F8FB0C1F34A2804AF8F
:10122C000D469146B8607B600C0DB8F1000F63D091
:10123C0000264FF0040B4FF00A0A07F11403C7F80D
:10124C000C80C7E907667E620193CDF808B0CDF833
:10125C0000A007F11C0332464846F968FFF722FB51
:10126C00B0F5006F03461CD36C468AB0D9F8041055
:10127C0004AB26481A46C3E9050140F2FF71D96157
:10128C004FF400711984224B42F8103F4FF4125165
:10129C0033462048FFF7BEFFA5462C37BD46BDE8B8
:1012AC00F08FC0F30A0804F11700184420F007006F
:1012BC0080083B60FFF76AFE68F35325044690B143
:1012CC003B6800F11001C7E9083607F11403F96116
:1012DC00CDE900A3CDF808B048460F4AF96807F1EC
:1012EC001C03FFF7DFFA68F353252A4620467B6878
:1012FC00B96804F032FAD0E704F1170020F00700C7
:10130C008008FFF743FE0446EDE700BFD6750008E2
:10131C0004000001206E00083B5700082DE9F04F37
:10132C0087B00446DDE9105ADDE9127993469846F8
:10133C000391BFB13B46524610210020CDF80090DE
:10134C00CDF81490FFF7DCF8B0F5006F06460AD321
:10135C0040F2FF730221174A174807B0BDE8F04F5F
:10136C0004F054BA3E4605F11700304420F0070053
:10137C008008FFF70BFE04F007040BF0070BE400EA
:10138C0044EA8B1444EA462444EA0554054640B129
:10139C003FB13B4652463146CDF800901030FFF736
:1013AC00AFF8434622462846039907B0BDE8F04FF4
:1013BC0004F0D3B915760008206E0008406820B1FF
:1013CC00034BC01A40F3CF0070474FF0FF3070470B
:1013DC00006E00080EB403B503AB53F8042B0146A2
:1013EC000448019300F0A0FD02B05DF804EB03B0DB
:1013FC00704700BF61580008CA0605D48B064CBF65
:10140C0002490349FFF7E6BF704700BF0B750008A0
:10141C000A7500082DE9F04F89B09A46149B9DF887
:10142C004CB00693159B04460593169B0D469046AF
:10143C00179E0493BBF1000F00F09D8006F480739F
:10144C00079304F069F906F00209024600283ED021
:10145C0020469249FFF7BEFF0746B9F1000F08D0AE
:10146C0016F0440F35D12A4620468D49FFF7B2FFBE
:10147C00074406F0010353B18A4B204653F82B2046
:10148C00894B8A49002A08BF1A46FFF7A3FF06F4C6
:10149C008073002B49D006F00803002B63D1B8F100
:1014AC00000F66D0424620468149FFF793FF054660
:1014BC00069B3D44002B6DD1049B002B73D1F3078D
:1014CC0000F1E58031462046FFF796FFD9E007464C
:1014DC00C3E7784B18680028CAD0774B4FF47A7959
:1014EC001B684FF46161B5FBF3F5B5FBF0F300FB42
:1014FC00135509FB05F5B3FBF1F2B5FBF0FE4FF00C
:10150C003C0C01FB123100FB1E55B1FBFCF309FB3B
:10151C0005F5B5FBF0F50CFB131120460091CDE958
:10152C0001E56649FFF756FFA2E706F00803EBB1A9
:10153C00634B204653F82B206249FFF74BFF0546BF
:10154C00B8F1000F05D0424620465949FFF742FF3B
:10155C000544BAF1000FABD0524620465A49FFF76A
:10156C0039FF0544A4E74FF0000AE1E706F008054F
:10157C00E6E745469CE7BAF1010F069B06D1002B26
:10158C0065D1049B002B7CD000250CE0002BF8D0FF
:10159C004E485DE04E48069B22464E4903F0C7FD7F
:1015AC00049B002B69D0DFF83081DFF83091049F69
:1015BC003146102F204628BF10274FF0000AFFF7A6
:1015CC001BFF554546DC059B494620461A78FFF71C
:1015DC0001FF4FF0010A1AF0070F03D141462046D4
:1015EC00FFF7F8FE57453CD9059B4946204613F8B2
:1015FC000A20FFF7EFFE0AF1010ABAF1100FEAD147
:10160C004FF0000A20463649FFF7E4FE5246059B90
:10161C0020469A5C334B995C11F0970F08BF2E2231
:10162C003149FFF7D7FE0AF1010ABAF1100F1DD0AC
:10163C001AF0070F03D141462046FFF7CBFE574562
:10164C005246E4D841462046FFF7C4FEEBE720485B
:10165C005D46A0E741462046FFF7BCFE0AF1010AB1
:10166C00AFE720462149FFF7B5FEC4E7059B3B4495
:10167C000593049BDB1B049399D1BBF1000F7FF402
:10168C001EAF204609B0BDE8F04F04F0D7B8204695
:10169C00054A0649FFF79EFE14E700BF5276000884
:1016AC0056760008147100084D7600087B76000809
:1016BC007E760008200700201C0700205F760008BB
:1016CC002871000882760008887600089758000870
:1016DC0061580008351F0008957600088D760008C3
:1016EC0097760008F07D000899760008937600083C
:1016FC0042F20F7373B58B4228BF0B460568044644
:10170C00052168460D4A02F079FA064663682846B8
:10171C000B225B680A4904F083F863683246694619
:10172C0028465B6804F07CF863681B2228465B68DB
:10173C00044904F075F802B070BD00BFA977000829
:10174C00B87600089C76000800210123064A9042D6
:10175C0006D8064A01B901231360054B186070477F
:10176C00012140085B00F2E740420F001C070020FB
:10177C0020070020F8B50D460446064F4618B44223
:10178C0001D12846F8BD14F8011BBB6801485B6801
:10179C009847F4E76C6C00082DE9F04706460C46B8
:1017AC0000AF002935D006C9E9468AB06D46A3685A
:1017BC004FF0050AA8461F48C5E90723C5E90501EE
:1017CC0048F810AF002342464FF421511A48FFF756
:1017DC0021FDD4E90312CD466369AD461748C5E92E
:1017EC000723C5E90501C5F810A0002342464FF4B4
:1017FC0021511148FFF70EFDCD46E3690121104A36
:10180C000D4804F003F8A36901210E4A0A4803F0BD
:10181C00FDFF012E07D1EFF305830B4A3146064835
:10182C00103B03F0F3FF2146304601F095FABD461C
:10183C00BDE8F087FE760008386E00082D770008AA
:10184C005C7700086B7700089977000808B5034BA4
:10185C001B689847BDE8084000F026B8100000202F
:10186C0030BFFFF7FDBF00BF2DE9F04105460B4E21
:10187C00DFF82C80324606EB0807CC1B20460949C2
:10188C0005F032F9A01942460021083C05F03AF95E
:10189C006C6607F10800BDE8F08100BF0000000095
:1018AC0004000000606E0008054B5A699B689A4260
:1018BC001FBF044A536843F080535360704700BF06
:1018CC008408002000ED00E070B5224C06460D4661
:1018DC002148224904F048F8A36AD90638D51E4895
:1018EC001F4904F041F81120A36A1A0704D51A48BD
:1018FC001C4904F039F81220164CA36A9B0712D528
:10190C001949154804F030F8636BA26A110609D521
:10191C000121164A104803F079FF1EB1A36A23F087
:10192C008003A36213200B4CA36ADA0704D50A4880
:10193C000F4904F019F81420A36A064ADB0658BFB5
:10194C00A36A936A43F0FF03936200232B7070BD6C
:10195C001020C9E700ED00E0386E0008AC770008F5
:10196C00C2770008F577000808780008207800088E
:10197C003678000810B5204C2049214803F0F4FFBC
:10198C00A36A990136D51E481E4903F0EDFF1E20AF
:10199C00A36ADA0104D51A481B4903F0E5FF1F209E
:1019AC00154CA36A1B0304D51548184903F0DCFF3A
:1019BC002120A36A590304D51148154903F0D4FF1B
:1019CC0022200D4CA36A9A0304D50D48114903F04B
:1019DC00CBFF2320A36ADB0304D509480E4903F08F
:1019EC00C3FF2420044A936A6FEA03436FEA13434C
:1019FC00936210BD1D20CBE700ED00E05578000888
:101A0C00386E00086D780008807800089A78000815
:101A1C00B8780008DD780008F778000870B5244C19
:101A2C0006460D462348244903F09EFFA36AD904B9
:101A3C003CD52048214903F097FF1720A36A1A05CB
:101A4C0004D51C481E4903F08FFF1820184CA36ABC
:101A5C009B0512D51B49174803F086FFA36BA26A9E
:101A6C00110409D50121184A124803F0CFFE1EB10A
:101A7C00A36A23F40043A36219200D4CA36A5A05F0
:101A8C0004D50C48114903F06FFF1A20A36ADB053B
:101A9C0004D508480E4903F067FF1B20044A936ADB
:101AAC0043F47F43936200232B7070BD1620C5E76F
:101ABC0000ED00E0386E0008227900083879000843
:101ACC00F5770008497900086279000877790008F1
:101ADC00927900082DE9F0418AB0654B0446D3F8A1
:101AEC000480002600AFC8F3080586F31188BFF305
:101AFC006F8F02F07F43B3F17F4F07D102F00C03DD
:101B0C00082B12D15B495C4803F02EFF00263446AB
:101B1C000023FB71EB1E092B00F28980DFE803F038
:101B2C000A7F827C87878787878510074CBF0C4686
:101B3C000126EDE75149504803F016FF00234C4DA8
:101B4C00FB71EB6A9A0705D54D494B4803F00CFF26
:101B5C00002332E0EB6A002B01DA4A49F5E7EB6A25
:101B6C005B00F5D54849444803F0FEFE6B69A26959
:101B7C0043F480736B61BFF34F8FBFF36F8F6B694F
:101B8C0032F8022C23F480736B61BFF34F8FBFF3D9
:101B9C006F8F4DF602739A4208D0AB6ADBB273B307
:101BAC000120F91DFFF790FE034606E02368012192
:101BBC00364A314803F02AFE2368FA79DAB907F17C
:101BCC00080504F1200C2A4620686168083403C219
:101BDC0064451546F7D17A6A002E44D0C2F3080149
:101BEC0021B96FEA52226FEA42227A62184607F153
:101BFC000801FFF7D1FD2837BD46BDE8F081AB6A7F
:101C0C0013F47F4F04D00120F91DFFF707FFCBE73A
:101C1C00AB6AB3F5803F9BD3FFF7ACFEC4E7002063
:101C2C00F91DBFE70020F91DEFE719498DE7194AA7
:101C3C0018F4F87FE8468AB0174B18BF13466A466B
:101C4C001649103DC2E905134FF400731384144B6D
:101C5C00D56142F8103F00234FF411510648FFF7AD
:101C6C00D9FAC54674E722F4FF7222F00102BCE7F0
:101C7C0000ED00E0D8790008386E0008037A0008FF
:101C8C001A7A00083B7A0008497A0008687A00083A
:101C9C00847A0008BF790008AA790008A87A00089D
:101CAC0004000001024A536943F01003536170476A
:101CBC0000ED00E0EFF30880EFF3098101B5724607
:101CCC00FFF708FF01BD00BF102080F31188084802
:101CDC004FF40061401880F30988EFF3148002215F
:101CEC00084380F31488BFF36F8F00F091F8000065
:101CFC00C00B0020084B9B6883420BD1EFF305838C
:101D0C0043B1064B5A6842F080525A605A6A22F428
:101D1C0000425A6204F056BD8408002000ED00E039
:101D2C006FF00A01084A9368D966084998664B68AF
:101D3C0043F080534B60002383F31188BFF36F8F04
:101D4C009368D86E704700BF8408002000ED00E057
:101D5C0012498A684FF030001044EFF3098C80E888
:101D6C00F01F102080F31288BFF36F8F0C4F4FF0D1
:101D7C0000664A698A603E604FF06404141920685A
:101D8C00084C2060906E0023936680F3118802F15A
:101D9C00300090E8F01F8CF309887047840800200D
:101DAC0004ED00E0480700201EF0040F0CBFEFF319
:101DBC000880EFF30980816911F8021C0229FFD019
:101DCC0001B503F0CDFD01BD40B2002807DB0123B6
:101DDC004109034A00F01F00834042F8213070474C
:101DEC0000E100E040B2002801F10101ACBF00F1BC
:101DFC006040064B4FEA0111C9B2ABBF00F5614020
:101E0C0000F00F0080F800131954704714ED00E037
:101E1C0008B5094B094A23F0604323F07F03936014
:101E2C00BFF34F8FBFF36F8F01F082F801F0DAFC34
:101E3C0000F048F801F0BCF80000000800ED00E0EC
:101E4C0042F8203C009B0B4942F81C3C019B21F0C2
:101E5C00010142F8183C029B42F8081C42F8143C61
:101E6C004FF0807342F8043C0023203A02658366ED
:101E7C00704700BF850C000800B50D4B15469860E7
:101E8C00426E0C4B0E461A602C4686F309884FF0B6
:101E9C000000054B984720464FF000014FF0000220
:101EAC004FF00003014C204785590008850C0008B1
:101EBC0084080020480700201022014B1A6170474B
:101ECC0000ED00E0002310210348C21801332B2B36
:101EDC0082F80013F9D1704700E100E008B5EFF388
:101EEC000583064A103B02EBC30152F833004968E4
:101EFC008847BDE80840FFF7D7BC00BFA86C0008B6
:101F0C0008B5024B1B689847002008BD4C07002001
:101F1C00034B044A1860937843F0020393707047A4
:101F2C004C07002014000020F0B587B007460E4681
:101F3C0014460021102268461D4604F0E3FD0223DE
:101F4C008DF80230054B2A4621466846CDE90476C9
:101F5C00019301F019FF07B0F0BD00BFAD590008A7
:101F6C0008B50649064821F00701C1F1005202F5F7
:101F7C00A04203F09FF8002008BD00BFC718002046
:101F8C00500700202DE9F041054600244FF00108D0
:101F9C000D4E0E4F2B78E2B298181F280DDC72698B
:101FAC0008FA00F333EA020207D1736157F83030B4
:101FBC001BB107EBC002516898476A780134E3B251
:101FCC009A42E7D2BDE8F081000401405C07002092
:101FDC00044B184400230133994200F8012BFADC1E
:101FEC00704700BF5000002010B4064B0246185634
:101FFC000123054993400C6823430B6010BCFFF789
:10200C00E3BE00BF50000020000401401F2806DC86
:10201C000122034982400B6823EA02030B607047DC
:10202C000004014003292AD8DFE801F0020E141F36
:10203C000122134B8240996821EA02019960D96808
:10204C0021EA0202DA60704701220D4B8240996846
:10205C001143F3E701220A4B8240D9681143D9603E
:10206C00996821EA02029A607047012303FA00F092
:10207C00034B9A6802439A60DA681043D860704741
:10208C000004014030B50A4B53F830408C4204D167
:10209C0003EBC0056D68954205D034B943F8301098
:1020AC0003EBC0035A60002030BD6FF00F00FBE75C
:1020BC005C0700200022034B43F8302003EBC003E5
:1020CC005A6070475C070020104B18680B68052B92
:1020DC000BD883B1023B032B04D8DFE803F00211C9
:1020EC0002140020106000207047182BFAD01C2B13
:1020FC0004D0142BF6D06FF0850070474008F1E740
:10210C0049F64040EEE70248ECE700BF44000020EF
:10211C0000127A00F8B53C4F03F00CFD384603F082
:10212C0008FD00F0BDFD394C394A63681578C3F3DE
:10213C000313D35C47FA05F520FA03F6AE4202D23C
:10214C00284600F0D3FD236843F4802323602368E2
:10215C0043F48033236023689B03FCD5636A43F00C
:10216C0001036362636A9807FCD5636803F00C0390
:10217C00082B15D12368990706D4236843F0010373
:10218C00236023689A07FCD5636823F0030363601C
:10219C00636813F00C0FFBD1636823F0F0036360EA
:1021AC00236823F08073236000F036F8236843F033
:1021BC008073236023689B01FCD5636823F0F003D4
:1021CC006360636823F0030343F002036360636896
:1021DC0003F00C03082BFAD1AE4202D3284600F0D0
:1021EC0085FD0C4B00201F60636823F4E06343F40F
:1021FC0080636360636823F460536360636823F4F3
:10220C0040436360F8BD00BF00A24A0400100240C6
:10221C00CD7C000844000020054A536823F47C134D
:10222C0043F4E8135360536823F4800353607047FE
:10223C000010024008B5074804F0A7F938B1064869
:10224C00FFF766FE0448FEF711FD002008BD6FF095
:10225C001200FBE76C6C0008692200080A2838B5EC
:10226C000446074D04D1AB680D2128465B6898479E
:10227C00AB6803485B68E1B29847204638BD00BFA5
:10228C006C6C000838B5036904465860084D284644
:10229C0004F07BF940B16168AB6828461B680C31CF
:1022AC00984700EAE07038BD6FF01200FBE700BF02
:1022BC00CC6B000870B50C461146B1F5001F1E46DC
:1022CC004568026923D10F2304F003020432920003
:1022DC00934043EA94032E49DAB2023251F8222099
:1022EC00190C02EA134391FAA1F2B2FA82F2D3402A
:1022FC00AA689A4209D12046FFF788FE2046FFF7CC
:10230C00D9FE00212046FFF78DFE002070BDB1F5EF
:10231C00800F34D020461F49FFF7B4FE90BBB6F1B6
:10232C00806F28D0B6F1C06F27D0B6F1007F2CD1CA
:10233C0002210F2204F0030304339B009A4042EA6B
:10234C009402D3B29B0003F1804303F580339E6863
:10235C00A86826EA1246150C95FAA5F2B2FA82F292
:10236C0000FA02F2324320469A60FFF75BFE2046E9
:10237C00FFF73AFEC9E70121DBE70321D9E76FF04C
:10238C008500C3E76FF00F00C0E76FF01500BDE7E5
:10239C0000000140595C000810B502694368126ADC
:1023AC00DB68C2F34202012A04D0022A21D06FF06A
:1023BC00150010BD1F4A5868B1FBF2F220F03F0027
:1023CC0010435860186A013220F03F0002431A6231
:1023DC00194AB1FBF2F140F6FC72114208BF04211C
:1023EC00DA69002022F44F4222F0FF020A43DA613C
:1023FC00DFE7104A4FF49674B1FBF2F2586820F004
:10240C003F00104362434FF47A74B2FBF4F258600D
:10241C00186A013220F03F0002431A62074A9142C7
:10242C0085BF0132B1FBF2F148F2010141F40041E8
:10243C00D6E700BF40420F00400D03007F4F120053
:10244C0008B50121034A044803F0D7F96FF00400E2
:10245C0008BD00BF4E7B0008106E000898B542689E
:10246C000369D26800AF83F84E1029B9136823F0C2
:10247C001A031360BD4698BD6C468AB06A46036861
:10248C000848D161C2E905034FF400731384064B6D
:10249C0042F8103F00234FF411510448FEF7BAFEE6
:1024AC00A546E7E76C7B000804000001106E0008ED
:1024BC00F7B500224368044606691C480F46DD68E0
:1024CC00596883680192DB684BB90121184A194895
:1024DC0003F093F96FF00404204603B0F0BD01AA99
:1024EC0098470028F1DB376206F110074FF0FF32F6
:1024FC004FF0FF33384600F0E7FD2B68204623F001
:10250C0001032B6096F84E10FFF7A8FF20460199A7
:10251C00FFF742FF96F84D3004461BB12B6843F091
:10252C0001032B60384600F0ABFDD5E7CC6B0008FF
:10253C00807B0008106E00082DE9F74304464668BE
:10254C0005694FF000094FF0FF320021284604F0D6
:10255C0057F820463368984785F84C9085F84E908C
:10256C00012205F11000114604F04AF8394F3846A3
:10257C0004F00BF850B90121374A384803F03DF903
:10258C006FF01204204603B0BDE8F083D4F8048049
:10259C004946D8F8140001AA03F0DAFE031E07DB43
:1025AC00019B4A461979186800F06AF8031E2BDA69
:1025BC0001212B4A294803F029F9F3681A6842F4DF
:1025CC0000421A601A6822F400421A603369254AE4
:1025DC00934232D026D8244A934230D0234A934295
:1025EC002FD00121224A1D4803F007F90021204673
:1025FC0041F01001FFF75CFF041E26DA01211D4A91
:10260C00164803F0FAF8BDE7BB6838461B68D8F8E3
:10261C00041098470028D0D00121174A0F4803F026
:10262C00ECF8CAE7154A93420DD002F5C31202F535
:10263C0020629342D5D10A21D9E70621D7E702219E
:10264C00D5E70421D3E70821D1E70123002485F83D
:10265C004C3097E7CC6B0008AE7B0008106E00087E
:10266C00CD7B000840420F00A0860100801A0600B6
:10267C00077C0008227C0008EB7B000840E133005B
:10268C002DE9F34703680446C3F38F25C3F389236D
:10269C00FBB101228A4223D3324A15F0010F906913
:1026AC0040F00100906192694FEA132002F00102A0
:1026BC000192019A2C4AC3F3440300FA03F009BFB8
:1026CC005368D369034343F0E06316BF034353607D
:1026DC00D361264F04EBC106A64209D1002019E0B4
:1026EC0054F83200C0F38920984238D10132D1E736
:1026FC00D4E9002512F003090FD145F04105C2F3CE
:10270C00870AC2F3831257F82280B8F1000F15D153
:10271C006FF0120002B0BDE8F087B9F1020FEED0F5
:10272C00B9F1010F07D115F4C07F0CBF45F00205BC
:10273C0045F00405E3E745F00105E0E7404603F00A
:10274C0024FF0028E4D04B462A4640460AF00F01ED
:10275C0003F021FB002804F10804BDDADAE76FF07E
:10276C001500D7E700100240000001406C72000811
:10277C000121024A024803F040B800BF807B0008E8
:10278C00486E0008F8B50C46036941685E68237909
:10279C00012B33D09A1E55425541AD026279022A63
:1027AC0096BF354F4FF4005C37F812C0A279042A5B
:1027BC0027D0003B18BF01231B03E279012A0A68CA
:1027CC000CBF4FF440770027A642D1681CD121F4EE
:1027DC00B05129430B43D360136923F4405343EAAC
:1027EC000C03136143681A68536923F440733B4329
:1027FC0053613168BDE8F84003F0A0BE4FF4C065EA
:10280C00CCE74FF48053D8E701F4C0618D421FBF71
:10281C00D16821F4C0612943D160426811680A690A
:10282C0002F4405294451FBF0A6922F4405242EA16
:10283C000C020A6142681168CA6802F48052934221
:10284C001FBFCA6822F480521343CB6043681A68D6
:10285C00536903F440739F421FBF536923F44073C1
:10286C003B43536121683368994203D003F066FE01
:10287C0023683360F8BD00BF40740008F7B5054607
:10288C00466804692E48206003F07FFE48B92D4A43
:10289C0001212D4802F0B1FF6FF01204204603B065
:1028AC00F0BD2068F16883681B6898470446E0B95E
:1028BC000021306A01AA03F04BFD041EEEDB019BE4
:1028CC00002219791868FFF7DBFE041EE6DB6E6840
:1028DC002B6934685F68E36823F40053E360706825
:1028EC0003F053FE48B9194AD2E70121184A164899
:1028FC0002F083FF002CD1DBDAE7D6E90101836813
:10290C00DB6803B1984704F10C0353E8003F43F034
:10291C000C0304F10C0141E80032002AF3D13946D2
:10292C002846FFF72FFF337D1BB1636943F0080383
:10293C006361E36843F40053E3600024AEE700BF37
:10294C00CC6B0008AE7B0008486E0008877C000842
:10295C00677C00082DE9F0410C464368A6791D6898
:10296C000369D3F804800B794979012B33D10229FF
:10297C004CD9042E47D04FF480574FF4C062032338
:10298C008B4240D1002F79D0002A14BF032204229D
:10299C00B24238D1E37963B1012B34D13A4B9D4229
:1029AC0007D0A3F574439D4203D003F580639D4289
:1029BC0029D1EB68214623F40053EB60FFF7E2FECC
:1029CC00EB6843F40053EB6094E8030088E80300E1
:1029DC000020BDE8F081022B08D1022921D9042E58
:1029EC0011D04FF480624FF48057C8E702290A4691
:1029FC001FD9042E04D133B94FF480571A46BEE7C1
:102A0C0063BB0329C4D06FF08500E2E71F4A042E94
:102A1C0032F811C0F7D04FF4C062033B012B10D831
:102A2C00F1E71A4A042E32F811C0ECD04FF4806250
:102A3C00F3E7164A042E32F811C016D1002BE2D15E
:102A4C001A464FF48057BCF5805F13D0BCF5405F3D
:102A5C0012D0BCF1000F92D1012391E7033B012B63
:102A6C00D1D90022BFE70022D7E7002BFBD11A46B1
:102A7C001F46E8E7002383E7022381E7002A14BFFF
:102A8C000222032284E700BF003801404074000892
:102A9C004FF0E02310B50F499C691A6908689B69CF
:102AAC000D4902F4803234B993B903464AB90A6825
:102ABC001044C01A10BD002B08BF03460AB9A3422C
:102ACC00F5D90A6802440A604FF0E0221269EEE779
:102ADC000446F3E7800800207C08002010220A4BF3
:102AEC00002083F823204FF4E152084B1A60084B66
:102AFC0041F61F4218604FF0E0235A6198611A6941
:102B0C0042F007021A61704700ED00E080080020D7
:102B1C007C08002010B5FFF7BBFF1049104B08686C
:102B2C00D3E90042001942F10002C3E9000200237C
:102B3C000B604FF4E1530B4AD2E90041001BB0FB90
:102B4C00F3F043431B1941F10001C2E9003100F0DD
:102B5C0025FFBDE81040FEF7A7BE00BF7C08002093
:102B6C0080050020780500202DE9F041DFF8E08099
:102B7C0099B1421C0BD14FF0E022136923F00103F1
:102B8C0013614FF07F43C8F80030BDE8F081D8F8EE
:102B9C000060012807DC00270BE0431CD8F800601C
:102BAC00F7D140F6191040F61A139842A8BF1846F0
:102BBC00471EEFF31185102383F31288BFF36F8F39
:102BCC00FFF766FF4FF0E023224C9969D4E900230C
:102BDC0080184FF0000243F10003C4E900031E4BC0
:102BEC001A601E4B1A68831A2ED44FF4E15C0CFB4E
:102BFC00073303F5E0531F33B3FBFCF7131A0CFB3D
:102C0C000733B3F5806F38BF4FF48063144A934297
:102C1C0028BF13464FF0E022C8F80030013B906902
:102C2C005361002381429361A1EB000338BF9B19D0
:102C3C00D4E900125B1842F10002C4E9003285F3BA
:102C4C001188BFF36F8FA0E74FF48063E2E700BFFA
:102C5C0080080020800500207C08002078050020DA
:102C6C0020DFFF0038B5EFF31185102383F31288B2
:102C7C00BFF36F8F084B1C68084B1B68E41AFFF7F7
:102C8C0007FF85F31188BFF36F8F4FF4E153204496
:102C9C00B0FBF3F038BD00BF8005002078050020A4
:102CAC000D4A536803F00C01082912D10B48C3F3E9
:102CBC008341DB03405C09D55368094AC3F34043A5
:102CCC005043084AD35CB0FBF3F07047064B5843B3
:102CDC0070470348704700BF00100240DF7C0008BB
:102CEC0000127A00DD7C000800093D00D8B10F4BC2
:102CFC00984216D80E4B984294BF002001200D4AE2
:102D0C00136823F0070303431360136803F00703EE
:102D1C0098421CBF136803F00703C01A18BF0120A8
:102D2C0070470220EBE70120704700BF006CDC020B
:102D3C0000366E010020024010B50446FEF79AF9E9
:102D4C0003480121034A02F058FD204603F028FCF9
:102D5C00386E0008EF7C00082DE9F84304460D4658
:102D6C0000AFEFF31188102383F31288BFF36F8F3A
:102D7C000428294A98BF294BE9468AB09668117CE9
:102D8C0098BF53F820306A4688BF254BC2E90731FB
:102D9C0040F2013323489384234BC2E9050442F8E3
:102DAC00103F00234FF431512048FEF733FACD4643
:102DBC0045B1EB69C3F3080323B101211C4A1B483D
:102DCC0002F01BFD2EB1304603F02FFC08B1037846
:102DDC0003B91848E9468AB06A46174BD061C2E974
:102DEC00053640F201331384144B42F8103F002394
:102DFC004FF411510D48FEF70DFA2946CD462046E9
:102E0C00FFF79AFF88F31188BFF36F8F3046FEF7F8
:102E1C0071FFBD46BDE8F883840800206C73000880
:102E2C00FE7C0008147D000805000001386E0008C7
:102E3C003C7D00080C7D00085D7D0008040000014D
:102E4C0038B5094B53F82040013053F82050A542B7
:102E5C0000D838BD636823B1204603F0A9FB0834C1
:102E6C00F5E723689847FAE780730008012270B5EC
:102E7C002A4B032086B01A70FFF7E2FF00F0B8FE71
:102E8C0003F0B2FB0420FFF7DBFF254C254D264653
:102E9C00AE4204F1300410D300F03CFB204C224E27
:102EAC00AC4226D300F04AFBFDF794FA1F4A137B81
:102EBC0023F00103137306B070BD54F80C3C05935A
:102ECC0054F8103C049354F8143C039354F8183CF5
:102EDC00029354F81C3C019354F8203C009354E9A1
:102EEC000A2354E90C0100F031F954F8303C5E65CA
:102EFC00CDE7D4E90A23B3F1FF3F08BFB2F1FF3F9E
:102F0C0005D052EA0301206803D103F090FB303462
:102F1C00C6E73146183000F0C7FCF8E7B7080020C8
:102F2C00006E0008006E000867670008F8050020B6
:102F3C0008B50348034A0021121A03F051FB08BDDF
:102F4C00C8000020BC080020702370B5134E01226D
:102F5C0003FB0066002386B0CDE904230F22019306
:102F6C00CDE9023214230E4D0E4903FB00550446E5
:102F7C0001EB00214FF4807230460B4B009500F0B2
:102F8C00E5F8737B2C7423F004037373074B013443
:102F9C0003EBC423EE606B6006B070BD88050020A7
:102FAC0084080020C0130020F7650008C00B002027
:102FBC00BFB50020FFF744FF294B83F30888294C49
:102FCC0000256369284E43F400736361F02384F891
:102FDC002230E57725766576A57684F82050636AED
:102FEC00224F43F4E0236362FEF75CFEFEF764FFBE
:102FFC004FF0FF33A362E362FDF7A0FF40F2011232
:10300C001B4B1C4C9A81B3601D6603F0BDFA01206A
:10301C00FFF716FF0220FFF713FF00F0AFFA164B75
:10302C0074610593012315494FF48062CDE9035374
:10303C0020463B46CDE90155009500F087F8064641
:10304C00627B204622F00402627303F02CFB2846BC
:10305C00FFF77AFF3A4631462046FEF70DFF00BFD8
:10306C00C013002000ED00E084080020792E000839
:10307C0068060020F8050020BF7D0008C014002061
:10308C0038B50446EFF31185102383F31288BFF390
:10309C006F8F03F07CFB48B10022C26603F003FB88
:1030AC002946BDE83840074800F0F0B9D4E90232AF
:1030BC009A4218BF0133A36085F31188BFF36F8F59
:1030CC0038BD00BFB808002013B5EFF311811024F0
:1030DC0084F31288BFF36F8F846844B1013C846021
:1030EC0081F31188BFF36F8F002002B010BD52EA3C
:1030FC00030406D181F31188BFF36F8F6FF00F00BB
:10310C00F3E7CDE900230246014800F093F9ECE720
:10311C00B808002070B50446EFF31185102383F333
:10312C001288BFF36F8F6FF00A06204603F02FFB57
:10313C0018B1C66603F0B7FAF7E7A0602946BDE8F8
:10314C007040014800F0A2B9B80800202DE9FF41F9
:10315C00984600F15803C0E916330E9B0026037302
:10316C000423D51D437325F007050D9B0D440F4615
:10317C0083732946C0E906668660C6730446FEF76B
:10318C0073FB0C9B073002930B9B20F00700019301
:10319C000A9B2D1A00932A46434639462046FEF7D1
:1031AC004FFE054B66659B6803B11B6E2846236674
:1031BC0004B0BDE8F08100BF84080020F0B5002504
:1031CC0087B00595109DDDE9127604950F9D044698
:1031DC0003950E9D02950D9D01950C9D0095FFF795
:1031EC00B5FFB6F1FF3F08BFB7F1FF3F05D056EA78
:1031FC00070305D1204600F05BF9204607B0F0BD6F
:10320C003A463346024904F1180000F04DFBF4E74E
:10321C006767000838B50D4D2B4653F8184F9C4284
:10322C0000D004B9EC68AB6838B95A7BD20604D12B
:10323C00A26912B9DA897F2A05D89C4202D02046AD
:10324C0000F078FA23466B6138BD00BF840800207B
:10325C0008B590F90D200146002A437B04DA03F0EF
:10326C007F03437303F0E5F9044B9868431A584203
:10327C005841BDE80840FFF7CDBF00BF84080020CF
:10328C0070B490F90D30427B002B29DBD30627D18B
:10329C0083692BBB134962F07F0242730A4652F8D2
:1032AC00184F944218BF2346CC6923B9C0E90024B7
:1032BC002060C8610CE090F90E5093F90E60B54295
:1032CC000AD0AE4208DD5A68C0E90032106058607E
:1032DC00002070BCFFF79EBF9C42E7D01B68E4E760
:1032EC0070BC704784080020002A2DE9F0410E467E
:1032FC000CBF10210821427B044611420FD141EA38
:10330C000203D20918D1437308291BD00120FFF7FF
:10331C0081FFBFF35F8F637B23F060036373264BE6
:10332C009B68A34241D1EFF30583002B3DD130467E
:10333C00BDE8F041FEF7F4BC03F07F03437303F0E8
:10334C0078F9E1E7A36813B1204603F07AF904F1A8
:10335C00180003F059FAA56D04F15807AF4211D0CB
:10336C004FF0000875B1284603F06BF905F1180011
:10337C0003F04AFA2846C5F86C80FFF781FFA56D6B
:10338C00AF42EFD10C4DAB689C42BFD1EFF305833C
:10339C00002BBBD00120FFF73DFF40F20112074B81
:1033AC009A810022AB601A66B3E786F31188BFF3EB
:1033BC006F8FBDE8F08100BF8408002068060020F4
:1033CC0070B590F90D200146002A437B04DA03F016
:1033DC007F03437303F02DF9154A4B7B104663F0C2
:1033EC007F034B7350F8183FD469834208BF002306
:1033FC0023B9C1E900042160D1610CE091F90E50B0
:10340C0093F90E60B5420ED0AE420CDD5868C1E99E
:10341C000030016059609068BDE87040431A584212
:10342C005841FFF7F7BE9C42E3D01B68E0E700BFB2
:10343C0084080020F8B5124B0C46DDE906761146DF
:10344C009868104A1060EFF31182102282F31288F0
:10345C00BFF36F8F9D68284603F0FDF8B6F1FF3F70
:10346C0008BFB7F1FF3F06D03A463346064905F18F
:10347C00180000F019FA2046BDE8F840FEF750BCE1
:10348C0084080020A40800206767000849B9EFF3FE
:10349C00058030B9054B5A699B689A4201D0FEF7FA
:1034AC003FBC81F31188BFF36F8F704784080020F5
:1034BC0010B5EFF31184102282F31288BFF36F8FD3
:1034CC00427B510704D484F31188BFF36F8F10BD76
:1034DC0022F004024273FFF7D3FE2146BDE81040F0
:1034EC000148FFF7D3BF00BFB8080020034648B916
:1034FC00EFF3058232B9064A51699268914201D0C4
:10350C00FEF70EBC83F31188BFF36F8F704700BFBB
:10351C0084080020EFF31181102383F31288BFF38A
:10352C006F8F054B9A68D37B013BD37381F3118862
:10353C00BFF36F8F704700BF8408002038B5EFF3DE
:10354C001185102484F31288BFF36F8F0A4B00206F
:10355C009A68D37B0133D373FFF75CFE85F3118834
:10356C00BFF36F8FEFF3118084F31288BFF36F8F6B
:10357C00BDE83840FFF7BABF84080020024B03F1C6
:10358C001802C3E90622704784080020F8B5EFF34F
:10359C001185102383F31288BFF36F8F1949886844
:1035AC00437B03F07F03437303F043F808468B68B7
:1035BC005A7B62F07F025A7350F8182FCC69824202
:1035CC0008BF002222B9C3E900042360CB610CE0E0
:1035DC0093F90E6092F90E70BE420ED0B7420CDD1C
:1035EC005168C3E900210B6053600120FFF712FE04
:1035FC002846BDE8F840FEF793BBA242E3D0126820
:10360C00E0E700BF8408002050EA01032DE9F041F7
:10361C0005460E4603D1FFF7B9FF00202BE0831CB3
:10362C0071F1FF3329DB03F004F92C18EFF3118847
:10363C00102383F31288BFF36F8F124F124BB868AD
:10364C001860FFF705FEB86810492A463346183053
:10365C0000F02AF9BA684046537B43F010035373C9
:10366C00FEF75EFB03F0E5F8201A63EB0303012879
:10367C0073F10003D1DBBDE8F0816FF00104241A73
:10368C00D4E700BF84080020A40800206767000866
:10369C00B1F1FF3F08BFB0F1FF3F08B506D10A4BAF
:1036AC00986803F00FF84FF0FF3008BDFFF7ACFF40
:1036BC00C11709304FF00A024FF0000341F100012D
:1036CC00FCF70EFDF1E700BF84080020014B986861
:1036DC00704700BF840800200122044BC01A044B21
:1036EC00C0105843034B1A54704700BFD806002033
:1036FC00ABAAAAAAB8080020C3897F2B12D80A4B00
:10370C001B6863B1094B90F90E201B689A4209DBC8
:10371C00437BDB0606D1064BC31A18BF012303F00B
:10372C00010070470023FAE7AC080020A80800202D
:10373C008805002070B50E4B0E4C1E7C182303FB25
:10374C0006440546204603F05FF800220A4B284643
:10375C009A55FFF7D1FF48B1084B2046BDE87040A1
:10376C001A680749013AD31700F09EB870BD00BF24
:10377C0084080020D8060020B8080020AC080020DF
:10378C00E536000838B5EFF31185102383F3128862
:10379C00BFF36F8F104B114A9C681068A04206D182
:1037AC00FFF7C8FF85F31188BFF36F8F38BD002179
:1037BC001B7C11600A4AD35C002BF3D02046FFF728
:1037CC009BFF0028EED0637BDB0602D12046FFF77F
:1037DC00F7FD2046E4E700BF84080020A408002081
:1037EC00B8080020074808B5074A0849121A02F021
:1037FC00F9FEBDE808400648064A0749121A02F0CD
:10380C00F1BE00BF00000020C4000020FC7E0008B8
:10381C000000002000000020FC7E0008034B1B6809
:10382C000BB9FFF71FBA0020704700BFB00800208B
:10383C0030B570B10B4B5B6898420AD0036843B14A
:10384C00D3E90421D0E90445121941EB0501C3E980
:10385C000421D0E9003213605A600023C0E9003320
:10386C0030BD00BF4800002010B50E4B1C689C42B8
:10387C0004D1FFF7D3FF6FF0004010BDFFF7CEFF70
:10388C00002CF8D0D4E904321B1A62EBE072B3F1CD
:10389C00004F72F10001EEDA002AACBF184600208E
:1038AC00EBE700BF48000020B3F1FF3F08BFB2F1C7
:1038BC00FF3FF8B504461D4616465ED08160EFF317
:1038CC001187102383F31288BFF36F8F013275F1C8
:1038DC00FF3324DA6FF001032D49D1E900209B1A44
:1038EC004FF0FF3262EB00009E1B60EB0500012ED7
:1038FC0070F1000301DA01260020C4E90460254EB2
:10390C00D6F800C07568B44508BF4FF0000CBCF188
:10391C00000F0DD1C4E900652C6074601CE0FFF74A
:10392C007DFF013645F10005361845EBE070E4E704
:10393C00DCE90420D4E90431934271EB000E1DDA6A
:10394C00D21ADCF8043060EB0100CCE90420C4E9A5
:10395C0000C31C60CCF804403368B34209D09C42CD
:10396C0007D10D4B1C6824B9FFF77EFF2146FFF7EA
:10397C00FBF887F31188BFF36F8FF8BD9B1A61EBCF
:10398C000001AC45C4E90431C4D0DCF800C0BEE78A
:10399C00F006002048000020B00800202DE9F84F68
:1039AC00EFF3118C102383F31288BFF36F8FDFF8C2
:1039BC00B0A0DFF8B0900024C9F80000DAF80000DD
:1039CC000025504508BF0020274FE046D7E90021CD
:1039DC00D9F8003078B3D0E9046C4FEAE37EB342F7
:1039EC007EEB0C0B05DAF61A6CEB0E04C0E90464E2
:1039FC0021E0B21841EBE671C0E90445C7E90021AA
:103A0C00FFF716FF88F31188BFF36F8F8368984711
:103A1C00EFF31188102383F31288BFF36F8FD9F85B
:103A2C000030DAF800009B1B5045C446C9F8003042
:103A3C00CBD1D7E9002100249A1841EBE373C7E9F5
:103A4C000023C9F80040FFF70FFF2146FFF78CF861
:103A5C0088F31188BFF36F8FBDE8F84FFFF792BE64
:103A6C0048000020B0080020F006002010B5EFF34D
:103A7C001184102383F31288BFF36F8FFFF7CEFEF0
:103A8C000346054AD2E90001181841EBE37184F3AF
:103A9C001188BFF36F8F10BDF0060020F8B50446F7
:103AAC00EFF31187102383F31288BFF36F8F026833
:103ABC0022B187F31188BFF36F8FF8BDD0E90A36B6
:103ACC00581C46F10001022871F1000127D3012B8B
:103ADC0076F10001BCBF012316465D1E46F1FF3690
:103AEC0002F0ABFE013041F10001401946EB01013F
:103AFC00012871F1000139DB02F09FFE013041F128
:103B0C0000016FF00102401946EB01034FF0FF3149
:103B1C00121A61EB030320461749FFF7C5FE236B0E
:103B2C0001332363236A6BB187F31188BFF36F8F63
:103B3C002046236A9847EFF31187102383F31288EA
:103B4C00BFF36F8F54F8185FA542B2D0002DB0D0E0
:103B5C00284602F0D0FD0023EB6687F31188BFF3F3
:103B6C006F8F2846BDE8F84002F09DBD6FF0010252
:103B7C004FF0FF33CFE700BFA93A00082DE9F04121
:103B8C0005461C4690461F46EFF31186102383F31F
:103B9C001288BFF36F8FB4F1FF3F08BFB2F1FF3F44
:103BAC0005D186F31188BFF36F8FBDE8F081531CEC
:103BBC0074F1FF3309DB012A74F10003BCBF01224D
:103BCC00002412F1FF3844F1FF37284602F01CFEA6
:103BDC00DDE906010023C5E90A012B6342463B4699
:103BEC0028460249FFF760FEDBE700BFA93A000850
:103BFC00014801F0F4BA00BFC77D00080CB430B521
:103C0C0089B005460C461C22002101A802F07AFF5F
:103C1C0002238DF806300E4B0595029323462CB1EA
:103C2C00B4F1004F28BF4FF00043013B1D440DAAD7
:103C3C000C9901A80695009200F0A6F814B1002288
:103C4C00059B1A7009B0BDE8304002B0704700BF48
:103C5C00216B00082DE9F04101260746B24201DC38
:103C6C00BDE8F0813B461F4613F8014B002CF7D002
:103C7C00252CF8D11C780237252CF3D000239C4638
:103C8C001D46DFF800811F2D18D8A4F1200EBEF1BF
:103C9C00100F09D9A4F1300EBEF1090F1ED80A2459
:103CAC00202504FB03E304E028FA0EFE1EF0010FAE
:103CBC0006D017F8014B002CE5D128E07F2D1CD83D
:103CCC00A4F1300EBEF1090FE9D9242C10D1BCF1AE
:103CDC00000F46D0B34246D00023EAE724F0040E8E
:103CEC00BEF12A0FF8D06C2C09D145F08005E0E725
:103CFC0024F0040EBEF12A0FEED06C2C22D06C2CCA
:103D0C001BD8682C23D06A2C28D04C2C26D0BCF184
:103D1C00000FA5D0B445A1D144F02007A7F1650C44
:103D2C00BCF1020F0B6801D9612F1ED1073323F0B0
:103D3C00070308330B6001368FE7742CB9D07A2C4B
:103D4C00B7D0E4E72C0648BF45F40075CDE7EC0589
:103D5C0048BF45F4007545F48075AAE745F4207515
:103D6C00A7E79C46B8E76324D6E7692C02D007D8AE
:103D7C00632C03D02F0601D5AC05D7D40433D9E777
:103D8C00732CF6E7892801002DE9F04F436895B0B4
:103D9C000393837880469B07CDE90A1211D50B4615
:103DAC0000260D921F7877B1252F10D0013309937F
:103DBC0041463846039B9847002806F1010680F2DD
:103DCC002C854FF0FF36304615B0BDE8F08F5F788C
:103DDC009A1C252F0992EBD000242546A246A34617
:103DEC00BBF11F0F32D8A7F12003102B0AD8DFE844
:103DFC0003F02409092A0909091B090909220927C1
:103E0C0009091900A7F13003092B2DD92A2F39D113
:103E1C0054B90D9B1BF0400F53F8042B0D9329D074
:103E2C00154601E04BF0010B099B13F8017B09933C
:103E3C00002FD5D156E04BF0020B4BF0040BF3E7FF
:103E4C004BF0080BF0E74BF0100BEDE7BBF17F0FDD
:103E5C003FD8A7F13003092BD8D81BF0400F03D063
:103E6C000A2202FB0535DFE70A2202FB0A3A4BF075
:103E7C00200BD9E7B2F1000AF9DACAF1000A4BF0CB
:103E8C00280BD1E72E2F05D11BF0400F9BD14BF007
:103E9C00400BC9E7242F1CD1002C00F08A800B9B0F
:103EAC001BF0400F0D930AD152460A980DA9FFF74B
:103EBC00D1FE0D9B1A1DD3F800A00D92B4E72A4633
:103ECC000A980DA9FFF7C6FE0D9B1A1D1D680D92D1
:103EDC00AAE76C2F5AD052D8682F5FD06A2F65D0C2
:103EEC004C2F63D034B10B9B22460A980DA90D932D
:103EFC00FFF7B0FE002D47F02003B8BF2BF0400BAE
:103F0C000793A3F16503BCBF00251FFA8BFB022BA3
:103F1C0054D947F02003612B40F06183FF4307F035
:103F2C00200308930D9B073323F0070303F10802CA
:103F3C000D924BF4C05204921A6805925A68DDF83F
:103F4C0014C0C2F30A57C2F3130047EA0C0353EA36
:103F5C00000401460BF040044FEAD2725AD13027CC
:103F6C00D2B28DF83D708DF83C20A7B2002C00F039
:103F7C00BF810C2D4FF000075EDD0D25B3E0742FD3
:103F8C003FF452AF7A2F3FF44FAFABE71BF0800FEB
:103F9C0018BF4BF4007B4BF0800B45E71BF4807F84
:103FAC0018BF4BF4007B4BF4807B3DE74BF4207B3C
:103FBC003AE725465446AB46AA4635E7FF4307F099
:103FCC00200308930D9B1BF0400F03F1070323F014
:103FDC00070303F10802D3E90001079B08BF06257C
:103FEC00652B0D9240F09881002214466B1CDBB2BD
:103FFC004BF4805B112B28BF1123CDE900240EAAB2
:10400C0000F0AAFCC3B2059302230E9FCDF810B0AA
:10401C00069380E0002F00F03A813123D2B28DF864
:10402C003D30A7F2FF378DF83C20A3B2002C00F0F6
:10403C0056810C2D00F355810123C5F10D0189002A
:10404C0001F1FF39A1F12104C1F1210E23FA0EFE79
:10405C0003FA04F403FA09F344EA0E0413EB030E17
:10406C0044EB0409DEF1000BCDF818B069EB490BF9
:10407C00CDF81CB0DDF814B01EF1FF3E49F1FF394C
:10408C000EEA0B0E09EA0009734574EB090912DB01
:10409C00C1F12009B1F1200E00FA09F92BFA01F156
:1040AC0041EA09015CBF40FA0EFE41EA0E0111F033
:1040BC00010F00F0EF800599CB1840EB0400B0F530
:1040CC00801F9C46C0F2E6809DF83D10B7F5806FCE
:1040DC0001F101018DF83D1000F0E880069A079976
:1040EC001A40134601400D20089AC2F1570403F000
:1040FC000F021B0943EA01730911002A40F0FD80ED
:10410C00854280F2FC800138F1D10E230120CDE9EB
:10411C0005307023079307F10902122A3B4600F27F
:10412C00D0809DF83CB00BF00C091BF0010B40F05B
:10413C002A81049B9A0700F1208113F0040400F0FB
:10414C00FF80B9F1000F40F024814FF02009049B4F
:10415C0013F4405F23D1002D08BF0125059B50337C
:10416C006B44133B059A22B113F8012D302A00F051
:10417C004481049B13F0100F059B18BF2B46381D70
:10418C00C0F24081BD4240F33D81049ABB4242F4EF
:10419C00005292B2049240F337817D1C5D1B049B4C
:1041AC0013F4005B00F0328127EAE7740134B9F1B3
:1041BC00000F00D00134002D00F031816B1C1C4429
:1041CC00049BA245D4BF0024AAEB040413F0090FEE
:1041DC0004D13444A64240F027810024B9F1000FE9
:1041EC0008D041464846039B9847002806F1010633
:1041FC00FFF6E7AD049B1A0513D541463020039B0F
:10420C0098470028FFF6DDAD089B4146C3F17800C6
:10421C0000F0F800039B9847002806F10206FFF611
:10422C00D0AD049B1B0705D43444B44240F0068146
:10423C0026460024BBF1000F00F0318127EAE77A13
:10424C00A7EB0A0B6D42059B0AF1FF3A5B4585BF54
:10425C000EAB5B4430205879554506F1010900F34B
:10426C00F7804146039B984700280BF1010BFFF6A2
:10427C00A8ADBAF1FF3F08D141462E20039B9847C9
:10428C000028FFF69EAD06F102094E46DBE730230F
:10429C000127C3E6069B03EA0C0C079B0340184658
:1042AC00B7F5806F26D15CEA00001CD04FF4806714
:1042BC0042F008028DF83C200E23059370230793DF
:1042CC003B4603F16302C62A38D940F2CE7203F2A0
:1042DC00E73393428CBF04230323069321E71D4647
:1042EC00DEE70D25DCE742F004028DF83C20E3E725
:1042FC003D46F8E663460146F5E6092A09D8303210
:10430C000DF1380C84448542B8BF05468CF8052065
:10431C00F9E62244D2B2F3E7079B662B05D12C4673
:10432C00012211234BF4005B64E600226527EBB2FB
:10433C00012B38BF0123144607975BE60223CCE719
:10434C00B9F1000F3FF403AFBAF1030F34DD049B56
:10435C00AAF103041F072FD4344441462020039BA9
:10436C009847002806F10106FFF62BADA642F4D1C2
:10437C00BBF1000F36D0002415E0B9F1000F2BD1A2
:10438C004FF02B09E3E6B9F1000F28D14FF02D09BE
:10439C00DDE64FF0200BBAF1040FECDD049BAAF123
:1043AC0004041D07D8D541465846039B984700285E
:1043BC0006F10106FFF605AD9DF83C309F4D13F05C
:1043CC00080F9F4B08BF1D462F46B94617F8010B27
:1043DC0050B9751BA9445DE04FF02B0BDBE74FF098
:1043EC002D0BD8E75C46E7E7089B4146C01AC0B2E4
:1043FC00039B98470028E8DAE3E4059A013AD2B225
:10440C000592AFE65D1ECAE60025C8E6049B13F4D0
:10441C00006F0CBF03240524069B1C44C7E6049BB9
:10442C00D90648BF0134CBE641462020039B984770
:10443C00002806F10106BFF6CDAEC2E4414630209D
:10444C00039B9847002806F10106BFF6EEAEB8E4D0
:10445C00BA450AD19DF83D30352B1ED805D19DF8B3
:10446C003C3013F0100F08BF31204146039B984796
:10447C000028FFF6A6AC049BD8060BD5BAF1FF3F7B
:10448C0008D141462E2006F10209039B98470028CB
:10449C00FFF697AC4E464C4446E23120E5E79DF8DA
:1044AC003D00414631281EBF9DF83C3023F01003DF
:1044BC008DF83C30039B98470028FFF682AC002D0A
:1044CC006DDD41462E20039B9847002806F102091A
:1044DC00FFF677AC01263346059A414696423DBF1E
:1044EC0050336B4413F8130C3020039B984700286F
:1044FC0009F10109FFF665AC0136F6B2AE4233465E
:10450C00EADDDDE90732981A4146039BC0B29847B1
:10451C000028FFF656AC002F04DB4FD19DF83C3041
:10452C00DB064BD52D207F424146039B9847002844
:10453C00FFF647AC069B042B42D14FF47A7697FBDF
:10454C00F6F505F130004146039BC0B298470028B0
:10455C0009F10309FFF635AC06FB1577642697FBCA
:10456C00F6F505F130004146039BC0B29847002890
:10457C0009F10109FFF625AC06FB15770A2697FB16
:10458C00F6F505F130004146039BC0B29847002870
:10459C0009F10109FFF615AC06FB157718E0049B31
:1045AC00DA0602D406F10109ABE741462E20039B43
:1045BC009847002806F10209A3DA02E42B20B3E79E
:1045CC00069B09F10209032BC8D0069B012BD5D100
:1045DC0007F13000414609F10109C0B255E7A7F1D6
:1045EC006303122B00F20081DFE813F01300580074
:1045FC00FE00FE00FE00FE005800FE00FE00FE0065
:10460C00FE00FE001A01F900FE00FE002C00FE0068
:10461C00BA0001240D9B0EAF1A1D1B680D928DF86C
:10462C0038301BF0080F2ED03D4607EB0409A94586
:10463C002BD1F71BB944AAEB04042BE7F07E00083E
:10464C00DC7600080D9B1A1D0D921F68AC4B002FD9
:10465C0008BF1F461BF0400F14BF29464FF0FF3117
:10466C00384602F014F90446DBE741462020039B50
:10467C0098470028FFF6A5AB013DA542F5D8564456
:10468C00761BAA46D0E75546F7E7414615F8010BCD
:10469C00039B98470028CADAFFF793BB1BF0800FE7
:1046AC000D9B3CD01BF4007F34D0073323F0070361
:1046BC0003F108020D92D3E900012BF01009002937
:1046CC001FFA89F93DDA404261EB410149F48069F6
:1046DC000A230DF1380B5A4602F0E5F819F0400F99
:1046EC00A0EB0B0B65D029F001025D4592B240F3B3
:1046FC00B380002F00F0AB8019F010032C469146CC
:10470C0040F0AD8040F2064319EA03031CBF0023BE
:10471C00013455E01A1D18680D92C117CDE71A1D0A
:10472C001BF4807F19680D9201D10846F5E71BF444
:10473C00007F15BF48B208B241F3C01141F3C0313C
:10474C00BBE750EA0103C3D11BF0400FC0D0002DD2
:10475C00BED12BF0110B1FFA8BF9AB462C46D1E7CF
:10476C000A232BF0100B1FFA8BFB1BF080040D9A05
:10477C0059D01BF4007115BF0732101D22F007022F
:10478C000D900FBF106802F108010D91D2E90001E4
:10479C0050EA010254D12BF016091BF0400F1FFAFE
:1047AC0089F951D0002D4FD12BF0170B1FFA8BF933
:1047BC00AB4619F0100354D0002F4FD10BF101046C
:1047CC0019F0080F60D119F0010F06D0A2456FDD6A
:1047DC00AAEB040404EB0B05544622464FE01023CD
:1047EC0078274BF0100BC0E747F02003782B05D14E
:1047FC00582F14BF10234FF40473B6E741462520FD
:10480C00039B98470028FFF6DCAA41463846039BD9
:10481C0098470028FFF6D5AA0236099BFFF7C2BAC3
:10482C0008230027A1E7111D0D911BF4807110685E
:10483C00AED01BF400711ABF2146C0B280B2A7E7FC
:10484C002BF0060B1FFA8BF90DF1380B43E729F00F
:10485C0011091FFA89F981E79146AAE75C460234EF
:10486C00AEE75C464EE7CDE9042341462020039B8E
:10487C0098470028FFF6A5AA049A059B0132924599
:10488C00F1DC341BA6181446A3B141463020039B1F
:10489C0098470028FFF695AA7FB341463846023662
:1048AC00039B98470028FFF68CAAB14635441BE0C1
:1048BC005D4692E740F2064319EA030FF5D019F072
:1048CC00020F14BF2B20202019F4806F414618BF13
:1048DC002D200136E4E741463020039B9847002801
:1048EC0009F10109FFF66DAAA5EB09035B45F2DCA2
:1048FC005D460EAE35B9D9449DE60136D5E700BF0D
:10490C00F47E0008013D4146705D039B98470028EA
:10491C00F0DAFFF756BA41462020039B984700284F
:10492C0006F10106FFF64DAAA31B002BF3DC74E77E
:10493C001FB502AB0093074A4FF0CC3302F09AF844
:10494C00DDE90201C00840EA4170C90805B05DF814
:10495C0004FB00BFCDCCCCCC2DE9F04F9BB0059225
:10496C000A460A939DF89030C2F30A55D20F0B9366
:10497C000446C1F313030992090D85B950EA0302E9
:10498C001CD130230126059A5371099B957143F074
:10499C0002031371156030461BB0BDE8F08F40F276
:1049AC00FF7295424AD10343099B059A14BF43F009
:1049BC00080343F0040300261371ECE700F0010236
:1049CC00089201229A4616464FEA8308AA4D48EAF5
:1049DC0090788700C5F1000B5846069200F01CFB3E
:1049EC00B5F1FF3FACBF8146A0F10109ABEB090B60
:1049FC0009EB05035846049300F014FB16A9A0F12B
:104A0C007D05584600F012FA069A12ABA9EB050583
:104A1C00019310AB20460292009351462B4616AAE6
:104A2C0001F06BFFB9F1010F04460D4600F2D28084
:104A3C00089B002B40F0C58001276BE043F4801AE3
:104A4C0000F001024FEA8A080343A5F235450892AB
:104A5C0048EA90784FEA800749D140F2FE73194238
:104A6C000CBF01260026002D3246B3DB284600F091
:104A7C00CDFA032DC8BF0138049000F0D3FA049B83
:104A8C007C305D1B054416A9184600F043FA12ABA6
:104A9C00019310AB2046009351462B46029616AA62
:104AAC0001F02BFF049B0446152B0D4600F286806B
:104ABC0014AB724A009338464FF0CC33414601F0A8
:104ACC00D9FFDDE9109A149B159A9B0843EA82736F
:104ADC0003EB8303BB420CD13846414600F08EF900
:104AEC00049B83428CBF00270127002612E001267D
:104AFC00B9E7089B002B51D1013F48F1FF31B81B9E
:104B0C0061F1000100F07AF9049B089F83428CBF8D
:104B1C00002601260B9B002B40F09080DDF828B07E
:104B2C004FF000084FF00A0ACDE90688DDE91001C4
:104B3C00FFF7FEFE129BCDE90C01184613990E935C
:104B4C00FFF7F6FE0C9B0D9A98420B46934181465B
:104B5C000F9180F08D8020462946FFF7E9FE0AFB75
:104B6C0009F30E9AB8F1000F14BF002707F00107E4
:104B7C00934214BF002606F001060C9B0AFB10485A
:104B8C0010930D9B0446CDE911390F9B0D461393E1
:104B9C00079B5FFA88F801330793C7E7B81C48F105
:104BAC00000100F02BF9049B83428CBF00200120F4
:104BBC00B9EB00006AF10002CDE9100200273E4675
:104BCC00A8E7109B119A013B42F1FF320127CDE976
:104BDC0010328AE7B9F13E0FF0D84FF0FF33A9F14C
:104BEC00200003FA09F203FA00F0C9F1200123FABC
:104BFC0001F102430A4303FA09F327EA030728EAFF
:104C0C00020857EA08070CBF012700276DE700FBD5
:104C1C0002FCA1FB0012013362448C4275EB020CC6
:104C2C00F5D2049ADDF828B01344259A1344012BCD
:104C3C00B8BF01239B45A8BF9B4671E70A21002200
:104C4C0001230846E9E70AFB03F0A2FB0A23013122
:104C5C000344944275EB0300F5D2594510DDBBF1CA
:104C6C00000F02D154EA05030AD00123069372E720
:104C7C000A2200230121ECE7CCFBFFFFCDCCCCCCEE
:104C8C00002E2FD04FF00A0A129B139918460D9341
:104C9C00FFF74EFE0AFB00F20D9B81469A420C91E7
:104CAC0020D1DDE91001FFF743FE0E900D91204657
:104CBC002946FFF73DFE0D9BB8F1000F14BF0027EE
:104CCC0007F00107CDE911390C9B0AFB104813932F
:104CDC00079B0E9A013304460D465FFA88F8109232
:104CEC000793D1E7DDF81090079B9944002F5DD016
:104CFC00B8F1050F5AD114F001034DD1069A32B90F
:104D0C00DDE912239D4208BF944262D0069B18191C
:104D1C004FF00A0445F10001002201262546A0426D
:104D2C0071EB020758D2E3B1B3451ADA0B9B63B1AE
:104D3C00259A06EB0903DDF828B0134423EAE37344
:104D4C009B45A8BF9B465E450BDD05304FF00A0224
:104D5C004FF0000341F10001FBF7C2F909F1010921
:104D6C00013E5E45A8BF5E460FFA89F936B2B144E2
:104D7C0009F1FF374FF00009059B06F1050898442F
:104D8C00B14530DB0022059B33445A71059B1A4612
:104D9C001F60099B1371FEE5069B2BB9DDE91223FD
:104DAC009D4208BF944209D00123B0E7069B53B93A
:104DBC00DDE912239D4208BF944204D1089B002BCD
:104DCC00F2D1002EF0D0B8F1040F94BF00230123D0
:104DDC009DE74FF00408F1E705FB02F7A4FB054241
:104DEC0001363A449BE70A220023FBF779F930326B
:104DFC0008F8012D09F10109C2E700BF70B503469F
:104E0C004FF0CC3600204FF03335074A06FB03F445
:104E1C0002FB0144A3FB023121449D4275EB0104CA
:104E2C0001D30130F2E770BDCDCCCCCC1A232DE9E7
:104E3C00F04FB0FBF3FA03FB1A03334E04460D4656
:104E4C0089B006EB0A1653B9D6E90023C1E9002351
:104E5C00D6E90201C5E9020109B0BDE8F08F2B4A81
:104E6C0002EBC303D3E9008904AB0093D6E9022318
:104E7C004046494601F0FEFD83460F4606AB0093C3
:104E8C00D6E900234046494601F0F4FDDDE906620F
:104E9C0016EB0B0652EB07084FF0000328BF01235B
:104EAC00814633B1049B059A013342F10002CDE9EE
:104EBC0004322046039100F0B5F807461A2000FB97
:104ECC000AF000F0AFF83F1A3246434648460399C1
:104EDC00009701F0EAFD0E4A4FEA141C640004F03E
:104EEC001E0352F82C40DC4004F00304241841F15A
:104EFC000001C5E90041DDE9042330464146009735
:104F0C0001F0D3FDA6E700BF306F0008606E00080B
:104F1C00987300082DE9F04F1A2700F11905B5FB1D
:104F2C00F7F56F43DFF8D8A03A1A4FEA051B044691
:104F3C000E4689B00AEB05150AD1D5E90023C1E963
:104F4C000023D5E90201C6E9020109B0BDE8F08FE2
:104F5C002C4B03EBC203D3E9008904AB0093D5E9D6
:104F6C0002234046494601F085FD5AF80B206B6838
:104F7C00013ACDE9020106A963F100034046009114
:104F8C00494601F077FDDDE906528A460299002375
:104F9C006D180399814652EB010828BF012333B1E8
:104FAC00049B059A013342F10002CDE904323846E4
:104FBC0000F038F80746204600F034F83F1A2A462D
:104FCC00434648465146009701F06FFD0E4A4FEAA2
:104FDC00141C640004F01E0352F82C40DC4004F056
:104FEC0003040134241841F10001C6E90041DDE954
:104FFC00042328464146009701F057FDA3E700BF64
:10500C0000700008606E0008EC730008014B5843F8
:10501C00800C704741340100014B5843000D704720
:10502C00FB2E0B00024B5843C00C0130704700BFE5
:10503C004F93120070470A2180FB0101FEF728BB39
:10504C001FB5CDE9011202228DF80C2083680122D4
:10505C009C6801A91423A04704B010BD00EBC1004B
:10506C00408840087047F8B50346FFF7F7FFB0FAE1
:10507C0080F0C0F11F0003EB800CDCF81060CA005C
:10508C00171D0C4606328DB256B9012101FA00F0FB
:10509C00D9680143D960CCF81040DD539D52F8BD5E
:1050AC00F1000431585AD85303EBC0009E52C5800E
:1050BC005D52F4E7043A2DE9F041CC1D114424F083
:1050CC00070421F007010E1BF708B7FA87F24FF01F
:1050DC000008C2F12405AD000735C2F12002ED082D
:1050EC0004604146A760C4F80C80920004F11000E3
:1050FC0001F008FD6B0043F0010363807B1B04EBA4
:10510C00C5025900A4F800805180A21924F835502A
:10511C00A2F80280A35304EBC7035A88294642F035
:10512C0001025A802046BDE8F041FFF79CBF2DE9F3
:10513C00F04706460D46174698462BB34FF0000A2B
:10514C0098F8004093F80190DB78A40004EB43043A
:10515C0098F802301C444444CA4509D339463046B9
:10516C00AC46D8F8042008F10803BDE8F0476047C6
:10517C0014F8013B0AF1010A204648F82340FBF7DA
:10518C0019F901300444E7E76FF01500BDE8F0872A
:10519C0070B5002502462846144614F8013B0BB99D
:1051AC00184609E098B18D4207D1702B04D0A3F1B9
:1051BC0040023A2A0BD8002070BDA3F140063A2ECB
:1051CC0005D853780135941C002BE9D00020252BF1
:1051DC00224608BF80F00100DEE7002070470FB4C4
:1051EC0007B504A951F8040B019100F084FA03B03F
:1051FC005DF804EB04B0704710B50369024613F078
:10520C00080009D11368D4689C429BBF0120126A24
:10521C00E31AD31A0B6010BD00231846FAE713B536
:10522C0001A90446FFF7E8FF20B1019BE268013BAE
:10523C0013440193206A019BC01A013802B010BDBF
:10524C0010B5044650182269236AD20702D5013BD7
:10525C00184010BD984228BFC01AFAE710B5044692
:10526C000A46C168FFF7ECFF2369E06023F00803EE
:10527C00236110BD38B50D46C2698B00016843F03F
:10528C000203044642F8213001682A46FFF7D8FF92
:10529C00E3686168984208BF2369206008BF43F047
:1052AC0008032A46204608BF2361FFF7C9FF606048
:1052BC0038BD2DE9F74FC768C6699B4616F82730ED
:1052CC00044603F00303022B884691464FF000037B
:1052DC0006EB870A09D01360CBF8003023699907D5
:1052EC0010D4002003B0BDE8F08F56F827101360DF
:1052FC008908CBF80030F1D0FFF7B0FFE368A3606A
:10530C000120EFE7A3695046984716F82730054669
:10531C00DA07E6D513F002031DD0B8F1000F03D065
:10532C0041462046FFF7A6FF61682A462046FFF754
:10533C0087FFD4E902319942606004D12A462046A5
:10534C00FFF77EFFA060A3682360E360236943F04E
:10535C0008032361D4E7014620460193FFF77EFF43
:10536C00E268A260B8F1000F04D02168E269019BE9
:10537C0042F8213005EB0802CBF8002021682046CA
:10538C00FFF75EFF2369206043F00803236116F8E2
:10539C0027306FF3000306F82730C9F800A0AFE7F9
:1053AC0070B504461546FFF74BFF2368834205D1C1
:1053BC002369216023F00803236170BDE269AB000F
:1053CC0043F0020342F8213061682A462046FFF779
:1053DC0037FF6060F1E738B5036904465B0706D513
:1053EC00456AFFF71CFF85422CBF6562606238BDC1
:1053FC0038B50D4604461C22002101F083FB002227
:10540C00EB68A361AB6863612B68E3616B686262F4
:10541C0023622A6923B1591E194208BF42F00102C6
:10542C002261012204F128000021BDE8384001F07E
:10543C00E7B82DE9F04F002587B00093036A0446C6
:10544C008B420E469246A9460395059539D3EFF348
:10545C00118B102383F31288BFF36F8F059AD846F4
:10546C002AB129462046FFF79BFF0023059304A988
:10547C002046FFF7C1FE04990746B1422AD32268A1
:10548C00E369204613F8221003EB820921F0030193
:10549C0003F8221021683246FFF7D2FEE368206041
:1054AC00984212D0002788F31188BFF36F8F0399AD
:1054BC0029B162690AB12046904700230393002F5B
:1054CC00C5D1484607B0BDE8F08F236943F0080307
:1054DC002361E7E718B12046FFF7CCFEE3E7009B1A
:1054EC005AEA03021CD0019101F096F80199B8B95F
:1054FC00BBF1000F14D187F31188BFF36F8F5246A5
:10550C00009B04F12800FDF7DFFDEFF31188102359
:10551C0083F31288BFF36F8FB0FA80F77F09C2E76D
:10552C00204605AB03AA2568FFF7C3FE0746BAE77A
:10553C0070B50446836908460D4698470246EFF35A
:10554C001186102383F31288BFF36F8F2B782046BC
:10555C0043F001032B706168FFF772FE6060204618
:10556C00FFF739FF86F31188BFF36F8F70BD2DE9FC
:10557C00F04104461027EFF3118687F31288BFF32E
:10558C006F8F236913F0080FA36802D162689342EE
:10559C0000D9226AD21AE16932B986F31188BFF3B5
:1055AC006F8F4FF0000833E011F8232001EB8308D4
:1055BC0012F00300F1D0022803D151F82350AD08AA
:1055CC0005D1D00712D44046A36998470546A16877
:1055DC002A462046FFF734FE2946A0602046FFF7F6
:1055EC003DFE86F31188BFF36F8FC4E742F00202D1
:1055FC0001F82320A3694046A5689847294602462E
:10560C002046FFF71DFEA06086F31188BFF36F8F55
:10561C004046BDE8F081F8B50446836908460D465E
:10562C0098470646EFF31187102383F31288BFF3D4
:10563C006F8F2B786FF300032B7023699B0705D5B5
:10564C00E268E36903EB82039D421AD12B786FF376
:10565C0041032B70D4E90231994204D132462046E1
:10566C00FFF7EEFDA06031462046FFF7F7FD87F30C
:10567C001188BFF36F8F04F12800BDE8F840FDF7E7
:10568C00FFBC2B6860F39F032B60F0E70269836813
:10569C00120702D442689A4200D2026AD31A181E28
:1056AC0018BF01207047704703785B075FBF036822
:1056BC004288C3F34A2303EB12105DBF173020F06E
:1056CC000700800800207047002070470346BFF396
:1056DC005B8F53E8000F421C43E800210029F8D1EE
:1056EC00BFF35B8F704708B501F0A7F80A220023BF
:1056FC00FAF7F6FC08BD1FB50023CDE902011A46E6
:10570C0019461846CDE90033FBF708FE05B05DF8E5
:10571C0004FB0120FBF7B8BB002070474368DA712B
:10572C0001224368196043685A71FBF79FBB70B53F
:10573C00D2E901369B1B8B420C4615460AD31368E3
:10574C000A460146981901F0CFF92046AB6823446C
:10575C00AB6070BD6FF01B00FBE770B50E461546D5
:10576C001946044618B9BDE87040FBF78DBB33B140
:10577C00C2F34A231030120D184401F0B5F9C4E9F4
:10578C0000562046BDE87040FBF724BD2DE9F341DF
:10579C005F1C4FEA8708064608F1170020F0070047
:1057AC0080080C461546FBF7F1FB00238DF80470BE
:1057BC00ADF805308DF8073068B10346019AA8F1B1
:1057CC00040143F8102F2A46294452F8045B8A42FC
:1057DC0043F8045FF9D100233146A20102F4E072D0
:1057EC0042EA482222F07F4222F4700222F03F0269
:1057FC0002B0BDE8F041FFF7B0BF07B5012301923D
:10580C0001AAFFF7C3FF03B05DF804FB07B5CDE9B0
:10581C00002302236A46FFF7B9FF03B05DF804FBCF
:10582C00F8B506460D4614461F4604B9F8BD214688
:10583C0028463A46B047241A0544F6E710B54268A4
:10584C0004460CCA81680068FFF7EAFF002263680F
:10585C001A6010BD38B54B6805461A68CB680C4603
:10586C009A4202D10846FFF7E9FF6368BFF35B8FEA
:10587C0053E8002F511C43E800100028F8D1BFF367
:10588C005B8FA36800209D5438BD0A2838B50446A8
:10589C000D4602D10D20FFF7DDFF29462046FFF70C
:1058AC00D9FF002038BD2DE9F043054687B00846E6
:1058BC000E8891F800900C46D1F808801746FBF73B
:1058CC007DFD011EC6F38216C9F3C2091EDB4846D4
:1058DC00FBF792FC0346214651F8102B6088C2F36B
:1058EC004A22002A01EB020408BF00210022C0F367
:1058FC000B10CDE90407CDE9021428464146019668
:10590C000092FBF787FD07B0BDE8F0830023E2E7C8
:10591C00436800201B685B681961704743681B680B
:10592C001A68526853607047012143681B685A68B3
:10593C0011751868FFF782BF43681B681868FBF77E
:10594C00D7BE70B543680C461D686B681869FBF7C9
:10595C0077FA214603460F222868BDE870401847A5
:10596C0001460068FBF718BF0A460121FFF745BF47
:10597C0000210120FBF710BF61B662B680F31188DD
:10598C00BFF36F8F704772B6002383F31188BFF398
:10599C006F8FBFF34F8F30BF62B6BFF36F8F7047FF
:1059AC0008B5D1E904319847002008BD08B5FCF7CB
:1059BC00A7FA002008BD08B5062201210020FCF73B
:1059CC0007FB002206201146FCF70CFA01210722E6
:1059DC000846FCF7FDFA002207201146FCF702FAF4
:1059EC00082201210220FCF7F3FA002208201146BC
:1059FC00FCF7F8F9092201210320FCF7E9FA00224F
:105A0C0009201146FCF7EEF90A2201210420FCF7CB
:105A1C00DFFA00220A201146FCF7E4F905211722CF
:105A2C000846FCF7D5FA002217201146FCF7DAF9E4
:105A3C00282206210A20FCF7CBFA00222820114646
:105A4C00FCF7D0F9002008BD0B6882B0A3F114025A
:105A5C00082A12D803F1804303F504331A68486806
:105A6C00024300201A600B6803F1804303F50433F2
:105A7C001B680193019B02B070476FF08500FAE739
:105A8C000B68A3F11402082A9FBF03F1804303F5AE
:105A9C0004331A6849689BBF00208A436FF0850065
:105AAC001A60704710B50A68052A25D82A23D340F6
:105ABC00DB0721D54A68FF2A1CD0D3B203F18043FF
:105ACC0003F504331868C2F34234C2F3042204FA17
